:020000041000EA
:4000000000400208310100100D000000950100100000000000000000000000000000000000000000000000000000000091010010000000000000000091010010910100109B
:4000400091010010B5040010910100109101001091010010910100109101001091010010910100109101001091010010910100109101001091010010910100109101001039
:400080009101001091010010910100109101001091010010910100109101001091010010910100109101001091010010910100109101001091010010910100109101001020
:4000C00010B5064C2378002B07D1054B002B02D0044800E000BF0123237010BDBC0400080000000068600010084B10B5002B03D00749084800E000BF07480368002B00D1E4
:4001000010BD064B002BFBD09847F9E700000000C00400086860001054010008000000007047EFF3108072B6704780F310887047FFF7F6FF72B6104C104DAC4209DA2168FB
:400140006268A368043B02DBC858D050FAE70C34F3E70B490B4A0020521A02DD043A8850FCDC094809490860BFF34F8F00F008F900F01EF8FEE700006C600010846000100A
:40018000BC040008880600080000000808ED00E0FEE7FEE700B504207146084202D0EFF3098001E0EFF30880043001F0DFFEFEE710B562B6014800F057F9FEE7000008108E
:4001C00070B56549E0239B00CB580F221A401300D0339B005B5807210B40022B0AD002D8002B05D019E0032B06D0042B07D014E05A4816E05A4814E05A4B186811E01300DA
:40020000C0339B0054495B581F210B40112B06D0132B04D0FA20C00103E0534801E080200002002A36D14C4BB222D2009A5801211140B125ED005A59120F032422405B59AE
:400240001B0F1C4207D0444C63591B0F03242340012B02D102E0012300E00023002B01D0002901D1032A4BD13B4BB022D2009D58AD03AD0B3D495958C904C90C9C58240E51
:4002800001231C40013401F031FF6843210001F02DFF35E0012A33D12F4BC822D2009A5801251540C024E4001A59120F03210A401B591B0F194207D027490B591B0F0321DC
:4002C0000B40012B02D102E0012300E00023002B01D0002D01D1032A12D11F4DC022D200AB587F210B40A958090A1F263140AC58240C3440584301F0F9FE210001F0F6FE97
:40030000E0239B00144AD3581B0903221340D840144C6060164B1D692D0AFC32154001351969090E013101F0E1FEA060290001F0DDFE0500E06020610E4BC0180E4901F01C
:40034000D5FE20750D4BE818FA21890001F0CEFEA061C003E06170BD0000264000127A0000800601C000000800366E0184050000000021403F420F0040420F00E70300004F
:4003800010B5234BB021C9005A58520052085A50E02080001A583024A2431A50802252045A501C491C4A9950A021890104329950FF211A4A995081315A5892009208802076
:4003C000C00502435A505A588020000602435A505A58012082435A5000F010FAFFF7F0FE00F070F800F078F801F0F8FAB0235B055B78002B04D0B0235B055B78DBB200E0CF
:400400002123212B03D1064B0022DA605A6010BD0000264001000200840500008C050000E00023408023024AD3580320184070470000214010B5FFF774FE084980228C58AD
:40044000074B2340074C23438B508823034AD358DB06FAD5FFF769FE10BDC04600002140FCFF00000100FA0570B50500FFF759FE0400FFF7D7FF032801D1FFF7DBFF0A4A6C
:40048000B0239B00D55080215058084B03400848034353508823044AD358DB06FAD52000FFF743FE70BDC04600002140FCFF00000300FA0510B5024800F08CFE10BDC04679
:4004C000D804000810B5034A60328021042000F071FC10BDD805000810B501F0B2FD0400044800F027FD044800F08EFD200001F0ACFD10BDD80400082C4F0010FEE7C0462F
:40050000F0B50025002711E0BB00C658F3B2FF22964308E06A008A181478A419527822700135013BDBB2002BF4D10137052FEBD9F0BDC0460323064A1360064A13608022A8
:400540005201054B1A60054A054B1A607047C04608203140102031409402364001001180000E1F41F0B587B0854DA022D200AB580324A343AB50642332221221814800F02E
:400580008BFE814800F094FFA623DB00EB581C409B0700D50224002C02D10120FFF7AEFF7A4A902013587A490B40135013691B021B0A8020400403431361136919401161D0
:4005C0006F4BE02189005A580F26B2435A5058583022904358505858802424062043585004315858B04301252843585058589043585058582043585004315858B0435850B4
:400600005858904310273843585058582043585008315858B04305435D505858904302435A505A5814435C500221012000F06CFF0522584901A803F025FD01A9012001F049
:40064000ABF8002802D00320FFF758FF5249012001F014F9002802D00320FFF74FFF0021022000F051FF0021032000F04DFF0021042000F049FF0021002000F045FF01A8B4
:400680000200444B083332CB32C212CB12C200F063FF002802D00420FFF730FF38493F4A8B588020000603438B503D4801F00EF8002802D00420FFF721FF314C394BE15899
:4006C000394A0A40E250E158384A0A40E250E258802636063243E250043BE158344A0A40E250E158334A0A40802189010A43E250E258802109020A43E2502F4A11682F4B14
:400700000B4080256D002B431360002001F0D4FC2B4AA3581E43A650A3580126B3433343A3506421002001F039FC264B0221264A995026481958164A1140F8246401214325
:4007400019508021C900224858505858002421481C508024240118591040FE273F02384318511D48585058581C481E501C481C5822402A431A501B4A5A505B5807B0F0BD51
:4007800000002640008006018813000000002140FF00FFFF604F001010270000087F0000400D030004050000FEFCFFFFFFFF00FFFFF0FFFFFF8FFFFF00002740FFFCFFFFAF
:4007C0000C050000000001400C0C00000808000002FF0080CC0C000000FF0080240C00000408000001FF008010B50A00002103F052FC10BD10B503F045FC10BD70B58EB0C4
:400800009621002001F0CAFB01F0A0FB002814D101F08CFBC0235B00974AD358DB0705D41100964A8B585B005B088B509249934A8B588020000603438B50012001F0F8FA42
:400840008F4A516C8F4B0B40E82189010B435364536C1B0AFF2213403A2B07D1884A516C894B0B40E82189010B435364002300228649874801F0ECFB0023002285492A2032
:4008800001F0E6FB002300228349844801F0E0FB002300228249292001F0DAFB002300228049814801F0D4FB012300228021C905012001F0CDFB3422002101A803F0EBFB7F
:4008C0007A4C01AA0621200001F092F83422002101A803F0E0FB01AA0721200001F088F8FFF740FE724A734B1A6000240CE0620012195300704AD318198C9A8BD88B000485
:400900001043FFF771FF01340A2CF0D900240AE0620012199300684AD3189A6E596E186EFFF768FF0134122CF2D9644D2800083063494431FFF7E4FD0F22624B1A60624A02
:40094000624B1A60624A1368832149000B43136001AC22002B00203343CB43C243CB43C243CB43C221005B4801F0ACF922002B00443343CB43C243CB43C243CB43C221007D
:40098000554801F09FF922002B00683323CB23C223CB23C223CB23C22100504801F092F94F4D22002B000C3343CB43C243CB43C243CB43C221004B4801F084F92422002191
:4009C000200003F068FB862301932100464801F079F922002B00303343CB43C243CB43C243CB43C22100414801F06CF922002B00543343CB43C243CB43C243CB43C221001B
:400A00003B4801F05FF922002B00783323CB23C223CB23C223CB23C22100364801F052F9354D22002B001C3343CB43C243CB43C243CB43C22100314801F044F922002B0032
:400A4000403343CB43C243CB43C243CB43C22100164801F037F922002B00643323CB23C223CB23C223CB23C22100254801F02AF9FFF760FD0EB070BD000026400C05000076
:400A800000002740FF00FFFFFFC5FFDF0F0D0040140D0000020000400E0D0040130D000001000040000A0040030A0000000632400300FA05F0012140604F0010E050001093
:400AC0006050001000006440070101000002644000793440000032408000324080023240605100100003324080033240000432408004324000053240E05100108005324058
:400B00008006324010B583089A00801AC000FF228240D44381400A40072B32D89B001949CB589F46184B196A0C4022431A6228E0154B596A0C4022435A6222E0124B996A26
:400B40000C4022439A621CE00F4BD96A0C402243DA6216E00C4B196B0C4022431A6310E0094B596B0C4022435A630AE0064B996B0C4022439A6304E0034BD96B0C402243B9
:400B8000DA6310BD0C5C00100000214083089A00801AC100FF228A40072B2BD89B001748C3589F46164B186A1040C84023E0144B586A1040C8401EE0114B986A1040C8404D
:400BC00019E00F4BD86A1040C84014E00C4B186B1040C8400FE00A4B586B1040C8400AE0074B986B1040C84005E0054BD86B1040C84000E00020C0B27047C0462C5C001055
:400C00000000214070B504000D000B4B9A680B4B9A420BD1002903D1FC21094801F078F91034064BA400E058E55003E01034A400044BE05870BDC04600ED00E000000008EA
:400C40004C5C001000000010F0B583B0041E019150D04368032B03D93621294801F058F90023E05E002802DBA178FFF74BFF0023E25E6368002A12DB9008224EC0308000C5
:400C8000875903210A40D200FF25290091408F4399012B000B4093403B43835117E092B20F21114008398908063189001648844661444E6803200240D200FF2738009040B9
:400CC000864398013B000340934033434B600E4B9A680E4B9A420FD1019B002B03D14521074801F015F90023E05E0199FFF78AFF002002E0064800E0002003B0F0BDC04631
:400D00004C5C001000E100E000ED00E0000000080100560070B504000D000369002B0ADA0B0C03D00549064801F0F2F82D042D0C6560002000E0034870BDC046A7020000A6
:400D4000905C001001008A0070B505000C000368002B01DA002300E0084B002B0BD1EA60230C03D00649074801F0D2F82404240CAC60002000E0014870BDC04601008A00D8
:400D80008E020000905C001070B505000C1E03D19921064801F0BCF82B69002B03DAEB682360002000E0024870BDC046D05C001001008A00F8B504000E0015000F283FD8FA
:400DC000002A10D100290ED10F2804D99E21FF31214801F09DF86401204B9C466444204B1C60002037E0002D2CD0002E2CD0F3062CD10F2C04D99E21FF31174801F088F856
:400E00006401164B9C466444154F3C607E60BD60F2080021280003F03EF900212000FFF779FF3A0001CA0021FFF78EFF00280FD10B4B18680021FFF76DFF00280AD10AE054
:400E4000084808E0074806E0064804E0054802E0054800E00448F8BD105D0010000023406806000803018A0001018A00F0B583B00D001C4B1B68DC68236883422DD947094D
:400E80007B01C01A012383401E00002903D101F0D8F8019001E000230193124B18680368002B01DA002300E00F4B002B0ED16368BF00DF193B68334203D0B3433B60002419
:400EC00000E00A4C0021FFF725FF00E0084C002D04D1019801F0B9F800E0064C200003B0F0BDC0466806000801008A00020188000301880004018A000A4B1B68DA6813681C
:400F000083420BD943095901401A0121814052689B009B580B4203D0034802E0034800E003487047680600080101880004018A0000018800034B1B68002B01D1014B1860B9
:400F40007047C04674060008F0B5474680B404000F0090461E00072803D9B421254800F0D7FF254B1B682C2060431C18FF22150035402560330A13406360330CA3600F2D9B
:400F800004D99E21FF311D4800F0C2FF6B011C4A94466344236165680F2D04D9DC214900164800F0B5FF6D01164B9C4665446561A668330C04D0EB214900104800F0A8FFC5
:400FC000330C04D0D821FF310C4800F0A1FF3604330C1E43AE604346E36127620023A361069B002B02D000229B5EA38104BC9046F0BDC046505D001074060008105D00108A
:401000000000234000102340F0B58FB0041E03D150212E4800F07CFF6368032B03D952212A4800F075FFE36A002B03D15621274800F06EFFE368072B03D95721234800F0D5
:4010400067FF236A072B03D95821204800F060FF236B002B03D159211C4800F059FF07AA1300210061C961C321C921C302AD290023001433C1CBC1C141CB41C10821535E53
:401080000CAE3380079B1933B370089B0D930B9B0A980096A26AE16AFFF756FF2B69E868002200920021FFF74FFF216B3000FFF7CBFD0023F25E002A05DB1F231A401E3B06
:4010C0009340034A13600FB0F0BDC046505D001000E100E0F8B505000F0016001C00002A03D1FC21244800F013FF072D03D9FD21214800F00DFF072F03D9FE211E4800F0D7
:4011000007FF1E4B1B682C2128004843181879435918012213004D68AB401B044568AA4015000269002A20D08F69002F1FD11268002A01DA002200E0114A002A19D1326899
:401140001204120C134333600369DE6001238B614C6204692B0C03D00A490B4800F0D8FE2A04120CA260002004E0084802E0084800E00748F8BDC046505D0010740600080A
:4011800001008A008E020000105D001004028A0007028A0070B505000C001600072804D96021FF31084800F0B3FE084B1B682C2068431818C369B34204D9036AB6009C516F
:4011C000002000E0024870BD505D0010740600080A028A0070B582B0040000230193002804D1D92149002B4800F092FE2369002B04D1B421FF31274800F08AFE6369002BEF
:4012000004D1DA214900234800F082FE236A002B04D1B621FF311F4800F07AFE6269D5682B0C1FD01B041360136820690369002B18DA01A9FFF7A8FD00280ED101980368BA
:401240001E0CFF221340E269934207D29B00226AD358002B02D0984700E0002631002069FFF758FD2D042D0C0FD063691D601B68636A002B03D098470023636203E0A36A07
:40128000002B00D098470023A36163691B6802B070BDC046505D0010F8B50C0015001E006C4B6D4AD3585B0F00D0CDE001F0F8FD6A4901F06FF9071C300001F0F1FD061C8A
:4012C000280001F0EDFD011C00F0EEFF011C301C01F060F9051C281C02F08AFC02F0F6FE02F0DAFC5E4901F01FFB051C5D49381C01F01AFB061C200001F0D2FD041C011CA1
:40130000301C01F011FB011C281C01F043F9051C5549381C01F008FB011C381C01F004FB011C201C01F000FB011C201C01F0FCFA4E4901F02FF94E4901F02CF900F09CFF01
:401340000400FC218905281C00F08CFF00287DD0032C7DD84749281C00F066FF00281FD14549281C00F060FF00281BD14349281C00F05AFF002817D14149281C00F054FF56
:40138000002813D13F49281C00F04EFF00280FD13D49281C00F048FF00280BD00C260AE0002608E0022606E0042604E0062602E00A2600E00E263549281C00F035FF002866
:4013C00009D03349281C01F0AFFA00F055FF314BC5186D0000E00625012C03D8013C631E9C41E4B22C49381C00F032FF00280DD12A49381C00F02CFF002809D12849381CD3
:4014000000F026FF002805D0022704E0002702E0012700E003271049224A8858800B80032403C0239B011C400443BB021C43F001C0239B0003401C4336012643072005401D
:401440002E438E50002004E0174802E0174800E01648F8BD2C050000000026400024744900007A44C3F5484033334544286B6E4E000090409A99193F3333333FCDCC4C3F7B
:401480006666663F3333933F3333A33F9A99993F0000A040FEFFFF7F6666D641D7A3BA410000844120FF000003004A0001004A0010B50400104B114AD358002B17DB110029
:4014C0000D4A8B588020000603438B5003E0012000F012FD013CA623DB00084AD3589B0701D4002CF3D1002C03D1054802E0054800E0002010BDC0462C050000000026403D
:4015000002004A0003004A0004281DD8042904D94B1EFF3B9BB2132B18D8FF290CD91F2319400B4A0300C0339B009950D03080000423835000200AE007231940D0308000CB
:40154000034BC150002002E0024800E0014870470000264001004A0070B5041E04D1EF2149004C4800F0D4FCB023DB004A4AD358002B01DB002500E0484D002D00D086E0F5
:40158000474B22689A4204D9EE21FF31414800F0BFFC23689B03990BE3791B068022520413400B43B022D2003B498B50A2883D4B9A4204D9FA214900364800F0A9FC228970
:4015C000394B9A4204D9F621FF31324800F0A0FCA388DB04D90C23891B04344A13400B43334A2D498B50A37A0F2B04D9FC21FF31284800F08DFCE37A0F2B04D9FE21490074
:40160000244800F085FCA289264B9A4204D9FE21FF31204800F07CFCA37A0F211940E27A1201FF2313400B43A289120221490A401343A27B1207C02189050A401343B12220
:40164000D20015498B50A379072B03D91A49114800F05EFC228A144B9A4203D917490D4800F056FC0C4816494658164B1E40A3791B02E022D2001340334343504658124B01
:401680001E40238A1B04094A134033434350280070BDC046905D00100000264003004A00FFFF0300FF1F0000FF0100000000FF018405000000FF1F00050200000602000071
:4016C0008C050000FFF8FFFFFFFF00FE70B505002D492E4A8B588020000603438B502C0003E0012000F008FC013CB223DB00264AD3585B0701D4002CF3D12349B122D200C2
:401700008858234B03408020800503438B50002D02D00ED0002C0CD01B49B022D2008B588020000603438B5003E0012000F0E4FB013CB223DB00144AD358DB0701D4002C0F
:40174000F3D1002D0ED0002C0CD10F4AB021C90053585B005B0853500C4953585B005B0853500BE0084B0221B222D2009950B121C9005A58C020800502435A50002C01D1A2
:40178000044800E0002070BD000026408C050000FFFFFFCF02004A0070B50300012823D102008032FF32920030481258002A1DDB8A78023AD2B20E2A1AD84A78002A19D020
:4017C000122A19D80A78C878002801D0132400E01624944212D8002801D0382000E0702090420DD300200CE021480AE0214808E01F4806E01E4804E01D4802E01C4800E0AB
:401800001B48002830D1013B0A79022A1ED00A787F2616404A781202F8246401224032438E783604F8256D0334002C4022431600CA78D20680252D052A40140032002243AA
:401840001C008134FF34A400084D6251074D8133FF339B005C59084A14400A791207C02189050A4022435A5170BDC0460000264001004A0003004A00FFFFFFCF70B50C00F5
:4018800001281CD1451E104A8030FF3080008358802109060B43835003E0012000F02CFB013C2B009133FF339B00074A9B58DB0701D4002CF1D1002C03D1044802E00448D3
:4018C00000E0002070BDC0460000264002004A0001004A00214B984230D00ED8402831D004D800281FD010282AD031E080282BD080235B00984229D02AE0194B984229D038
:4019000007D8A0231B0698420DD0164B984212D01EE0154B98420AD0144B984209D0144B984215D101E0002016E0124814E0124812E0124810E0A020C0030DE007480BE048
:401940000F4809E00F4807E00F4805E0034803E00E4801E0A420C0037047C04606005200010000F0090000A0040000F0050000F0030000F00100520002005200030052003A
:40198000010050000200500005005200FF00520010B50C4B1B69002B11DB0B4B1868FFF799FF0121094B0A4AD150084B084AD358002BFAD1074BD358002BF6D100E0064873
:4019C00010BDC04600002340780600080C040000000025408C0400000200500010B5022202490020FFF7D6FB10BDC0469D010008F8B506000D001400002800D142E1002A26
:401A000000D141E1072903D93921A04800F080FA2368012B03D93A219C4800F079FA0F2362689A4303D03B21984800F071FA237A1F22934303D03C21944800F069FAE36825
:401A4000032B03D93D21914800F062FA2369012B03D93E218D4800F05BFA6369012B03D93F218A4800F054FAA369012B03D94021864800F04DFAE369032B03D9412183488B
:401A800000F046FA236A012B03D942217F4800F03FFA636A012B03D943217C4800F038FAA36A012B03D94421784800F031FAE36A032B03D94521754800F02AFA236B072B4C
:401AC00003D94621714800F023FA2768072D03D96F49704800F01CFA012F04D9BA2189006C4800F015FA002F03D10123AB40736002E00123AB40B3606768072D04D9E421D6
:401B00008900644800F004FA0F233A009A4303D06149604800F0FCF9AA00B36A0F210800904083430F4097401F43B762277A072D03D95A49574800F0EBF91F233A009A43D9
:401B400003D05749534800F0E3F9564BF318DB09554A944663441B01032D0BD81A68E8001F2181408A4311001F223A4082400A431A600BE0291F5A68C9001F208840824395
:401B800010001F223A408A4002435A60E768082D03D946493F4800F0BBF9032F03D944493C4800F0B5F96A00736A03210800904083430F4097401F4377622769082D03D9AF
:401BC0003C49344800F0A4F9012F04D9CA21C900304800F09DF9B36901221100A9408B431740AF401F43B7616769072D03D93249284800F08DF9012F03D93049254800F0AE
:401C000087F9F26A01231900A9408C468A431F40AF401743F7626F00103703210800B84062461043326B8243A0691840A8400243E0690140B9400A433263706BFF22944602
:401C40009043276A1F40636A5A00022313403B43A26A9100042739400B431F00E36AD900182319403B000B43226B520161460A401343AD00FE2292001540AB4003437363B1
:401C8000002002E00E4800E00D48F8BD185E0010E7020000585E00109103000045020000460200000000CEBF00100304D4060000D50600004F060000D2030000D303000031
:401CC00001005A0070B505000C00002848D0002948D0FF230A689A4303D08D21224800F017F9FF2322699A4303D08E211E4800F00FF9A3685B0D03D08F211B4800F008F9C2
:401D000063685B0A03D09021174800F001F9E3695B0F03D09121144800F0FAF8236A5B0F03D09221104800F0F3F8104BEB18DB090F4A944663441B0122682A60E268AA62DB
:401D40002269EA6262692A63A2686A626268AA61A2696A63E2691A60226A5A60002002E0044800E0034870BD185E00100000CEBF0010030401005A00034A93698021490444
:401D80000B4393617047C04600F02540024A9169024B0B409361704700F02540FFFFFFFE10B5074A074813580F24A34302210B43135004381358A3431943115010BDC0461C
:401DC0000000214004F0000010B5074A074813580F24A34303210B43135004381358A3431943115010BDC0460000214004F000000449054A8858054B0340C020C001034368
:401E00008B5070470000214004F00000FF8FFFFF0449054A8858054B03408020C00103438B5070470000214004F00000FF8FFFFF70B50500012803D92A492B4800F068F8A1
:401E400000F0FFF80400294B294AD3581F221340E822D200B02149058A5CD31A5A1E9341DBB29D4239D0002D14D1FFF785FFFFF797FF1F481D4943581F229343143A134307
:401E80004350FFF7B5FFE823DB00B0225205D35CDAB211E01648154943581F229343143A13434350092000F027F8FFF7B1FF114BB0225205D35CDAB20D4E0C4831581F23ED
:401EC000994313400B433350012D06D1092000F013F8FFF779FFFFF759FF200000F0B5F870BDC046ED060000985E00101CFF0000000026404107000010B5034B1B7858430A
:401F000000F096F810BDC046D400000801BEFEE770B50D00044C18220100200002F0C3F8A5610020FFF7F2FF80040008054B802212069A649B6C002B01DB002000E002484D
:401F40007047C0460000274003004600054B8022120198585B68FF221A4202D08023DB021843704700002640FEE7C04610B50A4B0268DA6142681A6282685A62C2689A6259
:401F80000269DA6242691A6382695A63C2699A63FFF7EAFF10BDC04680040008F0B5002801D0192200E064228A42924152421C4BE8256D005C590327BC433A4014435C5195
:401FC0005C59184E34405C51D03D5C59BC4322435A515A5916405E51002805D010290DD921290DD8012014E01D290BD93A290BD957290BD978290BD803200AE0002008E04E
:40200000022006E0002004E0012002E0022000E00420054A13680F218B4303431360F0BD00002140FFFCFFFF00002540000000000230800803D001300238FCD1C046C046AD
:402040007047EFF3108072B6704780F310887047F8B506000C0015001F00012B03D936211248FFF755FF32006240F0231B01134019D1220A0F210A40D20170310C401419CD
:40208000A4000B4A94466444FF221640002D01D00133FF3333437F028026B60037403B432360002000E00348F8BDC046D85E0010002001400100CE00042805D1094A1168B5
:4020C00004230B4313600CE00006C0239B04184090239B00044AD050024A136804218B431360704710E000E000002140002243088B4274D303098B425FD3030A8B4244D3DE
:40210000030B8B4228D3030C8B420DD3FF22090212BA030C8B4202D31212090265D0030B8B4219D300E0090AC30B8B4201D3CB03C01A5241830B8B4201D38B03C01A524172
:40214000430B8B4201D34B03C01A5241030B8B4201D30B03C01A5241C30A8B4201D3CB02C01A5241830A8B4201D38B02C01A5241430A8B4201D34B02C01A5241030A8B4239
:4021800001D30B02C01A5241CDD2C3098B4201D3CB01C01A524183098B4201D38B01C01A524143098B4201D34B01C01A524103098B4201D30B01C01A5241C3088B4201D32E
:4021C000CB00C01A524183088B4201D38B00C01A524143088B4201D34B00C01A5241411A00D20146524110467047FFE701B5002000F006F802BDC0460029F7D076E7704758
:402200007047C0468446081C6146FFE71FB500F047FB002801D40021C8421FBD10B500F0D3FA4042013010BD10B500F039FB002801DB002010BD012010BDC04610B500F0D7
:402240002FFB002801DD002010BD012010BDC04610B500F0E1FA002801DC002010BD012010BDC04610B500F0D7FA002801DA002010BD012010BDC0469E2110B5C905041CFB
:40228000FFF7F0FF002803D1201C00F0E7FD10BD9E21201CC90500F05BFC00F0DFFD80231B069C466044F2E7F8B54A02430244004E00C50F240E28009B09360EC90F920908
:4022C0008D4259D0A01B002800DC8DE0002E1AD1002A00D079E05A0704D00F221A40042A00D004335A0138D50134FF2C00D189E028009B015B0AE4B25B02E4055B0A234387
:40230000C0071843F8BDFF2CE5D08021C9040A431B2800DD89E016002021C640081A8240511E8A4132439B1A5A0114D59B019E09300001F07BFD05388640844265DC041BB4
:40234000330020200134E340041BA640721E964100243343BFE75A07BFD1DF082800FF2C2FD1002F00D187E08022D20313003B435B025B0AFF24BFE7A11B002949DD002E88
:4023800029D0FF2CA7D08026F60432431B2900DD8DE017002026CF40711A8A40511E8A413A439B185A01D6D50134FF2C64D0012276491A405B080B4013438CE7031ECAD1AB
:4023C00000207B025B0AE4B296E701380028AAD0FF2C9DD17FE7002A00D17CE701390029DFD0FF2CD2D176E7002820D1601CC0B2012853DD80279E1AFF0437402FD0D61A2B
:402400000D0095E72800002376E7614B241A334061E700294DD1611CCEB2012E2FDDFF292AD09B185B080C0055E701227BE7002C1BD1002B5BD0C04300280CD0FF2E7ED052
:402440001B2800DD92E01D002024C540201A8340581E83412B43D31A34000D0064E7002E00D065E700200024ABE7FF2E67D08024E40440422343E3E7FF2400233CE7002CEF
:4024800061D1002B7ED0002A00D124E79B185A0100D460E73E4A0C0013401CE7002C1ED1002B2FD1002A66D013000D0013E7012277E7002C1FD1002B5AD0C94300290BD096
:4024C000FF2E50D01B295FDC1F002024CF40611A8B40591E8B413B439B18340062E7002B1CD1002A4AD013000D00FF24F3E6130034000D00EFE6FF2E35D08024E40449427D
:402500002343DFE7002A00D1E5E68027981AFF04074000D152E7D31A0D00DCE6FF24002A00D1D8E68020DB08C003034204D0D208024201D113000D00DB00FF24CBE6130033
:40254000FF240D00C7E6002B0DD0FF24002A00D1C1E68021DB08C9030B42EDD0D2080A42EAD11300E8E71300FF24B4E6012372E713003400AFE60027002022E78027002054
:40258000FF03F1E61300A6E60123A5E7FFFFFF7DFFFFFFFBF0B5564644465F464D46F0B444024600C70F83B08846650A360EBA463DD0FF2E22D00023EC00802599469B4624
:4025C000ED0425437F3E43465C025800DB0F640A000E984636D0FF2830D080230021E400DB041C437F38301A0190484642460843724E800030587A4013008746002D44D198
:4026000008239946063B9B46DDE70122FF2000241A406402C305640AD2071C431443200003B03CBC90469946A246AB46F0BD002D20D104239946033B9B46C4E7002C17D1B7
:40264000022102E0002C0AD10121321A01924A4643460A435A48920082587B409746200001F0E4FB431F76309C4040420021BAE70321B8E7280001F0D9FB431F9D40002317
:402680007630464299469B469DE70C239946093B9B4698E780240022E403FF20B9E70024C2468B465A465346022AAED0032A7DD0012A31D1012200201A400024A9E701228F
:4026C000101A1B2856DD1A4000200024A1E78023DB031D424BD18023DB032B435C02640A3A00FF2095E76D016001854230D2019A0024013A01921B220127290064006D0004
:40270000002901DBA84201D82D1A3C43013A002AF3D16A1E95412C4301987F300028CEDD620704D00F222240042A00D00434220103D5244A019814408030FE2800DD64E7A0
:402740000122A401640AC0B21A4062E72C00A9E72D1A1A220124CFE76B02BCD500248023DB031C436402640A4246FF2051E71C42B3D1F4E721002022C140101A8440621EB0
:4027800094410C43620704D00F222240042A00D00434620104D5012201201A40002438E70122A401640A1A40002032E78023DB031C436402640A5246FF202AE71C5F001002
:4027C0005C5F0010FFFFFFF7430270B542004C005D0AC30F4802120E460A240EC90FFF2A0FD0FF2C11D00120A24200D070BDB542FCD18B420DD0002AF8D12800431E98414C
:40280000F4E70120002DF1D1EBE70120002EEDD1E9E70020EAE7C0464302F0B542005D0AC30F4802440A4800120E000EC90FFF2A1FD0FF2822D0002A09D16E426E41002800
:402840000FD1002C0DD10020002D09D005E0002801D1002C01D08B4213D0584201231843F0BD002EF7D048424141012049420843F6E7002DDDD002204042F1E7002CDAD0F5
:40288000F9E78242E9DC04DBA542E6D80020A542E6D25842434101205B421843E0E7C0464302F0B542004C005E0AC30F4802120E450A240EC90FFF2A17D0FF2C19D0002AA5
:4028C0000BD170427041002C17D0002807D048424141012049420843F0BD002C13D08B4214D0584201231843F6E70220002EF3D1E3E70220002DEFD1E1E7002DE5D1002069
:40290000002EE9D0EDE7002DE9D1EAE7A242E8DC04DBAE42E5D80020AE42DDD25842434101205B421843D7E7F0B557464E4645464300E0B446028846760A1F0EC40F002F3F
:4029400047D0FF2F25D0002380259A469946F600ED042E437F3F434642465D02D20F5B006D0A1B0E904640D0FF2B39D080220020ED00D20415437F3BFB1842465746591CD7
:4029800062408C4607430F2F5CD86F49BF00C9598F46002E45D108239A46063B9946DAE7424602282DD0032800D1C3E0012800D0A2E0002500260240D4B27602ED05760A83
:4029C0002E43E407264330001CBC90469946A246F0BD002E1AD104239A46033B9946BAE72A00511E8A41901CC6E70120002DC3D0280001F01BFA431F76309D40434200208C
:402A0000BAE70124FF2514400026D6E7300001F00DFA431F9E400023763047429A46994699E70C239A46093B994694E780260024F603FF25C1E735004846B2E7350022008D
:402A40004846AEE72904090C0800370C3604360C2C0C7943704367437443060C64183619B14203D980214902884647440004000C310409188D01681E8541890E2943350CAD
:402A8000ED19AD010D43290104D5012369081D4063460D4319007F31002925DD680704D00F202840042800D00435280103D5274980330D401900FE29A3DC0124AD016E0AA6
:402AC0001440CDB279E78020C003064207D0054205D128434602760A4446FF256DE706437602760AFF2568E70124611A1B2905DD14400025002660E76346CBE72E002023A3
:402B0000CE40591A8D406B1E9D412E43730704D00F233340042B00D00436730104D5012401251440002648E70124B601760A1440002542E780260124F6032E437602760AD7
:402B40001440FF2539E7C0469C5F0010FFFFFFF7F8B54A024E0043024400240EC50F9B09360EC90F9209FF2E00D183E001204140A01BA9425CD0002800DC95E0002E1CD11E
:402B8000002A00D081E05A0704D00F221A40042A00D004335A013BD50134FF2C00D191E001209B015B0AE4B205405B02E4055B0AED0723432B431800F8BDFF2CE3D08021FC
:402BC000C9040A431B2800DD90E016002021C640081A8240511E8A4132439B1A5A0115D59B019E09300001F021F90538864084426CDC041B330020200134E340041BA640C3
:402C0000721E964100243343BDE70D005A07BCD1DF0801231D40FF2C33D1002F00D190E08022D20313003B435B025B0AFF24BCE700284FDD002E2ED0FF2CA4D08025ED04A8
:402C40002A431B2800DD97E016002025C640281A8240501E824132439B185A01D5D50134FF2C6DD001227B481A405B08034013430D0088E7002A00D07AE777E7031EC5D1C8
:402C800000257B025B0AE4B28FE701380028A4D0FF2C97D177E7002A00D174E701380028DAD0FF2CCDD16EE7002821D1601CC0B2012858DD80279E1AFF0437402FD0D61A8E
:402CC0000D008FE701231D4000236EE7624B241A334058E7002851D1601CC6B2012E33DDFF282DD09B185B0804004CE7012274E7002C1AD0FF2E1FD08024E40440422343A9
:402D00001B2800DD96E01D002024C540201A8340581E83412B43D31A34000D005EE7002E00D05FE700250024ABE7002B44D0C0430028F0D0FF2EE3D11300FF240D0022E709
:402D40000D00FF24002330E7002C5DD1002B7DD0002A00D117E79B185A0100D456E73E4A040013400FE7002C1ED1002B2FD1002A65D013000D0006E701226DE7002C1FD1E5
:402D8000002B59D0C04300280BD0FF2E4FD01B285EDC1D002024C540201A8340581E83412B439B18340058E7002B1CD1002A49D013000D00FF24E6E6130034000D00E2E639
:402DC000FF2E34D08024E40440422343DFE7002A00D1D8E68027981AFF04074000D14DE7D31A0D00CFE6FF24002A00D1CBE68020DB08C003034204D0D208024201D1130027
:402E00000D00DB00FF24BEE6002B10D0FF24002A00D1B8E68020DB08C003034203D0D208024200D11300DB000D00FF24ABE61300FF24A8E601236EE713003400A3E60027EC
:402E400000251EE780270025FF03E9E613009AE60123A6E7FFFFFF7DFFFFFFFB4302590A4300C20F1B0E00207E2B0EDD9D2B0DDC802000040143952B0BDC9620C31AD94050
:402E80000B005842002A00D118007047034BD018FBE7963B99400B00F3E7C046FFFFFF7F70B5041E28D000F0C1FF9E231B1A962B0ADC9622D21A94406202520AD8B25202D8
:402EC000520AC005104370BD992B18DC9922D21A9440114A2240610704D00F210C40042C00D00432510103D50B4B1A409F231B1A9201520AD8B2E2E700200022DFE7052211
:402F00002500121AB921D5402200C91A8A40541EA2412C001443DCE7FFFFFFFBF0B556464D4644465F46F0B41D000E034C00CB0F87B0070092468146360B640D98466AD04D
:402F40006D4B9C4235D08022430F12041343F6001E43C3009946694B00279C460023644402932B0368001B0BED0F51469B46400D009500D178E0604B98426CD05B46DA00C9
:402F80004B0F802109040B4313439B465346D9005A4B9C46002360444246201A6A40924601901F430F2F00D9B0E05548BF00C0598746374300D088E000239946023308278C
:402FC00000260293CDE74346B34649460093029B009A9246022B00D0BFE1002153460122002689461A40444B002136030C0D2405360B2643434C1B0526401E437600D2074C
:40300000760816434846310007B03CBC90469946A246AB46F0BD330003434FD0002E00D1BCE1300000F002FF03000B3B1C2B00DDADE11D220100D31A08393A008F408E407B
:40304000DA40B9461643304B00279C46002360444442029385E753465A4613432CD1002300219B46023397E70B4320D05B46002B00D19EE1584600F0D9FE03000B3B1C2B59
:4030800000DD8FE102005946083A91408B461D21CB1A5146D9400B0059460B4351469B469140194B9C4660444042002374E7002300219B4601336FE703236DE70023994615
:4030C00001330427002602934BE703230C27029347E70122D51A382D00DCB0E153461A4000210023002689467EE700238026994600223603004B77E7FF07000001FCFFFF46
:40310000DC5F0010FFFF0F80F30300005E4500D972E100D16DE1019B4D46013B01930023340002935B461E020B0E1E430B020393330C994633041B0C494620000093FEF757
:40314000D5FF009B370043430600494620009846FFF752F82C0C09040C43A04509D9E419731EA74200D95CE1A04500D859E1023EE4194346E41A49462000FEF7B7FF030050
:40318000009A80465343494620009B46FFF734F82A040904120C0A4393450DD94346D219013B974200D93AE1934500D837E102235B429C46D219E0445B46D21A43463604BB
:4031C00033439B460399180C0B0C1D00059309045B46090C0C001B041B0C4443049159436B4368431B190D0CEB189C4203D980246402A44660441C0C09041B04090C201883
:403200005D18824200D2DEE000D1D7E0161A029B9C465D1BAC459B415B42F61AB74200D106E149463000FEF761FF009B04004343494630009846FEF7DFFF2E0C09040E43AA
:40324000B04509D9F619631EB74200D9F3E0B04500D8F0E0023CF6194346F31A494618000293FEF743FF009B06004343494602989846FEF7C1FF2D0409042D0C0D43A845B8
:4032800009D9ED19731EAF4200D9D6E0A84500D8D3E0023EED192404210043463143049E059A3000ED1A0B040C0C1B0C58436643534354439A19030C9B189E4203D9802207
:4032C0005202944664441A0C00041B04000C14191B18A54250D34DD001231943964A019B94466344002B00DCF3E64A0709D00F220A40042A05D00A1D8A42894149428B4400
:4033000011005A46D20108D55A468C4B1A4093468022D2009446019B6344894A934200DD5BE65A46C908500708435602514601225B058146360B5B0D0A4055E680231B03F0
:403340001E4211D05A461A420ED15E461E433603360B2A0089467B4B46E6032B00D1E1E0012BBBD11A40BBE61E433603360B4246744B39E6002BB1D07D194A1EAF4252D94D
:403380001100A542A8D1039A9A42A5D1A6E703003E00283B9E400023994654E600F046FD203041E603005246283B9A400021934677E6504600F03AFD20305EE6029B002675
:4033C000AB4200D323E7039E0299B44661448846B045B6415B467642F619B218013B0291974213D290424FD800D18EE0161A9B460DE7894500D28EE674084B46F60735001F
:403400005B081D434B46DB0702938BE69742EDD10399029CA142E5D93E1A9B46F7E69846CAE61E00A5E6AC423ED874D0110053E70121494252E71C000EE71E002BE71F2D8B
:403440003CDC20230A0058465B1B9840EA4099400243481E81415E461143EE404B0709D00F230B40042B05D00B00191D99429B415B42F61833023CD55346012200211A4099
:40348000002601238946AFE502235B429C46039CE344A446029B63449846A045B6417642F6190293B218B1E603988A1E41008142B6417642F619AD19039161E71F225242D4
:4034C000D31A5A46DA401300202D29D040225846551BA8400143481E814107200B4318400026002809D00F2200261A401900042ABBD10B0070077602360BDB08034399464D
:40350000012253461A4000236EE502998D42BBD89B4600267BE603989842C5D3110032E70020D7E780265B4636031E433603360B009A8946034B57E5FF030000FFFFFFFE3A
:40354000FE070000FF070000F0B557464E464546E0B40E001100F20F9246C500420F180337037400400A4E0F7F0A3043CF4E17435A00640D520DDB0FC900B24200D1E5E0F3
:4035800001267340A61AB446534500D1AFE0002E00DC0DE1002A3AD103000B4300D0E4E06B0709D00F232B40042B05D02B1DAB42AD416D427F191D003B0200D488E0BB4B7B
:4035C00001349C4200D110E13A00B94B51461A4001235007ED08520264050543120B640D0B400021280012030D0D120B64052D0515436208AF4CDB072C4014436400640817
:403600001C4321001CBC90469946A246F0BDA74B9C42C5D080231B0418436346382B00DDFDE01F2B00DD30E1624620239B1A02009A40664690460A009940F24046464B1E60
:4036400099413243114363460200DA40691A8D429B410D00BA1A5B42D71A3B0235D57A02530A98464346002B00D1C4E0404600F0DDFB0300083B1F2B00DDC5E02022290053
:40368000D21A4746D1409F400A009D403A439C4200DDC0E01C1B631C1F2B00DDE4E0202114002800C91AD8408C408D400443DA40681E854117002543002471E74246634657
:4036C0001A4300D14CE2674645466B0700D069E7012351467807ED08FA080B40054373498C4238D012036405120B640D79E7002E00DC9AE0002A47D06C4A944200D14FE78A
:403700008022120410436246382A00DC08E10143481E81410022C9B24919D219A942BF410D007F42BF183A0200D442E15F4A0134944200D14EE101205D4A69083A402840C7
:403740000843D507054357089A4629E706000E4300D017E714E72900114300D1F9E1802109030A431203120B3BE701235B429846C4446346002B72D1691A8D429B413F1AB0
:403780005B42FF1A0D0068E702000A4300D107E7012252429046C4446246002A00D0E6E06918A942B6413F187642F7190D00BAE7002E00D080E0621C5205520D012A00DC23
:4037C000F9E06A1A91464D45B6413A1A7642921B9046120200D499E04D1BA9428941C71B49427A1A90469A463CE752460123002513400022F5E6280000F018FB2030030076
:40380000083B1F2B00DC39E72A002838824000259C4200DC3EE7264FE41A1740C0E60143481E81410022C9B210E7002E00D0F1E0621C94465205520D012A00DCA0E01B4A76
:40384000944500D1C5E06918A94292413F185242D2194908D5070D4357086446A0E6134B9C4200D0D9E69BE611001F3CE1400C00202B00D180E04021CB1A9A4015436A1E77
:4038800095410027254300241FE763460200203BDA406346202B71D0402366469B1B98400143481E814111430022CFE6FF070000FFFF7FFFFFFF0F80002C48D0CA4CA242A3
:4038C00000D1A2E07442A1468024240427434C46382C00DDDBE01F2C00DD44E14E462024A41B3E00A640A246B0464C462E00E640B4464646644626435446A5406C1EA541C0
:4039000034002C434D46EF400D1B28E04A4643464D461A4300D0A5E6002300240025DEE61F2A5ADC66462022921B060096409146B04662460E00D640424616434A4691408D
:403940004A1E9141020060463143C240E4E63C002C435AD0F443A146002C52D14D1BA9428941C71B49427F1A14009A4675E69E4A944200D0C7E613E600227FE700208FE71F
:40398000002C00D0C8E03B002B4300D10FE103000B4300D104E66918A9429B413F185B42DF193B0200D41AE1904B0D001F406446F6E59A4689E63A002A43002C5CD1002A68
:4039C00075D102000A4300D1CAE007000D009A46E6E564460022002581E662460600203AD6406246B046202A00D1B7E040226646921B904001434246481E8141114300223D
:403A00008AE6794CA24200D061E707000D0014009A46C5E5002C41D13C002C4378D0F443A146002C20D0704CA24271D04C46382C00DDB2E01F2C00DDBCE02026341BA246B1
:403A40003C005646B4404E46A0462C00F440A446444666463443A4465446A54064466E1EB54125434C46E7406D188D4289413F184942CF19140056E6002A2FD102000A43A2
:403A800000D184E007000D009A46574C88E53D436F1EBD41ECB200270D1B60E7524CA24236D0744280263604A1463743BEE702000A4300D174E56A1A90464545B6413A1AC2
:403AC0007642921B9446120200D4F7E54D1BA9428941C71B49427F1A9A4661E502000A433AD0ED087C072C438025FA082D032A4208D0C7082F4205D145072C003A009A4677
:403B0000C9080C43670FD200E5001743364C47E507000D00140043E53A002A4343D002000A4319D0ED087C072C438025FA082D032A4207D0C6082E4204D147073C0032001E
:403B4000C9080C43D700620FE50017439A46264C26E50022002544E5234C21E5002049E700230025BBE54C463E00203CE6404C46B446202C31D040244E46A61BB7403D43C9
:403B80006C1EA54164462C4300270D1BE7E6802200231203144C0025A1E53D436F1EBD410027EDB260E707000D000F4CF8E407000D00F5E44E463C00203EF440A0464C4651
:403BC000202C0ED040244E46A41BA7403D436F1EBD4144460027254346E70027CFE70D0073E50027F2E7C046FF070000FFFF7FFF4200120E511C4302C9B270B55D0AC40FF4
:403C0000012915DDE02189008C466D071B0B6244002128000D0D2D052B431C4D52052B40520813435B00E4075B082343190070BD002A15D1002D1FD0280000F0F7F80A2834
:403C40001DDC0B232A001B1ADA4013000200153295400F4A1B03121A52051B0B520DD7E7002D06D080221B0B120313436D07094ACEE7084A0023CBE700220023C8E7030066
:403C80000B3B9D402B000025E3E7C046FFFF0F8089030000FF0700004B0070B55E0D0C03751C640A420F6D052243C90FC4006D0D012D2ADD3B4BF318FE2B1ADC002B42DD4C
:403CC0008001451EA841D2001043620F0243500704D00F201040042800D004328020C004104021D00133FF2B03D09201520ADBB201E0FF2300225202520ADB0513435B0088
:403D0000C9075B080B43180070BD002E07D01443EFD08020D20080040243FF23D7E722430023002A03D00522D208FF2B03D05202520ADBB2DFE7002A32D08020C00302432D
:403D40005202520AD7E71800173014DB8020000402431E20C01A1F280FDC2500124BF3189D406E1EB5419A402B0013432200C2401A430023ABE70023D5E702256D42EB1A1D
:403D80001500DD40202809D0084BF3189A401443621E9441220000232A4398E70022F6E70022A8E780FCFFFF82FCFFFFA2FCFFFF8446101C62468C46191C634600E0C04625
:403DC0001FB500F0F5F8002801D40021C8421FBD10B500F049F84042013010BD10B500F0E7F8002801DB002010BD012010BDC04610B500F0DDF8002801DD002010BD012081
:403E000010BDC04610B500F06FF8002801DC002010BD012010BDC04610B500F065F8002801DA002010BD012010BDC0461C2101231B04984201D3000C10391B0A984201D361
:403E4000000A08391B09984201D30009043902A2105C40187047C04604030202010101010000000000000000F0B55F4656464D464446F0B41F035C00DB0F9A46194B0E0347
:403E80004D00C90F8046360B6D0D8B4691463F0B640D9D4219D0134B9C421BD00123A54206D018003CBC90469946A246AB46F0BDBE42F6D1C845F4D1D34510D0002DF0D15F
:403EC000304303005A1E9341EBE7310001230143E7D1E0E73A430123002AE2D1DEE70023DFE7C046FF070000F0B55F46444656464D46F0B41F033C0B2C4F0E034D00A3460C
:403F00005C008446360B6D0DC90F9046640DDB0FBD422BD0254FBC422ED0002D0ED130430700814678427841002C17D15F463A4314D14B460020002B0AD006E0002C02D1B7
:403F40005846024301D099421AD00123484218433CBC90469946A246AB46F0BD0028F2D058425841012240421043F1E737000743D0D002204042EBE75F461743CDD0F8E78D
:403F8000A542E2DC05DB5E45DFD808D000205E45DED248424841012340421843D8E7C445D3D80020C445F4D3D2E7C046FF070000F0B55F464D4644465646F0B41C03240BA6
:403FC000A4462F4C0F034D005E00C90F80463F0B6D0D8B469146760DDB0FA54220D0284CA64222D0002D12D1384344424441002E20D0002C0DD05C42634101245B421C43E3
:4040000020003CBC90469946A246AB46F0BD002E17D05B4519D05B465C4201231C43EFE7390002240143EBD1D9E7614602241143E6D1D7E761460A43DBD100240028DFD0A7
:40404000E9E761460A43E4D1E5E7B54203DD01225C421443D4E7B542CDDB6745DBD809D000246745CCD259464C426141012449420C43C5E7C845CED80024C845F3D3BFE742
:40408000FF070000002310B59A4203D0CC5CC4540133F9E710BD03008218934202D019700133FAE77047030030B5002A0DD00C7801335D1E013A2C700131002CF5D19A18DA
:4040C0009A4202D01C700133FAE730BDF0B546464F46C0B48DB004000D0000F057F8294B009001911B785BB29846013312D022002B002000290000F0E7FE8146002809D15F
:404100000026002732003B0020002900FFF766FE002806D1009801990DB00CBC90469946F0BD01230293184B0694079503934B460A93434604940595002B15D03B003200BC
:4041400030003900FEF7EAFE434608900991022B0CD100F0D9FE212303600A9B0093002B0AD108980999D7E70896099702A800F003F90028F1D1ECE700F0C6FE0A9B00930B
:404180000360EEE74801000820600010F0B556464D4644465F46754BF0B40A000D00190083B0060004002940994200D1BAE0002D00DC94E02D1500D1A3E06D4B12039C46A1
:4041C0008023120B5B0365441A43EB0700D581E06B109846E30F9B189B18802216210026002764009203B818984202DC87181B1AB618E00F5B0001391B18640052080029DB
:40420000F1D1002201929446802212062020914609E09F4241D0E10FC9180138CB186400520800281ED0614651189F42F1DA8D18AC46CD0FED07BA464D4539D0DB1B8C423E
:40424000BF417F42DB1B641A019901388B46934459460191E10FC9185746CB18640052080028E0D123432BD1019B5B08414972108C466244F10702D5802109060B4341463C
:4042800009058D181E002F003000390003B03CBC90469946A246AB46F0BDA1420ED88D18AC46CD0FED074D4548D09A460023CAE76546002DC2DB7D1CAA46BFE73B00AAE7B1
:4042C000019B01333ED0019A01239446134063445B08CBE7E30F52009A18640078E76B005B0803432F00002BCED00025002A31D1E20A153D6405002AFAD080235B031A422A
:4043000023D180200023400300E00B005200591C0242FAD02020401AED1A2300C3408C401A434AE702002B00290000F053FB32002B0000F023F806000F00A5E76546002D2D
:40434000B9DAB2E70136002390E7012320205B420021E1E73B0002003900FFF7F5F802000B00FEF7DBFD06000F008DE70000F07F01FCFFFF0000E03F00207047F8B55646F1
:404380005F464D464446F0B40F00FD0FAA4609037C002E005F00450F490A7F0D2943C5001803BC46400A570F640DDB0F3843D2009A4500D1AAE06646A61B002E00DCFFE00E
:4043C0006346002B39D10300134300D0D9E06B0709D00F232B40042B05D02B1DAB42AD416D4249191D000B0200D482E0CA4B01349C4200D1FEE00A005646C84BED081A409E
:404400005007640552020543120B640D002112030B0D1B056405120B1A436308C04CF60714401C43640064083443280021003CBC90469946A246AB46F8BDB74B9C42C6D0D9
:4044400080231B041843382E00DDEBE01F2E00DD1EE120239B1B9C4603006746BB40984613004746F3403B436746BA40571EBA4113430200F240EB1A9D42B6411D008A1AF6
:404480007642911B0B0231D54A02560A002E00D1B4E03000FFF7CAFC0300083B1F2B00DDB5E020222900D21AD1409E400A009D4032439C4200DDB1E01C1B631C1F2B00DD8D
:4044C000D5E0202114002800C91A8C40D8408D400443DA40681E854111002543002476E74146314300D134E2310045466B0700D06FE756464807ED08C9080543864B9C4271
:4045000035D00A036405120B640D7FE76346E31A9B46002B00DC8BE06746002F3CD07E4FBC4200D153E780273F0438435B46382B00DCF7E00243501E82410020D2B25319B3
:404540004218AB4289411D00494289180B02CDD5714B01349C4200D13DE101206F4A6B080A4028401843D507054351082FE72B000B4300D1CBE180231B030B431A03120B48
:4045800044E7013E002E6DD1AE1AB5429B41091A5B42C91A350075E70700174300D116E701235B429C46E3445B46002B00D0E0E0AA18AA429B4109185B4259181500C5E787
:4045C000002E75D1661C7605760D012E00DCF3E0AE1AB0464545BF410E1A7F42F61B370200D48FE0551BAA42B641411A76428E1B9A464BE756460022002507E72800FFF71B
:4046000015FC20300300083B1F2B00DC49E72A002838824000259C4200DC4DE73F49E41A1140D4E60243501E8241D3B2002222E7002B00D0F3E0631C9C465B055B0D012B44
:4046400000DC9FE0344B9C4500D1C3E0AA180918AA42804140424118CD075208154349086446B4E62C4B9C4200D0ECE6AFE611001F3CE1400C00202B00D17FE04021CB1A9F
:404680009A4015436A1E95410021254300242DE733000700203BDF403B00202E70D04027BE1BB0400243501E824113430022E2E6002C4FD0184CA44500D1ABE08024240486
:4046C00076422143382E00DDDFE01F2E00DD43E12027BC1BA1460C004F46BC40A0462C004746F4403C434F46BD406F1EBD41F1402C43151BAA429241411A5242891A644672
:404700009A46BFE641464546314300D0BEE6002600240025F2E6C046FF070000FFFF7FFFFFFF0F801F2B59DC2027FF1ABC46070063469F405B46B9461700DF40B8464F46C5
:4047400043461F4363469A40531E9A415B463A43D840F4E60C002C435CD0F643002E55D1551BAA42A441411A6442091B9A46644688E6964FBC4200D0D8E628E6002280E7D5
:4047800000208FE70B002B43002C00D0C2E0002B00D101E10300134300D118E6AB18AB42B6410918764271180A0200D409E1884A1D00114064460AE6002C5BD10E002E43C2
:4047C00000D08AE00100114300D1C2E0010015009A46FCE56446002100258FE620235B429C46DC4463460700DF405B46BC46202B00D1ACE040235F46DB1B98400243501EF6
:404800008241634613431A00002098E66F4CA44500D057E70100150064469A46D7E5002C39D10C002C436ED0DB43002B1AD0674CA44568D0382B00DDA4E01F2B00DDAEE081
:4048400020240F00E41AA740B9462F00DF40B846A3464F46444627435C46A5406C1EA541D9403D43AD1895429B4109185B42591864466BE60C002C4315D1010011437BD010
:40488000010015009A46514CA1E50D43691E8D410021ECB22DE74D4CA44534D0802424045B422143C6E7040014434ED0ED084C072C438025C9082D03294208D0C6082E4210
:4048C00005D1D208410711430C009A463100620FC900E50011433D4C79E50600164300D175E5AE1AB0464545BF410E1A7F42F61B370200D4F4E5551BAA42B641411A7642DD
:40490000891B9A4663E50100150064465FE5002200257BE5002B3BD00300134315D0ED084B072B438025C9082D03294207D0C4082C4204D141070B002100D2081343C90073
:404940005A0F1143DD00214C41E5204C3FE5002054E700260025D1E534000F00203CE7403C00202E2BD04027BE1BB1400D43691E8D4100212C43BCE6802100260903134C99
:404980000025BBE50D43691E8D410021EDB269E7010015000D4C1AE50100150017E51C000F00203CE7403C00202B0CD04027FB1A99400D43691E8D410021254352E700210F
:4049C000D4E71D0092E50021F3E7C046FF070000FFFF7FFFF0B55F4656464D464446F0B40D0399464E002B0B87B00700924680469B46760DCC0F002E69D06D4B9E4235D0AC
:404A00005B468022DD001204430F13432B439B46C3009846674B00279C460023664401934A4615035000D20F53462D0B400D914600D176E05E4A90426CD080225B0F1204BF
:404A400013435C4AED0094461D4353460022DB00604449463618701C6140029017430F2F00D9AFE05448BF00C759BF465B461F4300D088E000239B469846023308270193A8
:404A8000CEE74946022A6AD0032A00D109E2012A00D0BBE111400022002300259046CCB200212D030A0D12052D0B1543434A1B0515401D436D00E4076D0825434046290068
:404AC00007B03CBC90469946A246AB46F0BD034352D05B46002B00D18AE15846FFF7A6F903000B3B1C2B00DD7BE11D22D31A3A0001005D46DA4008398D4013008F402B43DE
:404B00009B46B8462E4B00279C46002360444642019385E752462A432CD100250023022297E752462A4321D0002D00D154E12800FFF77CF903000B3B1C2B00DD46E11D214B
:404B4000CB1A51460200D9405346083A954093400D431B4A944660444042002279E7012400220C40124B0025904699E70025002301226EE703226CE700239B46984601332B
:404B8000042701934CE703230C27019348E700238025984600242D03054B81E75D464346019A6FE75D4643462100019A6AE7C046FF07000001FCFFFF28600010FFFF0F80B3
:404BC000F30300004246120C91461A0C9446424617044A461B041B0C5A43604690464A4642431000039262461C003F0C7A437C4342440192220C9246019A5244904506D967
:404C00008246802040028046C24450460390100C049048462404240C1204121905922A0C2D042D0C68432C00824648467C4350438146200C8046574357444744BA4503D9F4
:404C4000802040028046C144380C3F04B84648442404240C01900498A044404404905846000C814658460404200C8246070048465F434C4643436046604364468346504649
:404C80004443380C8446E4186444A34203D980235B029C46E34448463F04230C3F0C2404E419574668436F4384464D46504655434243380C814662444A445B44944503D9E4
:404CC000802040028446654403983F04834604983F0C8446E344C345804140428246100484460198674484466744A344BC46A345A4419946D44464428742BF41D445804140
:404D0000E144A04699459B417F424042C8440743120CBA18A045A4415F423B0064422343D71843467D19DB0D6D021D435B465A02059B1A43531E9A415B46DB0D1A434346F9
:404D40005B021343EA0107D501225C0813402343EA07029E13436D08574AB218002A4BDD580709D00F201840042805D0181D98429B415B42ED180300E80104D54F4A154060
:404D80008022D200B2184E48824200DDE7E60124DB08680718436D02530580462D0B5B0D0C407DE6802259461203114208D0154206D115432D0398462D0B4C46414B6FE643
:404DC0005D4615432D032D0B3E4B69E603005546283B9D400023BCE65046FFF727F82030A8E60300283B9F400023BB46984689E6FFF71CF8203073E60124A61A382E07DDB4
:404E000000220C4000230025904649E6029EA3E71F2E20DC20222C001800921BF040944093400443581E83411C43F540630709D00F232340042B05D023001C1D9C4292413C
:404E40005242AD182B021FD5012400220C4001230025904624E61F202C004042821AD440202E1CD04022961BB5402B43581E83410720234318400025002809D00F22002514
:404E80001A401C00042AD8D1230068076D022D0B0124DB08034398460C40002300E60025E3E780220124120315432D0398462D0B0C40044BF4E5C046FF030000FFFFFFFE0B
:404EC000FE070000FF07000070B50E4E0C031D0349005B00240B490D2D0B5B0DB14204D0084900208B4208D070BD04430120002CFAD1044900208B42F6D115432800451EE1
:404F0000A841F1E7FF070000014B18687047C04644010008F8B5C046F8BC08BC9E467047F8B5C046F8BC08BC9E4670470300000001000000010000000000000005036000DB
:404F400004000000010000000000000001000000060460000800000048060008B504001028030E0000000000F4010000140004010A0009050800000063010000002034403B
:404F80007400802034407400002234407400802234407400802434407400002634407400802634407400002834407400802834407400002A34407400802A344074000000F5
:404FC00000243440685200107400000000213440DC52001090000000002334406C5300109000000000253440FC53001090000000002734408C540010900000000029344042
:405000001C55001090000000002B3440AC55001090000000006034403C5600107C00000080603440B85600107C00000000613440345700107C00000080613440B0570010E7
:405040007C000000006234402C5800107C00000080623440A85800107C00000000633440245900107C00000080633440A05900107C000000006434401C5A00107C00000056
:4050800080643440985A00107C00000000653440145B00107C00000080653440905B00107C00000010081109800882B6840388878A488CFD90D1922A9820A210B03FB2402B
:4050C000B444B680B8A8D602DC04DF04E301283030306C08E803A858E8B1A81BAC58B03FB40F0001140100000201344013243440047034400271344004723440027834409B
:405100000C0000000000000000000000006E000000000000000000000000000000000200000000002100000000000000000000000000600000000000000000000000000072
:4051400000000000000300000F0000000000000000000000666600000000000000000000000000000316161600000000030000000000000000000000CC0000BA0000000083
:4051800000000000000000001313000000001D1DFE000000000000000000000000000000000000000000000000000000000404000000000037000000000000000000000052
:4051C000EE0EEE000000000000000000000000000202020002020000100000000000000000000000000086000000000000000000000000000000000015150000FC000000FF
:40520000000000000000000000E6EE6E00000000000000000000000000001111111111110B00000000000000000000006666000000000000000000000000000003030003E6
:4052400000000000030000000000000000000000EE0000000000000000000000000000000202000000000000000700102100002063028401DE00210FA901500200000004E9
:40528000100000100107201025009A200000000000030018080080006020021C80031F0000020028000010011403000000EC6D2F3FFFFFFF00000000040000000000FF01BA
:4052C000000000000404040E000000010000C000300000108000200040401050000200000000000000000000FFFFFFFFFFFFFFFFFFFFFFFFFFFFFFFFFFFFFFFFFF00000026
:40530000FFFFFFFFFFFFFFFFFFFFFFFFFFFFFFFFFFFFFFFFFF00000000000000000000000000000000000000000F0000F0000050FFFFFFFFFFFFFFFFFFFFFFFF1111111DEF
:40534000111111111D111111111111111111111111111111111111111111111111111110111111111111111111111111000004000000000000000000FFFFFFFFFFFFFFFF3A
:40538000FFFFFFFFFFFFFFFFFFFFFFFFFF000000FFFFFFFFFFFFFFFFFFFFFFFFFFFFFFFFFFFFFFFFFF00000000001F0500000000000000000000000030410000400000003A
:4053C000FFFFFFFFFFFFFFFFFFFFFFFF1111111F111111011F111111111111111111110111111111101111111011111110111110111111111111111111111E1115810000EE
:4054000000000000000000001F30F330F45F2F3F14113113F630FF72220071FFF40000003110F3F1F3FFFFFFFFFFFFFFFFFFFF37FFFFFFFFFF000000000000000000000073
:4054400000000000000000000F0F6F004F4001F1FFFFFFFFFFFFFFFFFFFFFFFF1D21911F179125277F112711D16137D16117113113D1119214119B11121B11161B21111B78
:4054800011111111113111111D211F14000000000000000000000000FFFFFFFFFFFFFFFFFFFFFFFFFFFFFFFFFFFFFFFFFF000000FFFFFFFFFFFFFFFFFFFFFFFFFFFFFFFFF8
:4054C000FFFFFFFFFF000000000000000000000000000000000000000000000000000000FFFFFFFFFFFFFFFFFFFFFFFF1111F111111111F1111111111111111111111111A9
:4055000011111111111111111111111111111111111111111111111111111111400000000000000000000000FFFFFFFFFFFFFFFFFFFFFFFFFFFFFFFFFFFFFFFFFF00000064
:40554000FFFFFFFFFFFFFFFFFFFFFFFFFFFFFFFFFFFFFFFFFF000000000000000000000000000000000000000000000F00001000FFFFFFFFFFFFFFFFFFFFFFFF11111111E9
:40558000111111F111111111111111111111111111111111111111111111111111111111111111111111111111111111000000000000000000000000FFFFFFFFFFFFFFFF27
:4055C000FFFFFFFFFFFFFFFFFFFFFFFFFF000000FFFFFFFFFFFFFFFFFFFFFFFFFFFFFFFFFFFFFFFFFF000000000000000000000000000000000000000000000000000000CD
:40560000FFFFFFFFFFFFFFFFFFFFFFFF1111111111111111111111111111111111111111111111111111111111111111111111111111111111111111111111110000000046
:40564000000000001F1F1F0A1F1F1F1F1F1F1F1F1F1F1F1F1F1F1F101F1F1F1F1F1F1F1F1F1F1F1F000000000000000000000000000000000004000000000000FFFFFFFF6E
:40568000FFFFFFFFFFFFFFFF1111111111111F1111111111F111111111111111111111111111111111111111111111111111111111111111111111110000000000000000D4
:4056C0001F1F1F1F1F1F1F1F1F1F1F1F1F1F1F1F1F1F1F1F1F1F071F1F1F1F1F1F1F1F1F00000000000000000000000000000000000F0000F0000000FFFFFFFFFFFFFFFFEB
:40570000FFFFFFFF1111111111111F1111111111D11111111111111111111111111111111111111111111111111111111D1111111111111100000000000000001F1F1F1FE7
:405740001F1F1F1F1F1F1F1F1F1F1F1F1F1F1F1F1F1F1F1F1F1F1F1F1F1F1F1F000000000000000000000000000000000000000000F00000FFFFFFFFFFFFFFFFFFFFFFFFE1
:405780001111111111111D111111111111111111111111111111111111111111111111111111111111111111111111111111111100000000000000001F1F1F1F1F1F1F1FB5
:4057C0001F1F1F1F1F1F1F1F1F1F1F111F1F1F1F1F1F1F1F1F1F1F1F000000000000000000000000000000000000000000000000FFFFFFFFFFFFFFFFFFFFFFFF1111111197
:40580000111111111F11111111111111111111111111111111111111111111111111111111111111111111111111111110000000000000001F1F1F1F1F1F1F1F1F1F1F1FEA
:405840001F1F1F1F1F1F1F1F1F1F1F1F1F1F1F1F1F1F1F1F000000000000000000000000000000000000000F00000000FFFFFFFFFFFFFFFFFFFFFFFF111111111111111131
:405880001D11111111111111111111111111111111111111111111111111111111111111111111111111111100000000000000001F1F1F1F1F1F1F1F1F1F1F1F1F1F1F1F44
:4058C0001F1F1F1F1F1F1F1F1F1F1F1F1F1F1F1F000000000000000000000000000000000000000000000000FFFFFFFFFFFFFFFFFFFFFFFF111111111111111111111111F8
:4059000011111111111111111111111111111111111111111111111111111111111111111111111100000000000000000E1F1F1F1F1F1F1F1F1F1F1F1F1F1F1F041F141FCE
:405940001F1F1F1F1F1F1F1F1F1F1F1F0000000000000000000000000000000000000000200000F0FFFFFFFFFFFFFFFFFFFFFFFF111111111111111111111111111111119F
:4059800011111111111111111111111111111D111101111111111111111101111111111100000000000000001F1F1F1F1F1F1F1F1F1F1F1F1F1F1F1F0C04021F1F1F1F1F3E
:4059C0001F1F1F1F1F1F1F1F00000A1F000000000000000000000000F0FF000000000000FFFFFFFFFFFFFFFFF7FFFFFF111111111111111111111111110111111111111167
:405A000011111111111111111111D11111D11111111111111111D1111111111100000000000000001F1F1F1F1F1F1F1F1F1F1F1F1F1F1F1F1F1F1F1F1F1F1F1F1F1F1F1FE6
:405A40001F1F1F1F000000000000000000000000000000000202F300F20F0F0FFFFFFFFFFFFFFFFFFFFFFFFFD01111111111D1111111111111D100111011D111101111111C
:405A8000111111111111111111D1111111111111111111111111111100000000000000001F1F1F1F1F1F1F1F1F1F1F1F1F1F1F1F1F1F1F1F1F1F1F1F1F1F1F1F1F1F1F1FAE
:405AC00000000000000000000000000000000000000F000000000000FFFFFFFFFFFFFFFFFFFFFFFFF01111111111F11111111111111100111011F11110111111111111113B
:405B00001111111111FD111111111111111111111111111100000000000000001F1F1F0A1F1F1F1F1F1F1F1F1F1F1F1F1F04100C081F021F1F1F1F1F1F1F1F1F00000000CB
:405B4000000000000000000000000000000000000000F000FFFFFFFFFFFFFFFFFFFFFFFFF20111111111F11111111111D11121111111F111111111111111111111111111C0
:405B800011FF111111111111111111111111111100000000000000001F1F1F1F1F1F1F1F1F1F1F1F1F1F1F1F1F1F1F1F1F1F1F1F1F1F1F1F1F1F1F1F000000000000000007
:405BC00000000000000000000000000000000000FFFFFFFFFFFFFFFFFFFFFFFF1121111111111111111111111111111111111111111111111111111111111111111111113D
:405C0000111111111111111111111111240B0010300B00103C0B0010480B0010540B0010600B00106C0B0010780B0010A40B0010AE0B0010B80B0010C20B0010CC0B001031
:405C4000D60B0010E00B0010EA0B001047656E6572617465645F536F757263655C50536F43365C70646C5C647269766572735C7065726970686572616C5C737973696E7468
:405C80005C63795F737973696E742E630000000047656E6572617465645F536F757263655C50536F43365C70646C5C647269766572735C7065726970686572616C5C697018
:405CC000635C63795F6970635F6472762E68000047656E6572617465645F536F757263655C50536F43365C70646C5C647269766572735C7065726970686572616C5C697033
:405D0000635C63795F6970635F6472762E63000047656E6572617465645F536F757263655C50536F43365C70646C5C647269766572732F7065726970686572616C2F697051
:405D4000632F63795F6970635F6472762E68000047656E6572617465645F536F757263655C50536F43365C70646C5C647269766572735C7065726970686572616C5C6970DF
:405D8000635C63795F6970635F706970652E630047656E6572617465645F536F757263655C50536F43365C70646C5C647269766572735C7065726970686572616C5C737902
:405DC00073636C6B5C63795F737973636C6B2E630000000047656E6572617465645F536F757263655C50536F43365C70646C5C647269766572735C706572697068657261DC
:405E00006C5C737973636C6B5C63795F737973636C6B2E680000000047656E6572617465645F536F757263655C50536F43365C70646C5C647269766572735C706572697082
:405E4000686572616C5C6770696F5C63795F6770696F2E630000000047656E6572617465645F536F757263655C50536F43365C70646C5C647269766572735C70657269707B
:405E8000686572616C5C6770696F5C63795F6770696F2E680000000047656E6572617465645F536F757263655C50536F43365C70646C5C647269766572735C706572697036
:405EC000686572616C5C737973706D5C63795F737973706D2E63000047656E6572617465645F536F757263655C50536F43365C70646C5C647269766572735C7065726970E1
:405F0000686572616C5C747269676D75785C63795F747269676D75782E630000E62600100A260010C8260010A0260010C826001094260010C8260010A02600100A260010A5
:405F40000A26001094260010A02600104C2700104C2700104C270010CE2600100A2600100A260010B42600109E260010B426001094260010B42600109E2600100A260010C4
:405F80000A260010942600109E2600104C2700104C2700104C27001058270010442A0010A2290010A2290010A0290010362A0010362A00102C2A0010A0290010362A00104F
:405FC0002C2A0010362A0010A02900103C2A00103C2A00103C2A0010C62A00100C310010DA2F0010E0300010D02F0010E0300010EA300010E0300010D02F0010DA2F001069
:40600000DA2F0010EA300010D02F0010C62F0010C62F0010C62F00103C330010430000007371727400000000C44B0010844A0010844A0010824A00109C4B00109C4B0010CE
:406040008E4B0010824A00109C4B00108E4B00109C4B0010824A0010A44B0010A44B0010A44B0010A44D0010000000000000001000000008C00000008C600010C00000080E
:40608000C0030000BC040008CC0100000048E80100127A0000093D0000093D0000093D0004000000A00F00000000D00702FF0000000000000000000000000000000000006E
:4060C000000000000000000000000000000000001C600010000000000000000000000000000000000000000000000000000000000000000000000000000000000000000014
:4061000000000000000000000000000000000000E400000801000000E9000010C1000010000000000004400B12D03E22094B1A60094A0A4B1A600A4B0621A322D20099502B
:40614000084A98509B58074B054AD358002BFADA7047C046040126401E1F000008012640000026401C05000010B54378FF2B0DD100F02CF9064BDB685A68116801230B43EE
:4061800013601368DB07FCD400F030F910BDC04680002340F0B583B006000F0000F046F90500032824D12B4B1B69002B22DB002000F02CF9284B98421ED00023274A0021E8
:4061C000012000F01BF9002803D0254C17E0013400E00024002000F019F91F4B984202D0204B9C42F3D91F4B9C4207D91C4C06E0002404E01A4C02E0194C00E00024002C36
:4062000024D100F0E3F80190174A0121174800F0E5F800280ED1002E04D13800FFF782FF134C08E0114B1B69002BFBDB00F006F9040000E00A4C032D05D10121002000F01C
:40624000EDF80028F9D1019800F0D0F8200003B0F0BDC046C000234001018800E000000805005200EF49020078060008000023400100500070B5304B1B68002BFBDA2E4B74
:40628000D96802220A43DA60DB68DB071FD52A4EF2681204150C294B1A69120A1204FF2424042240110090241A59120A12060A432A43F2601969224A114090252D012943F4
:4062C000196119590A402A431A511A691B591A4B00225A605B681B4A116904230B431361012801D030BF00E020BF134B1B68002BFBDA114BDB68DB0715D510480269104BBB
:406300001A4014000C4DEA68120C1202FF2109020A4022430261902142581340EA68120E120213434350044BDA6802218A43DA6000225A6070BDC046E0002340000021405A
:40634000FF00FFFF00ED00E0164A116904230B431361012801D030BF00E020BF124B1B68002BFBDA86235B00104AD358002B14D10F4A104B1A6006220F4B1A6038320F4B81
:406380001A6006320E4B1A600D4B1B68002BFBDA0C4986235B00054AD1500022024B5A607047C04600ED00E0E0002340000025401E1F0000080126401805264004012640BF
:4063C0001C052640AAAAAAAA0000000001B40248844601BC604700BF4320001001B40248844601BC604700BF490D001001B40248844601BC604700BF4B20001001B4024857
:40640000844601BC604700BFD510001001B40248844601BC604700BFF90E001001B40248844601BC604700BF6D0E001001B40248844601BC604700BF2504001001B40248DC
:40644000844601BC604700BF911900100000000000000000000000000000000000000000000000000000000000000000000000000000000000000000000000000000000075
:4064800000000000000000000000000000000000000000000000000000000000000000000000000000000000000000000000000000000000000000000000000000000000DC
:4064C000000000000000000000000000000000000000000000000000000000000000000000000000000000000000000000000000000000000000000000000000000000009C
:40650000000000000000000000000000000000000000000000000000000000000000000000000000000000000000000000000000000000000000000000000000000000005B
:40654000000000000000000000000000000000000000000000000000000000000000000000000000000000000000000000000000000000000000000000000000000000001B
:4065800000000000000000000000000000000000000000000000000000000000000000000000000000000000000000000000000000000000000000000000000000000000DB
:4065C000000000000000000000000000000000000000000000000000000000000000000000000000000000000000000000000000000000000000000000000000000000009B
:0200000490303A
:02000000729EEE
:0200000490501A
:0C0000000005E22521002101E244939E4E
:00000001FF