:020000041000EA
:4000000000400208310100100D000000950100100000000000000000000000000000000000000000000000000000000091010010000000000000000091010010910100109B
:4000400091010010B9040010910100109101001091010010910100109101001091010010910100109101001091010010910100109101001091010010910100109101001035
:400080009101001091010010910100109101001091010010910100109101001091010010910100109101001091010010910100109101001091010010910100109101001020
:4000C00010B5064C2378002B07D1054B002B02D0044800E000BF0123237010BD5404000800000000BC1B0010084B10B5002B03D00749084800E000BF07480368002B00D13D
:4001000010BD064B002BFBD09847F9E70000000058040008BC1B0010EC000008000000007047EFF3108072B6704780F310887047FFF7F6FF72B6104C104DAC4209DA2168BD
:400140006268A368043B02DBC858D050FAE70C34F3E70B490B4A0020521A02DD043A8850FCDC094809490860BFF34F8F00F00AF900F01EF8FEE70000C01B0010D81B0010EA
:4001800054040008200600080000000808ED00E0FEE7FEE700B504207146084202D0EFF3098001E0EFF30880043001F009FAFEE710B562B6044800F059F90222034BDA6084
:4001C000034801F0A9F9F8E70000081080053240FF03000070B56249E0239B00CB580F2213401A00D0329200525807210A40032A05D0042A06D0002A12D15A4814E05A4A05
:40020000106811E01A00C0329200554952581F210A40112A06D0132A04D0FA20C00103E0524801E080200002002B36D14C4BB222D2009A5801211140B125ED005A59120F7D
:40024000032422405B591B0F1C4207D0444C63591B0F03242340012B02D102E0012300E00023002B01D0002901D1032A4BD13C4BB022D2009D58AD03AD0B3D495958C9040E
:40028000C90C9C58240E01231C40013401F022FA6843210001F01EFA35E0012B33D1304BC822D2009A5801251540C024E4001A59120F03210A401B591B0F194207D02849B8
:4002C0000B591B0F03210B40012B02D102E0012300E00023002B01D0002D01D1032A12D11F4DC022D200AB587F210B40A958090A1F263140AC58240C3440584301F0EAF9FF
:40030000210001F0E7F9E0239B00154AD3581B0903221340D840144C6060164B1D692D0AFC32154001351969090E013101F0D2F9A060290001F0CEF90500E06020610E4B71
:40034000C0180E4901F0C6F920750D4BE818FA21890001F0BFF9A061C003E06170BDC0460000264000127A00C000000800366E0184050000000021403F420F0040420F00C2
:40038000E703000010B5234BB021C9005A58520052085A50E02080001A583024A2431A50802252045A501C491C4A9950A021890104329950FF211A4A995081315A589200C6
:4003C00092088020C00502435A505A588020000602435A505A58012082435A5000F06AF9FFF7F8FE00F070F800F078F800F070FFB0235B055B78002B04D0B0235B055B7825
:40040000DBB200E02123212B03D1064B0022DA605A6010BD0000264001000200840500008C050000E00023408023024AD3580320184070470000214010B5FFF772FE0849C8
:4004400080228C58074B2340074C23438B508823034AD358DB06FAD5FFF767FE10BDC04600002140FCFF00000100FA0570B50500FFF757FE0400FFF7D7FF032801D1FFF718
:40048000DBFF0A4AB0239B00D55080215058084B03400848034353508823044AD358DB06FAD52000FFF741FE70BDC04600002140FCFF00000300FA0510B5024800F0DAFCD4
:4004C00010BDC0467004000810B5034A60328021042000F0BFFA10BD7005000810B501F0D8F80400044800F075FB044800F0DCFB200001F0D2F810BD700400083C18001080
:40050000FEE7C04630B587B05C4BA021C9005A58032082435A505A4990240A59594802400A510A691202120A8024640422430A610A6910400861E022920099580F24A14300
:40054000995099583020814399509D58802109060D439D5004329D58A5439D509D5885439D509D580D439D5004329D58A5439D509D5885439D509D580D439D5004329D58DF
:40058000A5439D509D5885439D509D580D439D5004329D58A5439D509C5884439C509858014399500021012000F0C6FC0021022000F0C2FC0021032000F0BEFC00210420AE
:4005C00000F0BAFC0021002000F0B6FC01A82E4903000A0032CA32C312CA12C300F0D4FC002802D00420FFF78BFF2449274A8B588020000603438B50254800F07FFD0028BC
:4006000002D00420FFF77CFF1C4C224BE158224A0A40E250E158214A0A40E250E25880252D062A43E250043BE1581D4A0A40E250E1581C4A0A40802189010A43E250E25864
:40064000802109020A43E250174A1168174B0B40802149000B431360002001F021F8144BE2581543E550E158012291430A43E2506421002000F0BCFF07B030BD00002640C4
:4006800000002140FF00FFFF70180010087F0000400D030004050000FEFCFFFFFFFF00FFFFF0FFFFFF8FFFFF00002740FFFCFFFF0C05000070B58AB09621002000F098FFC8
:4006C00000F06EFF002814D100F05AFFC0235B002B4AD358DB0705D411002A4A8B585B005B088B502649274A8B588020000603438B50012000F0ACFE234A516C234B0B4085
:40070000E82189010B435364536C1B0AFF2213403A2B07D11C4A516C1D4B0B40E82189010B435364FFF7EEFE01AD1A4C2A002300143343CB43C243CB43C243CB43C2290032
:40074000154800F0CFFD2A002300383343CB43C243CB43C243CB43C22900104800F0C2FD2A0023005C3313CB13C213CB13C213CB13C229000A4800F0B5FD0AB070BDC04640
:40078000000026400C05000000002740FF00FFFFFFC5FFDF7018001000003240000332408005324010B583089A00801AC000FF228240D44381400A40072B32D89B001949C4
:4007C000CB589F46184B196A0C4022431A6228E0154B596A0C4022435A6222E0124B996A0C4022439A621CE00F4BD96A0C402243DA6216E00C4B196B0C4022431A6310E0C2
:40080000094B596B0C4022435A630AE0064B996B0C4022439A6304E0034BD96B0C402243DA6310BDF01800100000214083089A00801AC100FF228A40072B2BD89B00174801
:40084000C3589F46164B186A1040C84023E0144B586A1040C8401EE0114B986A1040C84019E00F4BD86A1040C84014E00C4B186B1040C8400FE00A4B586B1040C8400AE0B1
:40088000074B986B1040C84005E0054BD86B1040C84000E00020C0B27047C046101900100000214070B504000D000B4B9A680B4B9A420BD1002903D1FC21094800F052FEAB
:4008C0001034064BA400E058E55003E01034A400044BE05870BDC04600ED00E0000000083019001000000010F0B583B0041E019150D04368032B03D93621294800F032FE46
:400900000023E05E002802DBA178FFF74BFF0023E25E6368002A12DB9008224EC0308000875903210A40D200FF25290091408F4399012B000B4093403B43835117E092B2BB
:400940000F21114008398908063189001648844661444E6803200240D200FF2738009040864398013B000340934033434B600E4B9A680E4B9A420FD1019B002B03D1452137
:40098000074800F0EFFD0023E05E0199FFF78AFF002002E0064800E0002003B0F0BDC0463019001000E100E000ED00E0000000080100560070B504000D000369002B0ADAE5
:4009C0000B0C03D00549064800F0CCFD2D042D0C6560002000E0034870BDC046A70200007419001001008A0070B505000C000368002B01DA002300E0084B002B0BD1EA60EC
:400A0000230C03D00649074800F0ACFD2404240CAC60002000E0014870BDC04601008A008E0200007419001070B505000C1E03D19921064800F096FD2B69002B03DAEB6843
:400A40002360002000E0024870BDC046B419001001008A00F8B504000E0015000F283FD8002A10D100290ED10F2804D99E21FF31214800F077FD6401204B9C466444204B44
:400A80001C60002037E0002D2CD0002E2CD0F3062CD10F2C04D99E21FF31174800F062FD6401164B9C466444154F3C607E60BD60F2080021280000F099FE00212000FFF739
:400AC00079FF3A0001CA0021FFF78EFF00280FD10B4B18680021FFF76DFF00280AD10AE0084808E0074806E0064804E0054802E0054800E00448F8BDF4190010000023400B
:400B00000006000803018A0001018A00F0B583B00D001C4B1B68DC68236883422DD947097B01C01A012383401E00002903D100F0B0FD019001E000230193124B186803686E
:400B4000002B01DA002300E00F4B002B0ED16368BF00DF193B68334203D0B3433B60002400E00A4C0021FFF725FF00E0084C002D04D1019800F091FD00E0064C200003B023
:400B8000F0BDC0460006000801008A00020188000301880004018A000A4B1B68DA68136883420BD943095901401A0121814052689B009B580B4203D0034802E0034800E062
:400BC00003487047000600080101880004018A0000018800034B1B68002B01D1014B18607047C0460C060008F0B5474680B404000F0090461E00072803D9B421254800F030
:400C0000B1FC254B1B682C2060431C18FF22150035402560330A13406360330CA3600F2D04D99E21FF311D4800F09CFC6B011C4A94466344236165680F2D04D9DC21490034
:400C4000164800F08FFC6D01164B9C4665446561A668330C04D0EB214900104800F082FC330C04D0D821FF310C4800F07BFC3604330C1E43AE604346E36127620023A361E3
:400C8000069B002B02D000229B5EA38104BC9046F0BDC046341A00100C060008F41900100000234000102340F0B58FB0041E03D150212E4800F056FC6368032B03D9522158
:400CC0002A4800F04FFCE36A002B03D15621274800F048FCE368072B03D95721234800F041FC236A072B03D95821204800F03AFC236B002B03D159211C4800F033FC07AA9B
:400D00001300210061C961C321C921C302AD290023001433C1CBC1C141CB41C10821535E0CAE3380079B1933B370089B0D930B9B0A980096A26AE16AFFF756FF2B69E86806
:400D4000002200920021FFF74FFF216B3000FFF7CBFD0023F25E002A05DB1F231A401E3B9340034A13600FB0F0BDC046341A001000E100E0F8B505000F0016001C00002A2D
:400D800003D1FC21244800F0EDFB072D03D9FD21214800F0E7FB072F03D9FE211E4800F0E1FB1E4B1B682C2128004843181879435918012213004D68AB401B044568AA405D
:400DC00015000269002A20D08F69002F1FD11268002A01DA002200E0114A002A19D132681204120C134333600369DE6001238B614C6204692B0C03D00A490B4800F0B2FB79
:400E00002A04120CA260002004E0084802E0084800E00748F8BDC046341A00100C06000801008A008E020000F419001004028A0007028A0070B505000C001600072804D9C9
:400E40006021FF31084800F08DFB084B1B682C2068431818C369B34204D9036AB6009C51002000E0024870BD341A00100C0600080A028A0070B582B004000023019300282F
:400E800004D1D92149002B4800F06CFB2369002B04D1B421FF31274800F064FB6369002B04D1DA214900234800F05CFB236A002B04D1B621FF311F4800F054FB6269D568FD
:400EC0002B0C1FD01B041360136820690369002B18DA01A9FFF7A8FD00280ED1019803681E0CFF221340E269934207D29B00226AD358002B02D0984700E0002631002069D8
:400F0000FFF758FD2D042D0C0FD063691D601B68636A002B03D098470023636203E0A36A002B00D098470023A36163691B6802B070BDC046341A001004281DD8042904D911
:400F40004B1EFF3B9BB2132B18D8FF290CD91F2319400B4A0300C0339B009950D03080000423835000200AE007231940D0308000034BC150002002E0024800E001487047CA
:400F80000000264001004A0070B5041E04D1EF2149004C4800F0E6FAB023DB004A4AD358002B01DB002500E0484D002D00D086E0474B22689A4204D9EE21FF31414800F0A9
:400FC000D1FA23689B03990BE3791B068022520413400B43B022D2003B498B50A2883D4B9A4204D9FA214900364800F0BBFA2289394B9A4204D9F621FF31324800F0B2FA09
:40100000A388DB04D90C23891B04344A13400B43334A2D498B50A37A0F2B04D9FC21FF31284800F09FFAE37A0F2B04D9FE214900244800F097FAA289264B9A4204D9FE2152
:40104000FF31204800F08EFAA37A0F211940E27A1201FF2313400B43A289120221490A401343A27B1207C02189050A401343B122D20015498B50A379072B03D91A49114836
:4010800000F070FA228A144B9A4203D917490D4800F068FA0C4816494658164B1E40A3791B02E022D2001340334343504658124B1E40238A1B04094A134033434350280097
:4010C00070BDC046741A00100000264003004A00FFFF0300FF1F0000FF0100000000FF018405000000FF1F0005020000060200008C050000FFF8FFFFFFFF00FE70B50500EB
:401100002D492E4A8B588020000603438B502C0003E0012000F01AFA013CB223DB00264AD3585B0701D4002CF3D12349B122D2008858234B03408020800503438B50002D1F
:4011400002D00ED0002C0CD01B49B022D2008B588020000603438B5003E0012000F0F6F9013CB223DB00144AD358DB0701D4002CF3D1002D0ED0002C0CD10F4AB021C900FE
:4011800053585B005B0853500C4953585B005B0853500BE0084B0221B222D2009950B121C9005A58C020800502435A50002C01D1044800E0002070BD000026408C050000C3
:4011C000FFFFFFCF02004A00214B984230D00ED8402831D004D800281FD010282AD031E080282BD080235B00984229D02AE0194B984229D007D8A0231B0698420DD0164B7C
:40120000984212D01EE0154B98420AD0144B984209D0144B984215D101E0002016E0124814E0124812E0124810E0A020C0030DE007480BE00F4809E00F4807E00F4805E070
:40124000034803E00E4801E0A420C0037047C04606005200010000F0090000A0040000F0050000F0030000F001005200020052000300520001005000020050000500520001
:40128000FF00520010B50C4B1B69002B11DB0B4B1868FFF799FF0121094B0A4AD150084B084AD358002BFAD1074BD358002BF6D100E0064810BDC046000023401006000820
:4012C0000C040000000025408C0400000200500010B5022202490020FFF7ACFD10BDC0463501000870B505000C00002848D0002948D0FF230A689A4303D08D21224800F090
:4013000031F9FF2322699A4303D08E211E4800F029F9A3685B0D03D08F211B4800F022F963685B0A03D09021174800F01BF9E3695B0F03D09121144800F014F9236A5B0FF9
:4013400003D09221104800F00DF9104BEB18DB090F4A944663441B0122682A60E268AA622269EA6262692A63A2686A626268AA61A2696A63E2691A60226A5A60002002E038
:40138000044800E0034870BDFC1A00100000CEBF0010030401005A00034A9369802149040B4393617047C04600F02540024A9169024B0B409361704700F02540FFFFFFFE00
:4013C00010B5074A074813580F24A34302210B43135004381358A3431943115010BDC0460000214004F0000010B5074A074813580F24A34303210B43135004381358A34373
:401400001943115010BDC0460000214004F000000449054A8858054B0340C020C00103438B5070470000214004F00000FF8FFFFF0449054A8858054B03408020C0010343A8
:401440008B5070470000214004F00000FF8FFFFF70B50500012803D92A492B4800F082F800F017F90400294B294AD3581F221340E822D200B02149058A5CD31A5A1E9341B6
:40148000DBB29D4239D0002D14D1FFF785FFFFF797FF1F481D4943581F229343143A13434350FFF7B5FFE823DB00B0225205D35CDAB211E01648154943581F229343143AC8
:4014C00013434350092000F041F8FFF7B1FF114BB0225205D35CDAB20D4E0C4831581F23994313400B433350012D06D1092000F02DF8FFF779FFFFF759FF200000F0CDF87D
:4015000070BDC046ED0600007C1B00101CFF0000000026404107000010B5040006E0084B186800F0ADF8074B9C46644480231B029C42F4D8044B1868604300F0A1F810BDF0
:40154000DC0000080080FFFFD800000810B5034B1B78584300F094F810BDC046D400000801BEFEE770B50D00044C18220100200000F044F9A5610020FFF7F2FF18040008DE
:40158000054B802212069A649B6C002B01DB002000E002487047C0460000274003004600054B8022120198585B68FF221A4202D08023DB021843704700002640FEE7C04674
:4015C00010B50A4B0268DA6142681A6282685A62C2689A620269DA6242691A6382695A63C2699A63FFF7EAFF10BDC04618040008F0B5002801D0192200E064228A429241E7
:4016000052421C4BE8256D005C590327BC433A4014435C515C59184E34405C51D03D5C59BC4322435A515A5916405E51002805D010290DD921290DD8012014E01D290BD98A
:401640003A290BD957290BD978290BD803200AE0002008E0022006E0002004E0012002E0022000E00420054A13680F218B4303431360F0BD00002140FFFCFFFF0000254004
:401680000230800803D001300238FCD1C046C0467047EFF3108072B6704780F310887047042805D1094A116804230B4313600CE00006C0239B04184090239B00044AD05051
:4016C000024A136804218B431360704710E000E000002140002243088B4274D303098B425FD3030A8B4244D3030B8B4228D3030C8B420DD3FF22090212BA030C8B4202D31D
:401700001212090265D0030B8B4219D300E0090AC30B8B4201D3CB03C01A5241830B8B4201D38B03C01A5241430B8B4201D34B03C01A5241030B8B4201D30B03C01A5241E3
:40174000C30A8B4201D3CB02C01A5241830A8B4201D38B02C01A5241430A8B4201D34B02C01A5241030A8B4201D30B02C01A5241CDD2C3098B4201D3CB01C01A52418309F8
:401780008B4201D38B01C01A524143098B4201D34B01C01A524103098B4201D30B01C01A5241C3088B4201D3CB00C01A524183088B4201D38B00C01A524143088B4201D30F
:4017C0004B00C01A5241411A00D20146524110467047FFE701B5002000F006F802BDC0460029F7D076E770477047C04603008218934202D019700133FAE77047030030B56C
:40180000002A0DD00C7801335D1E013A2C700131002CF5D19A189A4202D01C700133FAE730BD0000F8B5C046F8BC08BC9E467047F8B5C046F8BC08BC9E46704703000000F6
:4018400001000000010000000000000005036000040000000100000000000000010000000604600008000000E0050008B9040010F4010000140004010A000905080000009E
:4018800063010000080000000000000000000000006000000000000000000000000000000000000000000000000000000000000000000000000000BA0000000000000000A2
:4018C000000000000000000000001D1D020000000000000000000000600000000000000000000000000000000000000000000000C4070010D0070010DC070010E807001098
:40190000F4070010000800100C08001018080010440800104E08001058080010620800106C08001076080010800800108A08001047656E6572617465645F536F75726365D9
:401940005C50536F43365C70646C5C647269766572735C7065726970686572616C5C737973696E745C63795F737973696E742E630000000047656E6572617465645F536F79
:40198000757263655C50536F43365C70646C5C647269766572735C7065726970686572616C5C6970635C63795F6970635F6472762E68000047656E6572617465645F536FB6
:4019C000757263655C50536F43365C70646C5C647269766572735C7065726970686572616C5C6970635C63795F6970635F6472762E63000047656E6572617465645F536F7B
:401A0000757263655C50536F43365C70646C5C647269766572732F7065726970686572616C2F6970632F63795F6970635F6472762E68000047656E6572617465645F536FBC
:401A4000757263655C50536F43365C70646C5C647269766572735C7065726970686572616C5C6970635C63795F6970635F706970652E630047656E6572617465645F536F98
:401A8000757263655C50536F43365C70646C5C647269766572735C7065726970686572616C5C737973636C6B5C63795F737973636C6B2E630000000047656E657261746530
:401AC000645F536F757263655C50536F43365C70646C5C647269766572735C7065726970686572616C5C737973636C6B5C63795F737973636C6B2E680000000047656E6512
:401B000072617465645F536F757263655C50536F43365C70646C5C647269766572735C7065726970686572616C5C6770696F5C63795F6770696F2E630000000047656E65FE
:401B400072617465645F536F757263655C50536F43365C70646C5C647269766572735C7065726970686572616C5C6770696F5C63795F6770696F2E680000000047656E65B9
:401B800072617465645F536F757263655C50536F43365C70646C5C647269766572735C7065726970686572616C5C737973706D5C63795F737973706D2E63000000000000E3
:401BC0000000001000000008C0000000E01B0010C00000085803000054040008CC0100000048E80100127A0000093D0000093D0000093D0004000000A00F00000000D00799
:401C000002FF0000E9000010C1000010000000000004400B12D03E22094B1A60094A0A4B1A600A4B0621A322D2009950084A98509B58074B054AD358002BFADA7047C046A7
:401C4000040126401E1F000008012640000026401C05000010B54378FF2B0DD100F03CF9064BDB685A68116801230B4313601368DB07FCD400F020F910BDC0468000234079
:401C8000F0B583B006000F0000F046F90500032824D12B4B1B69002B22DB002000F044F9284B98421ED00023274A0021012000F023F9002803D0254C17E0013400E00024BB
:401CC000002000F031F91F4B984202D0204B9C42F3D91F4B9C4207D91C4C06E0002404E01A4C02E0194C00E00024002C24D100F0F3F80190174A0121174800F0E5F80028EC
:401D00000ED1002E04D13800FFF782FF134C08E0114B1B69002BFBDB00F0F6F8040000E00A4C032D05D10121002000F0DDF80028F9D1019800F0C0F8200003B0F0BDC0460C
:401D4000C000234001018800E000000805005200EF49020010060008000023400100500070B5304B1B68002BFBDA2E4BD96802220A43DA60DB68DB071FD52A4EF2681204E2
:401D8000150C294B1A69120A1204FF2424042240110090241A59120A12060A432A43F2601969224A114090252D012943196119590A402A431A511A691B591A4B00225A60E0
:401DC0005B681B4A116904230B431361012801D030BF00E020BF134B1B68002BFBDA114BDB68DB0715D510480269104B1A4014000C4DEA68120C1202FF2109020A40224321
:401E00000261902142581340EA68120E120213434350044BDA6802218A43DA6000225A6070BDC046E000234000002140FF00FFFF00ED00E0164A116904230B43136101280E
:401E400001D030BF00E020BF124B1B68002BFBDA86235B00104AD358002B14D10F4A104B1A6006220F4B1A6038320F4B1A6006320E4B1A600D4B1B68002BFBDA0C4986231E
:401E80005B00054AD1500022024B5A607047C04600ED00E0E0002340000025401E1F00000801264018052640040126401C052640AAAAAAAA0000000001B40248844601BCAD
:401EC000604700BF9B16001001B40248844601BC604700BFE909001001B40248844601BC604700BF9316001001B40248844601BC604700BF0D0B001001B40248844601BC8E
:401F0000604700BF750D001001B40248844601BC604700BF8512001001B40248844601BC604700BF2904001001B40248844601BC604700BF990B001000000000000000004D
:401F40000000000000000000000000000000000000000000000000000000000000000000000000000000000000000000000000000000000000000000000000000000000061
:401F80000000000000000000000000000000000000000000000000000000000000000000000000000000000000000000000000000000000000000000000000000000000021
:401FC00000000000000000000000000000000000000000000000000000000000000000000000000000000000000000000000000000000000000000000000000000000000E1
:020000041008E2
:40000000007804083D0308100D000000A5030810A5030810A5030810A503081000000000000000000000000000000000A1030810A103081000000000A1030810A1030810E7
:40004000A1030810A1030810A1030810A1030810A1030810A1030810A1030810A1030810A1030810A1030810A1030810A1030810A1030810A1030810A1030810A1030810C0
:40008000A1030810A1030810A1030810A1030810A1030810A1030810A1030810A1030810A1030810A1030810A1030810A1030810A1030810E9020810A1030810A103081039
:4000C000A1030810A1030810A1030810A1030810A1030810A1030810A1030810A1030810A1030810A1030810A1030810A1030810A1030810A1030810A1030810A103081040
:40010000A1030810A1030810A1030810A1030810A1030810A1030810A1030810A1030810A1030810A1030810A1030810A1030810A1030810A1030810A1030810A1030810FF
:40014000A1030810A1030810A1030810A1030810A1030810A1030810A1030810A1030810A1030810A1030810A1030810A1030810A1030810A1030810A1030810A1030810BF
:40018000A1030810A1030810A1030810A1030810A1030810A1030810A1030810A1030810A1030810A1030810A1030810A1030810A1030810A1030810A1030810A10308107F
:4001C000A1030810A1030810A1030810A1030810A1030810A1030810A1030810A1030810A1030810A1030810A1030810A1030810A1030810A1030810A1030810A10308103F
:40020000A1030810A1030810A1030810A1030810A1030810A1030810A1030810A1030810A1030810A1030810A1030810A1030810A1030810A1030810A1030810A1030810FE
:40024000A1030810A1030810A1030810A1030810A1030810A1030810A1030810A1030810A1030810A1030810A1030810A1030810A1030810A1030810A1030810A1030810BE
:40028000A1030810A1030810A103081010B5054C237833B9044B13B10448AFF300800123237010BD9C47020800000000F80F0810084B10B51BB108490848AFF30080084865
:4002C000036803B910BD074B002BFBD0BDE81040184700BF00000000A0470208F80F0810B84202080000000008B5024800F01CFC08BD00BFE447020808B500221146042079
:4003000000F018FA08BD00BF10B500F08AFD0446044800F0CBFA044800F02CFB204600F084FD10BDB8470208800E08107047EFF3108072B6704780F310887047FFF7F6FF45
:4003400072B6114C114DAC4209DA21686268A368043BA2BFC858D050FAE70C34F3E70C490C4A00209142BCBF41F8040BFAE70A480A490860BFF34F8F00F01CF900F0F6F8CE
:4003800000F01EF8FEE70000FC0F0810141008109C470208884902080040020808ED00E0FEE7FEE700B504207146084202D0EFF3098001E0EFF30880043000F0D5FCFEE706
:4003C00008B562B60822034BDA6040F2E53000F0A1FCF7E700003240704700BF5C4AD2F8803303F00F0303F1D00152F8212002F00702032A04D0042A05D092B9554914E088
:40040000554A116811E003F1C002514951F8222002F01F02112A06D0132A04D04FF4FA4103E04E4901E04FF400418BBB484BD3F8902502F00100D3F88825C2F30172D3F88F
:40044000883513F0405F07D0414BD3F88835C3F30173012B02D102E0012300E0002303B108B9032A46D13A48D0F88025C2F31103D0F88425C2F30C02D0F88005C0F30060FB
:400480000130B1FBF2F202FB03F2B2FBF0F131E0012B2FD12E4BD3F8402602F00100D3F80026C2F30172D3F8003613F0405F07D0274BD3F80036C3F30173012B02D102E010
:4004C000012300E0002303B108B9032A12D12048D0F8002602F07F02D0F80036C3F30423D0F80006C0F3044002FB01F2B2FBF3F2B2FBF0F1164BD3F88033C3F3011321FA13
:4005000003F215494A601648D0F89030C3F3072301330069000E0130B2FBF0F08860B2FBF3F3CB600B6103F5742202F23F220D48A0FB0202C2F387420A7503F2E7330A4A46
:40054000A2FB03239B098B61DB03CB61704700BF0000264000127A008C42020800366E010000214083DE1B43D34D621008B5104BD3F8802122F0404242F08042C3F880211F
:40058000D3F8802142F00042C3F88021D3F8802122F00102C3F88021FFF71EFFFFF71EFFFFF7AAFEFFF7B0FE00F08EFB08BD00BF0000264008B5FFF7BAFE074AD2F8883019
:4005C00043F47003C2F88830BFF34F8FBFF36F8FFFF7B1FE08BD00BF00ED00E038B50C4B9A680C4B9A420ED10D46044619B9FC21094800F0A9FB04F11003064A52F823001B
:4006000042F8235038BD1030044B53F8200038BD00ED00E000400208B40E08100000081070B338B504460D464368072B03D93621154800F089FBB4F900306268002B08DBDD
:400640005201D2B203F1604303F5614383F8002305E003F00F035201D2B20C49CA540C4B9A680C4B9A420DD11DB94521064800F06BFB2946B4F90000FFF7B0FF002038BD7E
:4006800005487047002038BDB40E081014ED00E000ED00E0004002080100560038B50369002B0DDA0D4604460B0C1B0423B140F2A721044800F048FBA9B26160002038BD3C
:4006C000014838BDF80E081001008A0038B50368002B01DA002300E0094B73B90D460446C2600B0C1B0423B140F28E21054800F02BFBA9B2A160002038BD014838BD00BFB7
:4007000001008A00F80E081038B504460D4619B99921064800F018FB2369002B03DAE3682B60002038BD024838BD00BF380F081001008A000F2840D8F8B515460E4604464D
:4007400082B979B90F2804D940F29D11214800F0FBFA600100F1804000F50C101E4B18600020F8BD5DB366B316F01F0F2BD10F2C04D940F29D11174800F0E6FA640104F117
:40078000804404F50C14144F3C607E60BD60F2080021284600F04CFB00212046FFF77EFF3A4652F8040B0021FFF790FF68B900213868FFF773FF50B9F8BD084870470748CB
:4007C000F8BD0648F8BD0548F8BD0548F8BD0448F8BD00BF780F08103849020803018A0001018A002DE9F0411B4B1B68DC68236883422CD90D464609A0EB4610012303FACC
:4008000000F819B900F00DFB074600E00027124B18680368002B01DA002300E00F4B83B9626852F8263018EA030F05D023EA080342F82630002400E0094C0021FFF72EFF23
:4008400000E0084C25B9384600F0EFFA00E0064C2046BDE8F08100BF3849020801008A00020188000301880004018A000B4B1B68DB681A6882420CD94109A0EB4110012256
:4008800002FA00F05B6853F82130184203D004487047044870470448704700BF384902080101880004018A0000018800024B1B680BB9014B18607047444902082DE9F843D4
:4008C0000446884691461E46089F072803D9B421244800F039FA244B1B682C2000FB04F01C18F5B21D50C6F307236360360CA6600F2D04D940F29D111C4800F025FA6D0152
:4009000005F1804505F50C15256165680F2D04D94FF4DC71154800F017FA154B03EB45156561A668330C1B0423B14FF4EB710F4800F00AFA330C1B0423B140F2D7110B4850
:4009400000F002FAB3B243EA0646AE60C4F81C90C4F820800023A36117B1B7F90030A381BDE8F883B80F081044490208780F081000102340F0B58FB0044618B950212C485C
:4009800000F0E2F9A369072B03D95421284800F0DBF9E36A1BB95621254800F0D5F9E368072B03D95721224800F0CEF9236A072B03D958211E4800F0C7F9236B1BB95921EE
:4009C0001B4800F0C1F907AE04F114050FCD0FC62F6802AD26460FCE0FC533682B60079B1933ADF83030089B0D93A26AE16A0CAD00953B460A98FFF761FF00210091069B46
:400A00000A460598FFF75AFF216B2846FFF708FEBDF93030002B08DB590903F01F03012202FA03F3034A42F821300FB0F0BD00BFB80F081000E100E0F8B507460E461D4680
:400A400014461AB9FC21224800F07EF9072F03D9FD211F4800F078F9072E03D9FE211C4800F072F91B4B1B682C2202FB073002FB06367368012202FA03F31B04476802FA16
:400A800007F70269EAB1B169E9B91268002A01DA002200E0104AC2B92288134323600369DC600123B361756204693B0C1B0423B140F28E21094800F047F9BAB2A26000204F
:400AC000F8BD0748F8BD0748F8BD0648F8BD00BFB80F08104449020801008A00780F081004028A0007028A0070B504460E461546072804D940F25F11084800F025F9084B37
:400B00001B682C2202FB0434E369AB4204D9236A43F82560002070BD024870BDB80F0810444902080A028A0070B582B000230193044620B94FF4D971264800F005F92369D6
:400B400023B940F2B311234800F0FEF8636923B94FF4DA711F4800F0F7F8236A23B940F2B5111C4800F0F0F86369DD682A0C1CD012041A601B6820690369002B15DA01A93A
:400B8000FFF7C2FD60B9019803681E0CDBB2E269934206D2226A52F8233013B1984700E0002631462069FFF779FDADB275B16369ADB21D601B68636A1BB198470023636266
:400BC00002E0A36A03B198470023A36163691B6802B070BDB80F08101F4B98422DD00CD840282ED003D8E8B1102828D02FE0802829D0B0F5807F28D029E0184B984228D086
:400C000006D8B0F1204F0DD0154B984212D01EE0144B98420AD00133984209D0023B984215D101E0002070470F4870470F4870470F4870474FF4A0007047074870470D4801
:400C400070470D4870470D487047034870470C4870474FF4A400704706005200010000F0090000A0040000F00100520002005200030052000100500002005000050052001E
:400C8000FF00520008B50C4B1B69002B12DB0B4B1868FFF7A1FF0122094BC3F88C24084BD3F80C34002BFAD1054BD3F88C34002BF5D108BD034808BD2000234048490208D2
:400CC000000025400200500000B583B05523ADF80030002301930C496846FFF7A1FCBDF90030002B08DB590903F01F03012202FA03F3064A42F82130022205490120FFF7D7
:400D0000F3FE03B05DF804FBFD42020800E100E01D44020810B5044605E0084B186800F077F8A4F50044B4F5004FF6D8044B186800FB04F000F06CF810BD00BFA8420208EB
:400D4000A442020801BEFEE738B50D46044C18220146204600F074F8A5610020FFF7F2FF08470208FEE700BF08B50268254BDA6142681A6282685A62C2689A620269DA6297
:400D800042691A6382695A63C2699A631E4A916AD963D16A1964516A5964516B9964926BDA64F1EE103A13F0900F27D0026A154B1A65426A5A65826A9A65C26ADA65026B3D
:400DC0001A66426B5A66826B9A66C26BDA66026C1A67426C5A67826C9A67C26CDA67026DC3F88020426DC3F88420826DC3F88820C26DC3F88C20026EC3F89020FFF7B2FFAE
:400E000008BD00BF0847020800ED00E0000000000230800803D001300238FCD100BF00BF7047EFF3108072B6704780F31088704702440346934202D003F8011BFAE7704716
:400E400010B5034642B111F8014B03F8014B013A002CF7D11A4400E010BD934202D003F8014BFAE710BD0000F8B500BFF8BC08BC9E467047F8B500BFF8BC08BC9E46704701
:400E8000030000000100000001000000000000000503600004000000010000000000000001000000060460000800000018490208E902081047656E6572617465645F536F2F
:400EC000757263655C50536F43365C70646C5C647269766572735C7065726970686572616C5C737973696E745C63795F737973696E742E630000000047656E6572617465DA
:400F0000645F536F757263655C50536F43365C70646C5C647269766572735C7065726970686572616C5C6970635C63795F6970635F6472762E68000047656E657261746540
:400F4000645F536F757263655C50536F43365C70646C5C647269766572735C7065726970686572616C5C6970635C63795F6970635F6472762E63000047656E657261746505
:400F8000645F536F757263655C50536F43365C70646C5C647269766572732F7065726970686572616C2F6970632F63795F6970635F6472762E68000047656E657261746547
:400FC000645F536F757263655C50536F43365C70646C5C647269766572735C7065726970686572616C5C6970635C63795F6970635F706970652E6300000000000000081036
:40100000004002088C0200001C1008108C4202087C0400009C470208EC0100000048E80100127A0000093D0000127A0000127A0008000000401F00000000A00F02FF000030
:40104000B10208108D0208100000000080B2C300B0B13E210B4A116041F61E7104321160A2F584720621C2F8181523F07F43C2F81C35D2F81C35044BD3F81C35002BFADA16
:40108000704700BF040126400000264008B54FF26003404AD3589BB2A2F580229268013B032B76D8DFE803F0021F3C59032A02D10822394B9A60394A13691069C0F307222F
:4010C0001B0E581C02FB0000354B03FB00F0354B1B68354AA2FB03239B09B0FBF3F08230FFF7B4FF08BD032A02D108222A4B9A602A4A13691069C0F307221B0E581C02FBD9
:401100000000274B03FB00F0264B1B68264AA2FB03239B09B0FBF3F08230FFF797FF08BD032A02D108221C4B9A601C4A13691069C0F307221B0E581C02FB0000184B03FB36
:4011400000F0184B1B68184AA2FB03239B09B0FBF3F08230FFF77AFF08BD032A02D108220D4B9A600D4A13691069C0F307221B0E581C02FB00000A4B03FB00F0094B1B6804
:40118000094AA2FB03239B09B0FBF3F08230FFF75DFF08BD00002540A00023400000214040420F0090420208D34D621008B54378FF2B0ED100F050F9064BDB685A681368CB
:4011C00043F001031360136813F0010FFBD100F04BF908BD80002340F8B505460E46264B1B69002B1FDB002000F046F9234B98421BD00023224A0121184600F015F918B151
:40120000204C15E0013400E00024002000F034F91A4B984202D01C4B9C42F3D91A4B9C4205D9184C04E0174C02E0164C00E0002404BB00F011F90746144A0121144800F0CF
:40124000FBF868B925B93046FFF700FF114C08E00F4B1B69002BFBDB00F0F6F8044600E0084C0121002000F00FF90028F9D1384600F0FAF82046F8BDA0002340010188005D
:40128000AC42020805005200EF490200484902082000234001005000394B1B68002BFBDA30B4374BDA6842F00102DA60DB6813F0020F20D0324DEB689CB232490A69120AA7
:4012C000120402F47F02D1F890301B0A42EA03632343EB600B6923F47F4343F410630B61D1F8903023F47F4343F41063C1F890300B69D1F89030224B00225A605B68224A13
:40130000136943F004031361012801D030BF07E020BF1E4B1B7803B120BF01221B4B1A70184BD3F8803003F00303022BE7D0144B1B68002BFBDA124BDB6813F0020F15D0FC
:4013400010490B6923F47F420D48C3681B0C1B0203F47F4313430B61D1F8903023F47F42C3681B0E42EA0323C1F89030044BDA6822F00102DA6000225A6030BC704700BFEB
:40138000E00023400000214000ED00E0584902081E4A136943F004031361012801D030BF07E020BF1A4B1B7803B120BF0122184B1A70184BD3F8803003F00303022BE7D07A
:4013C000154B1B68002BFBDA144BD3F80C31C3B941F61E72124B1A60062203F582631A603E22A3F214431A60442203F583631A600C4B1B68002BFBDA4FF0AA32074BC3F884
:401400000C210022044B5A60704700BF00ED00E05849020800002140E000234000002540080126401C05264001B40248844601BC604700BF390A081001B40248844601BC9A
:40144000604700BFCD06081001B40248844601BC604700BF850C081001B40248844601BC604700BF230E081001B40248844601BC604700BF2B0E081001B40248844601BC8E
:40148000604700BF6D08081001B40248844601BC604700BFE50708100000000000000000000000000000000000000000000000000000000000000000000000000000000049
:4014C00000000000000000000000000000000000000000000000000000000000000000000000000000000000000000000000000000000000000000000000000000000000EC
:4015000000000000000000000000000000000000000000000000000000000000000000000000000000000000000000000000000000000000000000000000000000000000AB
:40154000000000000000000000000000000000000000000000000000000000000000000000000000000000000000000000000000000000000000000000000000000000006B
:40158000000000000000000000000000000000000000000000000000000000000000000000000000000000000000000000000000000000000000000000000000000000002B
:4015C00000000000000000000000000000000000000000000000000000000000000000000000000000000000000000000000000000000000000000000000000000000000EB
:0200000490303A
:02000000F4000A
:0200000490501A
:0C0000000005E20721002101E2181500B4
:00000001FF