:020000041000EA
:4000000000400208310100100D000000950100100000000000000000000000000000000000000000000000000000000091010010000000000000000091010010910100109B
:4000400091010010AD040010910100109101001091010010910100109101001091010010910100109101001091010010910100109101001091010010910100109101001041
:400080009101001091010010910100109101001091010010910100109101001091010010910100109101001091010010910100109101001091010010910100109101001020
:4000C00010B5064C2378002B07D1054B002B02D0044800E000BF0123237010BD540400080000000044240010084B10B5002B03D00749084800E000BF07480368002B00D1AC
:4001000010BD064B002BFBD09847F9E7000000005804000844240010EC000008000000007047EFF3108072B6704780F310887047FFF7F6FF72B6104C104DAC4209DA21682C
:400140006268A368043B02DBC858D050FAE70C34F3E70B490B4A0020521A02DD043A8850FCDC094809490860BFF34F8F00F004F900F01EF8FEE700004824001060240010CE
:40018000540400084C0600080000000808ED00E0FEE7FEE700B504207146084202D0EFF3098001E0EFF30880043001F003FEFEE710B562B6034800F053F9002001F038FDC7
:4001C000FBE7C0460000081070B56249E0239B00CB580F2213401A00D0329200525807210A40032A05D0042A06D0002A12D15A4814E05A4A106811E01A00C032920055492E
:4002000052581F210A40112A06D0132A04D0FA20C00103E0524801E080200002002B36D14C4BB222D2009A5801211140B125ED005A59120F032422405B591B0F1C4207D086
:40024000444C63591B0F03242340012B02D102E0012300E00023002B01D0002901D1032A4BD13C4BB022D2009D58AD03AD0B3D495958C904C90C9C58240E01231C400134FA
:4002800001F024FE6843210001F020FE35E0012B33D1304BC822D2009A5801251540C024E4001A59120F03210A401B591B0F194207D028490B591B0F03210B40012B02D160
:4002C00002E0012300E00023002B01D0002D01D1032A12D11F4DC022D200AB587F210B40A958090A1F263140AC58240C3440584301F0ECFD210001F0E9FDE0239B00154A00
:40030000D3581B0903221340D840144C6060164B1D692D0AFC32154001351969090E013101F0D4FDA060290001F0D0FD0500E06020610E4BC0180E4901F0C8FD20750D4B82
:40034000E818FA21890001F0C1FDA061C003E06170BDC0460000264000127A00C000000800366E0184050000000021403F420F0040420F00E703000010B5234BB021C900D1
:400380005A58520052085A50E02080001A583024A2431A50802252045A501C491C4A9950A021890104329950FF211A4A995081315A58920092088020C00502435A505A58DD
:4003C0008020000602435A505A58012082435A5000F0C8F9FFF7F8FE00F070F800F078F801F040F8B0235B055B78002B04D0B0235B055B78DBB200E02123212B03D1064B7B
:400400000022DA605A6010BD0000264001000200840500008C050000E00023408023024AD3580320184070470000214010B5FFF778FE084980228C58074B2340074C2343F0
:400440008B508823034AD358DB06FAD5FFF76DFE10BDC04600002140FCFF00000100FA0570B50500FFF75DFE0400FFF7D7FF032801D1FFF7DBFF0A4AB0239B00D55080219E
:400480005058084B03400848034353508823044AD358DB06FAD52000FFF747FE70BDC04600002140FCFF00000300FA0510B5024800F0AAFD10BDC0467004000810B5034AFE
:4004C00060328021042000F08FFB10BD7005000810B501F0DAFC0400044800F045FC044800F0ACFC200001F0D4FC10BD7004000858200010FEE7C04603230B4A13600B4A10
:400500001360802252010A4B1A6080221206094B1A60094A094B1A600F22094B1A60094A094B1A607047C04608203140102031409402364000001D41050A000000031D41EA
:4005400044031D4101001180000E1F4130B587B06B4A116808230B4313606A4C03E0012001F0EEFB013C664B1B695B0701D4002CF5D1002C01D1644B00E00023002B02D0C4
:400580000520FFF7B7FF614BA020C0001A5803218A4302390A431A505D4990240A595D4802400A510A691202120A8024640422430A610A6910400861E022920099580F208B
:4005C000814399509958213081439950995880200006014399500021012000F077FD0021022000F073FD0021032000F06FFD0021042000F06BFD0021002000F067FD01A8D7
:40060000454903000A0032CA32C312CA12C300F085FD002802D00420FFF76CFF3B493F4A8B588020000603438B503D4800F030FE002802D00420FFF75DFF344C394BE15885
:40064000394A0A4001252A43E250E158374A0A40E250E258802109060A43E250043BE158334A0A40E250E158324A0A40802149010A43E250E258802109020A43E250204AA0
:4006800011682D4B0B401360002001F005FCC0235B00E3581D4204D1284AA3585B005B08A3503021012001F09DFB254B0121254A995025481958174A114019508021C90066
:4006C000224858505858002421481C508024240118591040FE252D02284318511D485850585802241C481C501C481C582240B824640122431A501A4A5A505B5807B030BD2D
:400700000000274020A1070002004A000000264000002140FF00FFFF8C200010087F0000400D030004050000FEFCFFFFFFFF00FFFFF0FFFFFF8FFFFFFFFCFFFF0C05000066
:4007400000000140180C00000408000001FF0080CC0C000000FF0080E40C00000808000002FF008070B58EB03221012001F03AFB01F010FB002814D101F0FCFAC0235B0085
:400780005C4AD358DB0705D411005B4A8B585B005B088B505749584A8B588020000603438B50002001F07CF9022001F0D9F8534A516C534B0B40E82189010B435364536C8B
:4007C0001B0AFF2213403A2B07D14C4A516C4D4B0B40E82189010B43536401AC34220021200001F0FFFB484D22000021280000F043FE34220021200001F0F4FB220001213A
:40080000280000F039FEFFF7A1FE24220021200001F0E8FBC023DB00E3602100280000F095FF3A4D22002B00143343CB43C243CB43C243CB43C22100354800F087FF2422FD
:400840000021200001F0CEFB324BE3602100324800F07CFF22002B00383343CB43C243CB43C243CB43C221002C4800F06FFF24220021200001F0B6FB8623019321002848DC
:4008800000F064FF22002B005C3323CB23C223CB23C223CB23C22100224800F057FF224D23002A0043CA43C343CA43C343CA43C321001E4800F04AFF22002B00243343CB58
:4008C00043C243CB43C243CB43C22100184800F03DFF22002B00483323CB23C223CB23C223CB23C22100134800F030FFFFF704FE0EB070BD000026400C0500000000274083
:40090000FF00FFFFFFC5FFDF000032408C2000108000324000866606800232400003324080033240000432400C21001000053240000632408006324010B583089A00801A8A
:40094000C000FF228240D44381400A40072B32D89B001949CB589F46184B196A0C4022431A6228E0154B596A0C4022435A6222E0124B996A0C4022439A621CE00F4BD96A1E
:400980000C402243DA6216E00C4B196B0C4022431A6310E0094B596B0C4022435A630AE0064B996B0C4022439A6304E0034BD96B0C402243DA6310BD7821001000002140AD
:4009C00083089A00801AC100FF228A40072B2BD89B001748C3589F46164B186A1040C84023E0144B586A1040C8401EE0114B986A1040C84019E00F4BD86A1040C84014E011
:400A00000C4B186B1040C8400FE00A4B586B1040C8400AE0074B986B1040C84005E0054BD86B1040C84000E00020C0B27047C046982100100000214070B504000D000B4BD9
:400A40009A680B4B9A420BD1002903D1FC21094801F082F91034064BA400E058E55003E01034A400044BE05870BDC04600ED00E000000008B821001000000010F0B583B0BE
:400A8000041E019150D04368032B03D93621294801F062F90023E05E002802DBA178FFF74BFF0023E25E6368002A12DB9008224EC0308000875903210A40D200FF252900B0
:400AC00091408F4399012B000B4093403B43835117E092B20F21114008398908063189001648844661444E6803200240D200FF2738009040864398013B00034093403343BF
:400B00004B600E4B9A680E4B9A420FD1019B002B03D14521074801F01FF90023E05E0199FFF78AFF002002E0064800E0002003B0F0BDC046B821001000E100E000ED00E09A
:400B4000000000080100560070B504000D000369002B0ADA0B0C03D00549064801F0FCF82D042D0C6560002000E0034870BDC046A7020000FC21001001008A0070B50500C2
:400B80000C000368002B01DA002300E0084B002B0BD1EA60230C03D00649074801F0DCF82404240CAC60002000E0014870BDC04601008A008E020000FC21001070B505005A
:400BC0000C1E03D19921064801F0C6F82B69002B03DAEB682360002000E0024870BDC0463C22001001008A00F8B504000E0015000F283FD8002A10D100290ED10F2804D90F
:400C00009E21FF31214801F0A7F86401204B9C466444204B1C60002037E0002D2CD0002E2CD0F3062CD10F2C04D99E21FF31174801F092F86401164B9C466444154F3C60DA
:400C40007E60BD60F2080021280001F0CBF900212000FFF779FF3A0001CA0021FFF78EFF00280FD10B4B18680021FFF76DFF00280AD10AE0084808E0074806E0064804E03C
:400C8000054802E0054800E00448F8BD7C220010000023400006000803018A0001018A00F0B583B00D001C4B1B68DC68236883422DD947097B01C01A012383401E00002961
:400CC00003D101F0E2F8019001E000230193124B18680368002B01DA002300E00F4B002B0ED16368BF00DF193B68334203D0B3433B60002400E00A4C0021FFF725FF00E004
:400D0000084C002D04D1019801F0C3F800E0064C200003B0F0BDC0460006000801008A00020188000301880004018A000A4B1B68DA68136883420BD943095901401A0121C1
:400D4000814052689B009B580B4203D0034802E0034800E003487047000600080101880004018A0000018800034B1B68002B01D1014B18607047C0460C060008F0B54746A5
:400D800080B404000F0090461E00072803D9B421254800F0E1FF254B1B682C2060431C18FF22150035402560330A13406360330CA3600F2D04D99E21FF311D4800F0CCFFD8
:400DC0006B011C4A94466344236165680F2D04D9DC214900164800F0BFFF6D01164B9C4665446561A668330C04D0EB214900104800F0B2FF330C04D0D821FF310C4800F0D5
:400E0000ABFF3604330C1E43AE604346E36127620023A361069B002B02D000229B5EA38104BC9046F0BDC046BC2200100C0600087C2200100000234000102340F0B58FB00D
:400E4000041E03D150212E4800F086FF6368032B03D952212A4800F07FFFE36A002B03D15621274800F078FFE368072B03D95721234800F071FF236A072B03D95821204847
:400E800000F06AFF236B002B03D159211C4800F063FF07AA1300210061C961C321C921C302AD290023001433C1CBC1C141CB41C10821535E0CAE3380079B1933B370089BC2
:400EC0000D930B9B0A980096A26AE16AFFF756FF2B69E868002200920021FFF74FFF216B3000FFF7CBFD0023F25E002A05DB1F231A401E3B9340034A13600FB0F0BDC046E4
:400F0000BC22001000E100E0F8B505000F0016001C00002A03D1FC21244800F01DFF072D03D9FD21214800F017FF072F03D9FE211E4800F011FF1E4B1B682C21280048435C
:400F4000181879435918012213004D68AB401B044568AA4015000269002A20D08F69002F1FD11268002A01DA002200E0114A002A19D132681204120C134333600369DE6086
:400F800001238B614C6204692B0C03D00A490B4800F0E2FE2A04120CA260002004E0084802E0084800E00748F8BDC046BC2200100C06000801008A008E0200007C220010F7
:400FC00004028A0007028A0070B505000C001600072804D96021FF31084800F0BDFE084B1B682C2068431818C369B34204D9036AB6009C51002000E0024870BDBC2200105A
:401000000C0600080A028A0070B582B0040000230193002804D1D92149002B4800F09CFE2369002B04D1B421FF31274800F094FE6369002B04D1DA214900234800F08CFE3A
:40104000236A002B04D1B621FF311F4800F084FE6269D5682B0C1FD01B041360136820690369002B18DA01A9FFF7A8FD00280ED1019803681E0CFF221340E269934207D2CF
:401080009B00226AD358002B02D0984700E0002631002069FFF758FD2D042D0C0FD063691D601B68636A002B03D098470023636203E0A36A002B00D098470023A361636993
:4010C0001B6802B070BDC046BC22001004281DD8042904D94B1EFF3B9BB2132B18D8FF290CD91F2319400B4A0300C0339B009950D03080000423835000200AE007231940D3
:40110000D0308000034BC150002002E0024800E0014870470000264001004A0070B5041E04D1EF2149004C4800F016FEB023DB004A4AD358002B01DB002500E0484D002DAB
:4011400000D086E0474B22689A4204D9EE21FF31414800F001FE23689B03990BE3791B068022520413400B43B022D2003B498B50A2883D4B9A4204D9FA214900364800F08A
:40118000EBFD2289394B9A4204D9F621FF31324800F0E2FDA388DB04D90C23891B04344A13400B43334A2D498B50A37A0F2B04D9FC21FF31284800F0CFFDE37A0F2B04D907
:4011C000FE214900244800F0C7FDA289264B9A4204D9FE21FF31204800F0BEFDA37A0F211940E27A1201FF2313400B43A289120221490A401343A27B1207C02189050A40A0
:401200001343B122D20015498B50A379072B03D91A49114800F0A0FD228A144B9A4203D917490D4800F098FD0C4816494658164B1E40A3791B02E022D20013403343435091
:401240004658124B1E40238A1B04094A134033434350280070BDC046FC2200100000264003004A00FFFF0300FF1F0000FF0100000000FF018405000000FF1F000502000091
:40128000060200008C050000FFF8FFFFFFFF00FE70B505002D492E4A8B588020000603438B502C0003E0012000F04AFD013CB223DB00264AD3585B0701D4002CF3D1234960
:4012C000B122D2008858234B03408020800503438B50002D02D00ED0002C0CD01B49B022D2008B588020000603438B5003E0012000F026FD013CB223DB00144AD358DB076C
:4013000001D4002CF3D1002D0ED0002C0CD10F4AB021C90053585B005B0853500C4953585B005B0853500BE0084B0221B222D2009950B121C9005A58C020800502435A50E3
:40134000002C01D1044800E0002070BD000026408C050000FFFFFFCF02004A00214B984230D00ED8402831D004D800281FD010282AD031E080282BD080235B00984229D0A8
:401380002AE0194B984229D007D8A0231B0698420DD0164B984212D01EE0154B98420AD0144B984209D0144B984215D101E0002016E0124814E0124812E0124810E0A02077
:4013C000C0030DE007480BE00F4809E00F4807E00F4805E0034803E00E4801E0A420C0037047C04606005200010000F0090000A0040000F0050000F0030000F0010052007F
:401400000200520003005200010050000200500005005200FF00520010B50C4B1B69002B11DB0B4B1868FFF799FF0121094B0A4AD150084B084AD358002BFAD1074BD3586F
:40144000002BF6D100E0064810BDC04600002340100600080C040000000025408C0400000200500010B5022202490020FFF7ACFD10BDC04635010008F8B506000D001400C9
:40148000002800D142E1002A00D141E1072903D93921A04800F060FC2368012B03D93A219C4800F059FC0F2362689A4303D03B21984800F051FC237A1F22934303D03C2139
:4014C000944800F049FCE368032B03D93D21914800F042FC2369012B03D93E218D4800F03BFC6369012B03D93F218A4800F034FCA369012B03D94021864800F02DFCE36964
:40150000032B03D94121834800F026FC236A012B03D942217F4800F01FFC636A012B03D943217C4800F018FCA36A012B03D94421784800F011FCE36A032B03D945217548E6
:4015400000F00AFC236B072B03D94621714800F003FC2768072D03D96F49704800F0FCFB012F04D9BA2189006C4800F0F5FB002F03D10123AB40736002E00123AB40B360E6
:401580006768072D04D9E4218900644800F0E4FB0F233A009A4303D06149604800F0DCFBAA00B36A0F210800904083430F4097401F43B762277A072D03D95A49574800F0F4
:4015C000CBFB1F233A009A4303D05749534800F0C3FB564BF318DB09554A944663441B01032D0BD81A68E8001F2181408A4311001F223A4082400A431A600BE0291F5A68AF
:40160000C9001F208840824310001F223A408A4002435A60E768082D03D946493F4800F09BFB032F03D944493C4800F095FB6A00736A03210800904083430F4097401F4355
:4016400077622769082D03D93C49344800F084FB012F04D9CA21C900304800F07DFBB36901221100A9408B431740AF401F43B7616769072D03D93249284800F06DFB012FC5
:4016800003D93049254800F067FBF26A01231900A9408C468A431F40AF401743F7626F00103703210800B84062461043326B8243A0691840A8400243E0690140B9400A435F
:4016C0003263706BFF2294469043276A1F40636A5A00022313403B43A26A9100042739400B431F00E36AD900182319403B000B43226B520161460A401343AD00FE22920028
:401700001540AB4003437363002002E00E4800E00D48F8BD84230010E7020000C42300109103000045020000460200000000CEBF00100304D4060000D50600004F060000A3
:40174000D2030000D303000001005A0070B505000C00002848D0002948D0FF230A689A4303D08D21224800F0F7FAFF2322699A4303D08E211E4800F0EFFAA3685B0D03D0DE
:401780008F211B4800F0E8FA63685B0A03D09021174800F0E1FAE3695B0F03D09121144800F0DAFA236A5B0F03D09221104800F0D3FA104BEB18DB090F4A944663441B0141
:4017C00022682A60E268AA622269EA6262692A63A2686A626268AA61A2696A63E2691A60226A5A60002002E0044800E0034870BD842300100000CEBF0010030401005A0066
:40180000034A9369802149040B4393617047C04600F02540024A9169024B0B409361704700F02540FFFFFFFE0D4BF222D2019A580260F022D2019A5842600A4A9A58826010
:40184000094A9A58C260094A9A580261084A9A584261084A9A588261074A9B58C36170470000344004780000087800000C7800001078000014780000187800000D4BF0222A
:40188000D201416899500C4A816899500B4AC16899500B4A016999500A4A416999500A4A81699950094AC16999500168E83299507047C0460000344004780000087800007F
:4018C0000C78000010780000147800001878000010B5074A074813580F24A34302210B43135004381358A3431943115010BDC0460000214004F0000010B5074A07481358C1
:401900000F24A34303210B43135004381358A3431943115010BDC0460000214004F000000449054A8858054B0340C020C00103438B5070470000214004F00000FF8FFFFFDE
:401940000449054A8858054B03408020C00103438B5070470000214004F00000FF8FFFFFF0B5474680B40400022805D0052803D04749484800F0F0F9474B484AD3581F224C
:401980001340E822D200B02149058A5CD31A5A1E9341DEB200F079FA0500022C10D1012E0ED1FFF72DFFFFF793FF3C483A4943581F229343143A13434350FFF7B1FF3AE04B
:4019C000052C23D1002E21D1344F334EBB591F2290469343143A1343BB51092000F0B0F9FFF7AEFFBB5942469343083A1343BB51092000F0A5F9FFF77FFFBB5942469343D5
:401A0000043A1343BB51FFF705FF14E0022C0AD1002E08D12148204943581F229343143A1343435007E01D481B4943581F229343043A13434350092000F082F9174B1A684C
:401A4000E021C9030A431A605A6907218A430C4014435C615B695B0005D4104A53698021C9050B4353610D4C63698022120613436361E120800000F063F923688022120432
:401A800013432360280000F004FA04BC9046F0BD4A050000042400101CFF00000000264070B50500012803D92A492B4800F054F900F0EBF90400294B294AD3581F2213401C
:401AC000E822D200B02149058A5CD31A5A1E9341DBB29D4239D0002D14D1FFF791FEFFF7F7FE1F481D4943581F229343143A13434350FFF715FFE823DB00B0225205D35CD7
:401B0000DAB211E01648154943581F229343143A13434350092000F013F9FFF711FF114BB0225205D35CDAB20D4E0C4831581F23994313400B433350012D06D1092000F080
:401B4000FFF8FFF7D9FEFFF765FE200000F0A1F970BDC046ED060000042400101CFF0000000026404107000070B584B005000E00042803D929492A4800F0EEF8731EDBB22B
:401B8000012B07D9042E05D0082E03D02549244800F0E2F8042E01D0012E1DD1224B5C68002013E023799D420FD1A368002B01D01E420AD1E36801A85A6842609B68836026
:401BC000067023689847184B9C606469002C23D0164B9842E6D11FE0134B9C68022E02D1002C00D02469002011E023799D420DD1A368002B01D01E4208D1E36801A85A687B
:401C000042609B6883600670236898472469002C02D0064B9842E8D104B070BD24080000042400102508000020060008FF00420070B50500012804D9F221FF31384800F009
:401C40008BF8384B1B68002B05D001210120FFF78BFF040000E00024002C59D100F015F90600304B1B68002B03D004210120FFF77BFFE0232C4AD358DB0603D529480C30FA
:401C8000FFF7D2FDB0235B055B78002B04D0B0235B055B78DBB200E02123212B03D1280000F0CAF91FE02149214BCB581F221340E822D200B0204005825CD31A5A1E934114
:401CC000DBB20A68120207D4012B05D1194BC158194B164AD15003E00021174B134AD150280000F0B1F9E0230F4AD358DB0603D50C480C30FFF7C2FD300000F0CAF8094B31
:401D00001B68002B09D008210120FFF72DFF04E002210120FFF728FF084C200070BDC046042400102006000800000140000026401CFF000010180000307F0000FF00420084
:401D400010B5034B1B78584300F096F810BDC046D400000801BEFEE770B50D00044C18220100200000F046F9A5610020FFF7F2FF18040008054B802212069A649B6C002BDA
:401D800001DB002000E002487047C0460000274003004600054B8022120198585B68FF221A4202D08023DB021843704700002640FEE7C04610B50A4B0268DA6142681A62C1
:401DC00082685A62C2689A620269DA6242691A6382695A63C2699A63FFF7EAFF10BDC04618040008F0B5002801D0192200E064228A42924152421C4BE8256D005C59032770
:401E0000BC433A4014435C515C59184E34405C51D03D5C59BC4322435A515A5916405E51002805D010290DD921290DD8012014E01D290BD93A290BD957290BD978290BD8A7
:401E400003200AE0002008E0022006E0002004E0012002E0022000E00420054A13680F218B4303431360F0BD00002140FFFCFFFF00002540000000000230800803D001306D
:401E80000238FCD1C046C0467047EFF3108072B6704780F310887047042805D1094A116804230B4313600CE00006C0239B04184090239B00044AD050024A136804218B434D
:401EC0001360704710E000E000002140002243088B4274D303098B425FD3030A8B4244D3030B8B4228D3030C8B420DD3FF22090212BA030C8B4202D31212090265D0030B5D
:401F00008B4219D300E0090AC30B8B4201D3CB03C01A5241830B8B4201D38B03C01A5241430B8B4201D34B03C01A5241030B8B4201D30B03C01A5241C30A8B4201D3CB0212
:401F4000C01A5241830A8B4201D38B02C01A5241430A8B4201D34B02C01A5241030A8B4201D30B02C01A5241CDD2C3098B4201D3CB01C01A524183098B4201D38B01C01A24
:401F8000524143098B4201D34B01C01A524103098B4201D30B01C01A5241C3088B4201D3CB00C01A524183088B4201D38B00C01A524143088B4201D34B00C01A5241411AFB
:401FC00000D20146524110467047FFE701B5002000F006F802BDC0460029F7D076E770477047C04603008218934202D019700133FAE77047030030B5002A0DD00C780133B8
:402000005D1E013A2C700131002CF5D19A189A4202D01C700133FAE730BD0000F8B5C046F8BC08BC9E467047F8B5C046F8BC08BC9E4670470000000001B40248844601BC2A
:40204000604700BF4102000801B40248844601BC604700BF1503000803000000010000000100000000000000050360000400000001000000000000000100000006046000C6
:4020800008000000E0050008AD040010F80100002A0002010A00080708000000C60000002100000000000000000000000000600000000000000000000000000000000000DC
:4020C00000000000000000000000000000000000000000BA0000000000000000000000000000000000001D1DFE0000000000000000000000000000000000000000000000EE
:402100000000000000040400000000000700000000000000000000000660000000000000000000000000000000000000000000000500000000000000000000008666000039
:402140000000000000000000000000001414140000000000800000000000000000000000000000600000000000000000000000000000000000000000580900106409001055
:40218000700900107C0900108809001094090010A0090010AC090010D8090010E2090010EC090010F6090010000A00100A0A0010140A00101E0A001047656E657261746566
:4021C000645F536F757263655C50536F43365C70646C5C647269766572735C7065726970686572616C5C737973696E745C63795F737973696E742E630000000047656E65EE
:4022000072617465645F536F757263655C50536F43365C70646C5C647269766572735C7065726970686572616C5C6970635C63795F6970635F6472762E68000047656E652D
:4022400072617465645F536F757263655C50536F43365C70646C5C647269766572735C7065726970686572616C5C6970635C63795F6970635F6472762E63000047656E65F2
:4022800072617465645F536F757263655C50536F43365C70646C5C647269766572732F7065726970686572616C2F6970632F63795F6970635F6472762E68000047656E6534
:4022C00072617465645F536F757263655C50536F43365C70646C5C647269766572735C7065726970686572616C5C6970635C63795F6970635F706970652E630047656E6510
:4023000072617465645F536F757263655C50536F43365C70646C5C647269766572735C7065726970686572616C5C737973636C6B5C63795F737973636C6B2E6300000000A1
:4023400047656E6572617465645F536F757263655C50536F43365C70646C5C647269766572735C7065726970686572616C5C737973636C6B5C63795F737973636C6B2E68DD
:402380000000000047656E6572617465645F536F757263655C50536F43365C70646C5C647269766572735C7065726970686572616C5C6770696F5C63795F6770696F2E6376
:4023C0000000000047656E6572617465645F536F757263655C50536F43365C70646C5C647269766572735C7065726970686572616C5C6770696F5C63795F6770696F2E6831
:402400000000000047656E6572617465645F536F757263655C50536F43365C70646C5C647269766572735C7065726970686572616C5C737973706D5C63795F737973706D6C
:402440002E630000000000000000001000000008C000000068240010C00000085803000054040008F80100000048E80100127A0000093D0000093D0000093D000400000048
:40248000A00F00000000D00702FF0000E9000010C1000010000000000004400B12D03E22094B1A60094A0A4B1A600A4B0621A322D2009950084A98509B58074B054AD35855
:4024C000002BFADA7047C046040126401E1F000008012640000026401C05000010B54378FF2B0DD100F054F9064BDB685A68116801230B4313601368DB07FCD400F030F9C3
:4025000010BDC04680002340F0B583B006000F0000F02EF90500032824D12B4B1B69002B22DB002000F044F9284B98421ED00023274A0021012000F00BF9002803D0254CDC
:4025400017E0013400E00024002000F031F91F4B984202D0204B9C42F3D91F4B9C4207D91C4C06E0002404E01A4C02E0194C00E00024002C24D100F00BF90190174A01216E
:40258000174800F00DF900280ED1002E04D13800FFF782FF134C08E0114B1B69002BFBDB00F0EEF8040000E00A4C032D05D10121002000F0C5F80028F9D1019800F0D0F89D
:4025C000200003B0F0BDC046C000234001018800E000000805005200EF49020010060008000023400100500070B5304B1B68002BFBDA2E4BD96802220A43DA60DB68DB07B0
:402600001FD52A4EF2681204150C294B1A69120A1204FF2424042240110090241A59120A12060A432A43F2601969224A114090252D012943196119590A402A431A511A6930
:402640001B591A4B00225A605B681B4A116904230B431361012801D030BF00E020BF134B1B68002BFBDA114BDB68DB0715D510480269104B1A4014000C4DEA68120C1202BD
:40268000FF2109020A4022430261902142581340EA68120E120213434350044BDA6802218A43DA6000225A6070BDC046E000234000002140FF00FFFF00ED00E0164A1169BE
:4026C00004230B431361012801D030BF00E020BF124B1B68002BFBDA86235B00104AD358002B14D10F4A104B1A6006220F4B1A6038320F4B1A6006320E4B1A600D4B1B6882
:40270000002BFBDA0C4986235B00054AD1500022024B5A607047C04600ED00E0E0002340000025401E1F00000801264018052640040126401C052640AAAAAAAA00000000AC
:4027400001B40248844601BC604700BFA10C001001B40248844601BC604700BF090F001001B40248844601BC604700BF931E001001B40248844601BC604700BF1D040010D2
:4027800001B40248844601BC604700BF1914001001B40248844601BC604700BF8B1E001001B40248844601BC604700BF7D0B001001B40248844601BC604700BF2D0D001091
:4027C00000000000000000000000000000000000000000000000000000000000000000000000000000000000000000000000000000000000000000000000000000000000D9
:0200000490303A
:020000007698F0
:0200000490501A
:0C0000000005E20721002101E21397989F
:00000001FF