:020000041008E2
:40000000007804083D0308100D000000A5030810A5030810A5030810A503081000000000000000000000000000000000A1030810A103081000000000A1030810A1030810E7
:40004000A1030810A1030810A1030810A1030810A1030810A1030810A1030810A1030810A1030810A1030810A1030810A1030810A1030810A1030810A1030810A1030810C0
:40008000A1030810A1030810A1030810A1030810A1030810A1030810A1030810A1030810A1030810A1030810A1030810A1030810A1030810E9020810A1030810A103081039
:4000C000A1030810A1030810A1030810A1030810A1030810A1030810A1030810A1030810A1030810A1030810A1030810A1030810A1030810A1030810A1030810A103081040
:40010000A1030810A1030810A1030810A1030810A1030810A1030810A1030810A1030810A1030810A1030810A1030810A1030810A1030810A1030810A1030810A1030810FF
:40014000A1030810A1030810A1030810A1030810A1030810A1030810A1030810A1030810A1030810A1030810A1030810A1030810A1030810A1030810A1030810A1030810BF
:40018000A1030810A1030810A1030810A1030810A1030810A1030810A1030810A1030810A1030810A1030810A1030810A1030810A1030810A1030810A1030810A10308107F
:4001C000A1030810A1030810A1030810A1030810A1030810A1030810A1030810A1030810A1030810A1030810A1030810A1030810A1030810A1030810A1030810A10308103F
:40020000A1030810A1030810A1030810A1030810A1030810A1030810A1030810A1030810A1030810A1030810A1030810A1030810A1030810A1030810A1030810A1030810FE
:40024000A1030810A1030810A1030810A1030810A1030810A1030810A1030810A1030810A1030810A1030810A1030810A1030810A1030810A1030810A1030810A1030810BE
:40028000A1030810A1030810A103081010B5054C237833B9044B13B10448AFF300800123237010BDCC47020800000000C8210810084B10B51BB108490848AFF30080084853
:4002C000036803B910BD074B002BFBD0BDE81040184700BF00000000D0470208C8210810E84202080000000008B5024800F0A2FC08BD00BF1448020808B500221146042080
:4003000000F09EFA08BD00BF10B501F0E6FD0446044800F051FB044800F0B2FB204601F0E0FD10BDE8470208581F08107047EFF3108072B6704780F310887047FFF7F6FFDF
:4003400072B6114C114DAC4209DA21686268A368043BA2BFC858D050FAE70C34F3E70C490C4A00209142BCBF41F8040BFAE70A480A490860BFF34F8F00F0A2F900F07CF9C1
:4003800000F06EF8FEE70000CC210810E4210810CC470208BC4902080040020808ED00E0FEE7FEE700B504207146084202D0EFF3098001E0EFF30880043001F031FDFEE731
:4003C00008B50021084601F00DFB08BD38B54FF4FA74064800F0D6FF0546013C052001F0EBFC0DB1002CF4D1284638BDA01F081038B54FF4FA740121064801F03DF8054675
:40040000013C052001F0D8FC0DB1002CF3D1284638BD00BF8C4202080122014B1A6070476849020808B50C4901230B710A68033203F18833A3FB02035B09C3EB0313A2EB32
:4004400083030B60FFF7D4FF20B14FF4AE71034801F0D6FC08BD00BF8C4202088C1F081008B5FFF7B3FF20B17421184801F0C8FC0AE0FFF7BDFF20B18721144801F0C0FC64
:4004800002E0022001F09CFA114C1249204600F04DF9B4F90030002B08DB590903F01F03012202FA03F30C4A42F8213062B60B4B1B683BB10022094B1A600822084BDA6081
:4004C000FFF7B0FF002001F0F1FBF0E78C1F0810981F0810C103081000E100E06849020800003240704700BF5C4AD2F8803303F00F0303F1D00152F8212002F00702032A11
:4005000004D0042A05D092B9554914E0554A116811E003F1C002514951F8222002F01F02112A06D0132A04D04FF4FA4103E04E4901E04FF400418BBB484BD3F8902502F046
:400540000100D3F88825C2F30172D3F8883513F0405F07D0414BD3F88835C3F30173012B02D102E0012300E0002303B108B9032A46D13A48D0F88025C2F31103D0F88425B1
:40058000C2F30C02D0F88005C0F300600130B1FBF2F202FB03F2B2FBF0F131E0012B2FD12E4BD3F8402602F00100D3F80026C2F30172D3F8003613F0405F07D0274BD3F82D
:4005C0000036C3F30173012B02D102E0012300E0002303B108B9032A12D12048D0F8002602F07F02D0F80036C3F30423D0F80006C0F3044002FB01F2B2FBF3F2B2FBF0F195
:40060000164BD3F88033C3F3011321FA03F215494A601648D0F89030C3F3072301330069000E0130B2FBF0F08860B2FBF3F3CB600B6103F5742202F23F220D48A0FB0202E1
:40064000C2F387420A7503F2E7330A4AA2FB03239B098B61DB03CB61704700BF0000264000127A00BC42020800366E010000214083DE1B43D34D621008B5104BD3F8802172
:4006800022F0404242F08042C3F88021D3F8802142F00042C3F88021D3F8802122F00102C3F88021FFF71EFFFFF71EFFFFF724FEFFF72AFE01F02CFA08BD00BF00002640E0
:4006C00008B5FFF734FE074AD2F8883043F47003C2F88830BFF34F8FBFF36F8FFFF72BFE08BD00BF00ED00E038B50C4B9A680C4B9A420ED10D46044619B9FC21094801F050
:400700007FFB04F11003064A52F8230042F8235038BD1030044B53F8200038BD00ED00E000400208C01F08100000081070B338B504460D464368072B03D93621154801F0B8
:400740005FFBB4F900306268002B08DB5201D2B203F1604303F5614383F8002305E003F00F035201D2B20C49CA540C4B9A680C4B9A420DD11DB94521064801F041FB2946FE
:40078000B4F90000FFF7B0FF002038BD05487047002038BDC01F081014ED00E000ED00E0004002080100560038B50369002B0DDA0D4604460B0C1B0423B140F2A72104481B
:4007C00001F01EFBA9B26160002038BD014838BD0420081001008A0038B50368002B01DA002300E0094B73B90D460446C2600B0C1B0423B140F28E21054801F001FBA9B299
:40080000A160002038BD014838BD00BF01008A000420081038B504460D4619B99921064801F0EEFA2369002B03DAE3682B60002038BD024838BD00BF4420081001008A001D
:400840000F2840D8F8B515460E46044682B979B90F2804D940F29D11214801F0D1FA600100F1804000F50C101E4B18600020F8BD5DB366B316F01F0F2BD10F2C04D940F281
:400880009D11174801F0BCFA640104F1804404F50C14144F3C607E60BD60F2080021284601F022FB00212046FFF77EFF3A4652F8040B0021FFF790FF68B900213868FFF76B
:4008C00073FF50B9F8BD084870470748F8BD0648F8BD0548F8BD0548F8BD0448F8BD00BF842008106C49020803018A0001018A002DE9F0411B4B1B68DC68236883422CD998
:400900000D464609A0EB4610012303FA00F819B901F0E3FA074600E00027124B18680368002B01DA002300E00F4B83B9626852F8263018EA030F05D023EA080342F8263045
:40094000002400E0094C0021FFF72EFF00E0084C25B9384601F0C5FA00E0064C2046BDE8F08100BF6C49020801008A00020188000301880004018A000B4B1B68DB681A689F
:4009800082420CD94109A0EB4110012202FA00F05B6853F82130184203D004487047044870470448704700BF6C4902080101880004018A0000018800024B1B680BB9014BC4
:4009C00018607047784902082DE9F8430446884691461E46089F072803D9B421244801F00FFA244B1B682C2000FB04F01C18F5B21D50C6F307236360360CA6600F2D04D9F0
:400A000040F29D111C4801F0FBF96D0105F1804505F50C15256165680F2D04D94FF4DC71154801F0EDF9154B03EB45156561A668330C1B0423B14FF4EB710F4801F0E0F9AB
:400A4000330C1B0423B140F2D7110B4801F0D8F9B3B243EA0646AE60C4F81C90C4F820800023A36117B1B7F90030A381BDE8F883C42008107849020884200810001023405C
:400A8000F0B58FB0044618B950212C4801F0B8F9A369072B03D95421284801F0B1F9E36A1BB95621254801F0ABF9E368072B03D95721224801F0A4F9236A072B03D958219F
:400AC0001E4801F09DF9236B1BB959211B4801F097F907AE04F114050FCD0FC62F6802AD26460FCE0FC533682B60079B1933ADF83030089B0D93A26AE16A0CAD00953B46F0
:400B00000A98FFF761FF00210091069B0A460598FFF75AFF216B2846FFF708FEBDF93030002B08DB590903F01F03012202FA03F3034A42F821300FB0F0BD00BFC420081089
:400B400000E100E0F8B507460E461D4614461AB9FC21224801F054F9072F03D9FD211F4801F04EF9072E03D9FE211C4801F048F91B4B1B682C2202FB073002FB06367368FD
:400B8000012202FA03F31B04476802FA07F70269EAB1B169E9B91268002A01DA002200E0104AC2B92288134323600369DC600123B361756204693B0C1B0423B140F28E217E
:400BC000094801F01DF9BAB2A2600020F8BD0748F8BD0748F8BD0648F8BD00BFC42008107849020801008A008420081004028A0007028A0070B504460E461546072804D935
:400C000040F25F11084801F0FBF8084B1B682C2202FB0434E369AB4204D9236A43F82560002070BD024870BDC4200810784902080A028A0070B582B000230193044620B9D0
:400C40004FF4D971264801F0DBF8236923B940F2B311234801F0D4F8636923B94FF4DA711F4801F0CDF8236A23B940F2B5111C4801F0C6F86369DD682A0C1CD012041A60A5
:400C80001B6820690369002B15DA01A9FFF7C2FD60B9019803681E0CDBB2E269934206D2226A52F8233013B1984700E0002631462069FFF779FDADB275B16369ADB21D600C
:400CC0001B68636A1BB198470023636202E0A36A03B198470023A36163691B6802B070BDC42008102DE9F04303685F4EA6FB034E4FEA5E1E642707FB1E3E5C4DA5FB0E43B3
:400D0000DC0804EB840C4FEA4C03C3EB0E0303EB041303F07F044368A6FB03E6760907FB1636A5FB0653DD0805EB85077B00F31A03EB05131B0203F4FE432343447BFCB17D
:400D4000047B14B143F4001401E023F4001444F480048368444FA7FB03577F09642505FB1737424DA5FB0735EE0806EB86035D007D1B05EB06152D0405F4F8152C4315E0CD
:400D80008468394EA6FB04567609642505FB1646364CA4FB0654E50805EB85077C00341B04EB0514240404F47C141C4303692E4FA7FB035E4FEA5E1E4FF0640C0CFB1E3EE8
:400DC0002A4EA6FB0E53DD0805EB85084FEA4803C3EB0E0303EB05131B0603F0E0631C434369A7FB035E4FEA5E1E0CFB1E3EA6FB0E53DD0805EB85084FEA4803C3EB0E03AA
:400E000003EB051303F03F038569A7FB05E84FEA58180CFB1858A6FB085E4FEADE0505EB85094FEA490ECEEB080E0EEB051E4FEA0E2E0EF4F85E43EA0E05C369A7FB0307D9
:400E40007F090CFB1737A6FB0703D80800EB80067300FB1A03EB00131B0403F47F032B430C601360BDE8F0831F85EB51CDCCCCCC2DE9F84F064601F030F80446594B1B69CE
:400E800013F0010F0CD1574B9B6813F0020F07D1544D0123AB60B72000F0A6FF0023AB60204601F01EF84F4B9B691B0CC3F3031202EB8202570003F00F031F4407F5FA67BD
:400EC0007469651E0B2D04D94FF46C71464800F097FFA7F5FA63642B04D940F2B131424800F08EFF414B13F805A0022C24D1A7F5FA63642B04D940F295313B4800F080FF1B
:400F000017F0030F07D13A4BA3FB07235B09642202FB137353B9364BA3FB0723DB094FF4C87202FB13731BB9012302E0012300E000230BB10AF1010A4FF0010BD9465C46FE
:400F400048E0D6F810807569631E1E2B04D94FF45971254800F054FF6B1E0B2B04D940F26531214800F04CFFA7F5FA63642B04D940F266311C4800F043FF022D02D80C3593
:400F80007A1E00E03A461A2305FB0333194DA5FB031304EBD303134403EB92031449A1FB0212510901EB41014800034403EBD2131149A3FB0112991A02EB51018908C1EBDA
:400FC000C101591A00D10721884502D109F10109A3460134F368994501D85445B1D95846BDE8F88F0000274010210810042108101F85EB51CDCCCCCC254992242DE9F8438F
:4010000004460E46154603687F4AA2FB030149094FF0640C0CFB11317C48A0FB0173DF0807EB870E4FEA4E03CB1A03EB071303F07F032779FF01FFB21F43A368A2FB032EDF
:401040004FEA5E1E0CFB1E3EA0FB0E30C00800EB80035900C1EB0E0101EB0011090201F4FE413943237BDB039BB241EA030700F034FF8046664B1B6913F0010F0FD1644BBF
:401080009B6813F0020F0AD1DFF884910123C9F80830B72000F0A8FE0023C9F80830404600F01FFF5A4B5B6913F4800F39D023690B2B1AD90C3B00D10C235349A1FB0321B8
:4010C0004909642202FB1131504BA3FB0123DA0802EB82004300CB1A03EB02131B0403F4F81343F400133B4318E013B947F4402314E04549A1FB03214909642202FB11315C
:40110000424BA3FB0123DA0802EB82004300CB1A03EB02131B0403F47C133B4343F4800315E023693849A1FB03214909642202FB1131364BA3FB0123DB0803EB8300420055
:401140008A1A02EB03131B0403F47C133B43227DD20502F400021343A2692B48A0FB021C4FEA5C1C4FF0640E0EFB1C2C2749A1FB0C72D70807EB87084FEA4802C2EB0C02CF
:4011800002EB0712120602F0E0621A43237F42EAC372236AA0FB03C77F090EFB1737A1FB07C34FEAD30C0CEB8C084FEA4803FB1A03EB0C1303F03F0C94F82430DB01DBB276
:4011C0004CEA0307A36AA0FB03C040090EFB1030A1FB0031C90801EB810E4FEA4E039E46C31A03EB01131B0203F4F8533B4394F82C10C90389B20B4394F82D1043EAC17328
:4012000032602B60BDE8F8831F85EB51CDCCCCCC00002740F0B583B0002800F09C80044603683B2B03D954214F4800F0E9FD63683B2B03D955214C4800F0E2FDA368172BE1
:4012400003D95621484800F0DBFD2369013B062B03D95721444800F0D3FDA369013B0B2B03D95821404800F0CBFDE369632B03D959213D4800F0C4FDA669E56905F5FA65FB
:40128000771E0B2F04D94FF46C71384800F0B8FDA5F5FA63642B04D940F2B131334800F0AFFD334BDF5D022E23D1A5F5FA63642B04D940F295312D4800F0A2FD15F0030F5B
:4012C00007D12C4BA3FB05235B09642202FB135353B9284BA3FB0523DB094FF4C87202FB13531BB9012302E0012300E0002303B101376369002B30D0BB4230D801AA694640
:401300002046FFF7EFFC00F0E8FD05461A4B1B6913F0010F0BD1184B9B6813F0010F08D1154A936843F002039360002402E0134C00E0124C5CB9104B009A5A61019A9A6199
:401340009A6822F002029A603E2000F04DFD284600F0C7FD04E00A4C02E0094C00E0084C204603B0F0BD00BF4C21081010210810042108101F85EB51000027400300A20080
:401380000100A20008B5FFF745FF08BD70B5044618B98A21364800F033FD00F09EFD0546344B1B6913F0010F0CD1324B9B6813F0020F07D12F4E0123B360B72000F014FD84
:4013C0000023B360284600F08CFD2A4B5A699B69C2F3021101EB8101480002F00F0101442160150AC5F3021101EB8101480005F00F0528446060C2F38051617369B1110CE8
:40140000C1F3001085002844450001F00F012944A160C2F34051217309E0110CC1F3011000EB8000450001F00F012944A160C2F302622261C3F3011202EB8202510003F065
:401440000F020A4462611A0AC2F3001188000144480002F00F020244A2611B0CC3F3031202EB8202510003F00F030B44E36170BD4C210810000027402DE9F04182B00028F9
:4014800000F0FF8004460E46012903D9CC21814800F0B6FC23683B2B03D9CE217D4800F0AFFC2379012B03D9CF217A4800F0A8FCA3683B2B03D9D121764800F0A1FC237B93
:4014C000012B03D9D221734800F09AFC2369172B03D9D4216F4800F093FC237D012B03D9D5216C4800F08CFCA369013B062B03D9D721684800F084FC237F012B03D9D82101
:40150000644800F07DFCA36A013B0B2B03D9DA21604800F075FC94F82C30012B03D9DB215C4800F06DFC94F82430012B03D9DD21584800F065FC94F82D30012B03D9DF2186
:40154000544800F05DFC00F0C8FC0546524B1B6913F0010F0CD1504B9B6813F0020F07D14D4F0123BB60B72000F03EFC0023BB60284600F0B6FC484B9B691B0CC3F3031239
:4015800002EB8202550003F00F031D4405F5FA65A76A07F1FF38B8F10B0F04D94FF46C713E4800F02DFCA5F5FA63642B04D940F2B1313A4800F024FC394B13F80880022FB6
:4015C00024D1A5F5FA63642B04D940F29531334800F016FC15F0030F07D1324BA3FB05235B09642202FB135353B92E4BA3FB0523DB094FF4C87202FB13531BB9012302E0B6
:40160000012300E000230BB108F10108236A002B39D0434539D801AA69462046FFF7EEFC00F05BFC05461C4B1B6913F0010F0BD1194B9B6813F0010F08D1174A936843F07D
:4016400002039360002402E0174C00E0164CA4B9012E05D0104B009ADA61019A1A6204E00D4B009A5A62019A9A620B4A936823F0020393603E2000F0B7FB284600F031FC10
:4016800004E00A4C02E0094C00E0084C204602B0BDE8F0814C2108100000274010210810042108101F85EB510300A2000100A20030B58DB004460378012B04D94FF45F71BA
:4016C0001E4800F09DFB002C34D00023009301228DF8042002938DF80C20616804918DF81420226906928DF81C302378012B04D02046FFF7BDFB089001E0A3680893012307
:401700008DF8243062690A928DF82C308DF82D3018240B4D08E001216846FFF7ADFE0546013C3E2000F060FB0DB1002CF3D114B9044D00E0024D28460DB030BD4C210810F0
:401740000100A2000200A20070B50E46044620B940F2C9311A4800F053FB26B940F2CA31174800F04DFB23780BB1A56803E02046FFF77EFB0546237E0BB1206A03E004F1F1
:401780001800FFF775FB63696D0145EA832563681D43B26973695B0143EA8223B2681343E26A400140EA8220E26910439D4203D8834203D3002070BD002070BD012070BDA6
:4017C0004C210810704700BF2DE9F04188B004466846FFF7DBFD69462046FFF7B5FF002869D0029B172B5CD9049B0133049300220292072B01D901230493059D013505951C
:40180000069F079E06F5FA6607F1FF38B8F10B0F04D94FF46C715A4800F0F2FAA6F5FA63642B04D940F2B131554800F0E9FA554B13F80880022F24D1A6F5FA63642B04D9F1
:4018400040F295314E4800F0DBFA16F0030F07D14D4BA3FB06235B09642202FB136353B9494BA3FB0623DB094FF4C87202FB13631BB9012302E0012300E000230BB108F178
:401880000108454504D901230593069B01330693069B0C2B07D901230693079B0133079301E0013302936846FFF7B4FC04F11800FFF7FEFE60E0029B002B55D117230293AF
:4018C000049B013B04930BB901230493059B013B0593002B40D1069E079D05F5FA65771E0B2F04D94FF46C71254800F089FAA5F5FA63642B04D940F2B131214800F080FAB0
:40190000204BDF5D022E23D1A5F5FA63642B04D940F295311A4800F073FA15F0030F07D1194BA3FB05235B09642202FB135353B9154BA3FB0523DB094FF4C87202FB135366
:401940001BB9012302E0012300E0002303B101370597069B013B0693069B3BB90C230693079B013B079301E0013B02936846FFF751FC2046FFF79CFE08B0BDE8F08100BF6D
:4019800010210810042108101F85EB51704700BF014B986B704700BF0000274010B5044630F0070304D040F2FE41034800F028FA024BDC62DB6A10BD4C21081000002740BB
:4019C00010B5044630F0070304D040F21351034800F016FA024B5C6310BD00BF4C2108100000274070B506460D46FFF7D1FF0446FFF7D4FF14F0010F01D0FFF7E3FE14F018
:401A0000020F06D01DB13046FFF7DEFE01E0FEF703FD14F0040F01D0FFF7B8FF70BD00BF1F4B98422DD00CD840282ED003D8E8B1102828D02FE0802829D0B0F5807F28D0D7
:401A400029E0184B984228D006D8B0F1204F0DD0154B984212D01EE0144B98420AD00133984209D0023B984215D101E0002070470F4870470F4870470F4870474FF4A00087
:401A80007047074870470D4870470D4870470D487047034870470C4870474FF4A400704706005200010000F0090000A0040000F00100520002005200030052000100500067
:401AC0000200500005005200FF00520008B50C4B1B69002B12DB0B4B1868FFF7A1FF0122094BC3F88C24084BD3F80C34002BFAD1054BD3F88C34002BF5D108BD034808BDF9
:401B0000200023407C490208000025400200500000B583B05523ADF80030002301930C496846FEF703FEBDF90030002B08DB590903F01F03012202FA03F3064A42F821305C
:401B4000022205490120FFF755F803B05DF804FB2D43020800E100E04D440208104B03F5F2421268026003F5F0421268426047F604029A58826047F608029A58C26047F65A
:401B80000C029A58026147F610029A58426147F614029A58826147F618029B58C3617047000034404168104B03F5F0421160816847F604029950C16847F6080299500169A6
:401BC00047F60C029950416947F610029950816947F614029950C16947F618029950026803F5F2431A6070470000344070B584B005460E46042804D940F62401284800F047
:401C0000FFF8731EDBB2012B08D9042E06D0082E04D040F62501224800F0F2F8042E01D0012E1CD11F4B9C68002013E023799D420FD1A3680BB133420BD1E3685A6802921C
:401C40009B68039304A800F80C6D23689847154BDC6064690CB3144B9842E7D11DE0114BDC68022E01D104B12469002011E023799D420DD1A3680BB1334209D1E3685A68BD
:401C800002929B68039304A800F80C6D23689847246914B1044B9842E9D104B070BD00BF882108108C490208FF00420070B50546012804D940F2F111384800F0A1F8384B84
:401CC0005B682BB101210846FFF790FF044600E00024002C5AD100F000F90646304B5B681BB104210120FFF781FF2E4BD3F8E03013F0100F02D02C48FFF730FF4FF0B0538D
:401D00005B7813F0FF0F04D04FF0B0535B78DBB200E02123212B03D1284600F015F921E022494FF61C73CB5803F01F024FF0B05393F84037DBB29B1A18BF01230A6812F429
:401D4000000F07D133B11A4B196847F63073174AD15004E0002147F63073144AD150284600F0EAF80F4BD3F8E03013F0100F02D00D48FFF717FF304600F0B3F8084B5B68FB
:401D80004BB108210120FFF731FF04E002210120FFF72CFF074C204670BD00BF882108108C490208000001409C4902080000264010180016FF00420010B5044605E0084BCD
:401DC000186800F081F8A4F50044B4F5004FF6D8044B186800FB04F000F076F810BD00BFD8420208D442020808B5034B1B7800FB03F000F069F808BDD042020801BEFEE709
:401E000038B50D46044C18220146204600F074F8A5610020FFF7F2FF38470208FEE700BF08B50268254BDA6142681A6282685A62C2689A620269DA6242691A6382695A635A
:401E4000C2699A631E4A916AD963D16A1964516A5964516B9964926BDA64F1EE103A13F0900F27D0026A154B1A65426A5A65826A9A65C26ADA65026B1A66426B5A66826B62
:401E80009A66C26BDA66026C1A67426C5A67826C9A67C26CDA67026DC3F88020426DC3F88420826DC3F88820C26DC3F88C20026EC3F89020FFF7B2FF08BD00BF38470208AA
:401EC00000ED00E0000000000230800803D001300238FCD100BF00BF7047EFF3108072B6704780F31088704702440346934202D003F8011BFAE7704710B5034642B111F819
:401F0000014B03F8014B013A002CF7D11A4400E010BD934202D003F8014BFAE710BD0000F8B500BFF8BC08BC9E467047F8B500BFF8BC08BC9E46704701B40248844601BCB4
:401F4000604700BF3146020801B40248844601BC604700BF394502080300000001000000010000000000000005036000040000000100000000000000010000000604600029
:401F80000800000048490208E90208106D61696E5F636D342E630000150000000700000000000000000000000D00000000000000020000001A000000060000001700000080
:401FC00047656E6572617465645F536F757263655C50536F43365C70646C5C647269766572735C7065726970686572616C5C737973696E745C63795F737973696E742E6344
:402000000000000047656E6572617465645F536F757263655C50536F43365C70646C5C647269766572735C7065726970686572616C5C6970635C63795F6970635F647276C5
:402040002E68000047656E6572617465645F536F757263655C50536F43365C70646C5C647269766572735C7065726970686572616C5C6970635C63795F6970635F647276EF
:402080002E63000047656E6572617465645F536F757263655C50536F43365C70646C5C647269766572732F7065726970686572616C2F6970632F63795F6970635F6472763B
:4020C0002E68000047656E6572617465645F536F757263655C50536F43365C70646C5C647269766572735C7065726970686572616C5C6970635C63795F6970635F70697072
:40210000652E63001F1C1F1E1F1E1F1F1E1F1E1F47656E6572617465645F536F757263655C50536F43365C70646C5C647269766572735C7065726970686572616C5C727435
:40214000635C63795F7274632E68000047656E6572617465645F536F757263655C50536F43365C70646C5C647269766572735C7065726970686572616C5C7274635C6379E4
:402180005F7274632E63000047656E6572617465645F536F757263655C50536F43365C70646C5C647269766572735C7065726970686572616C5C737973706D5C63795F737F
:4021C0007973706D2E6300000000000000000810004002088C020000EC2108108C420208AC040000CC470208F0010000000000000000000000000000000000000D000000CD
:402200000000000002000000000000001A0000000000000006000000000100000048E80100127A0000093D0000127A0000127A0008000000401F00000000A00F02FF000049
:40224000B10208108D0208100000000080B2C300B0B13E210B4A116041F61E7104321160A2F584720621C2F8181523F07F43C2F81C35D2F81C35044BD3F81C35002BFADA04
:40228000704700BF040126400000264008B54FF26003404AD3589BB2A2F580229268013B032B76D8DFE803F0021F3C59032A02D10822394B9A60394A13691069C0F307221D
:4022C0001B0E581C02FB0000354B03FB00F0354B1B68354AA2FB03239B09B0FBF3F08230FFF7B4FF08BD032A02D108222A4B9A602A4A13691069C0F307221B0E581C02FBC7
:402300000000274B03FB00F0264B1B68264AA2FB03239B09B0FBF3F08230FFF797FF08BD032A02D108221C4B9A601C4A13691069C0F307221B0E581C02FB0000184B03FB24
:4023400000F0184B1B68184AA2FB03239B09B0FBF3F08230FFF77AFF08BD032A02D108220D4B9A600D4A13691069C0F307221B0E581C02FB00000A4B03FB00F0094B1B68F2
:40238000094AA2FB03239B09B0FBF3F08230FFF75DFF08BD00002540A00023400000214040420F00C0420208D34D621008B54378FF2B0ED100F048F9064BDB685A68136891
:4023C00043F001031360136813F0010FFBD100F033F908BD80002340F8B505460E46264B1B69002B1FDB002000F046F9234B98421BD00023224A0121184600F035F918B137
:40240000204C15E0013400E00024002000F034F91A4B984202D01C4B9C42F3D91A4B9C4205D9184C04E0174C02E0164C00E0002404BB00F009F90746144A0121144800F0C5
:40244000F3F868B925B93046FFF700FF114C08E00F4B1B69002BFBDB00F016F9044600E0084C0121002000F0F7F80028F9D1384600F0E2F82046F8BDA00023400101880063
:40248000DC42020805005200EF4902007C4902082000234001005000394B1B68002BFBDA30B4374BDA6842F00102DA60DB6813F0020F20D0324DEB689CB232490A69120A31
:4024C000120402F47F02D1F890301B0A42EA03632343EB600B6923F47F4343F410630B61D1F8903023F47F4343F41063C1F890300B69D1F89030224B00225A605B68224A01
:40250000136943F004031361012801D030BF07E020BF1E4B1B7803B120BF01221B4B1A70184BD3F8803003F00303022BE7D0144B1B68002BFBDA124BDB6813F0020F15D0EA
:4025400010490B6923F47F420D48C3681B0C1B0203F47F4313430B61D1F8903023F47F42C3681B0E42EA0323C1F89030044BDA6822F00102DA6000225A6030BC704700BFD9
:40258000E00023400000214000ED00E08C4902081E4A136943F004031361012801D030BF07E020BF1A4B1B7803B120BF0122184B1A70184BD3F8803003F00303022BE7D034
:4025C000154B1B68002BFBDA144BD3F80C31C3B941F61E72124B1A60062203F582631A603E22A3F214431A60442203F583631A600C4B1B68002BFBDA4FF0AA32074BC3F872
:402600000C210022044B5A60704700BF00ED00E08C49020800002140E000234000002540080126401C05264001B40248844601BC604700BFD907081001B40248844601BCB7
:40264000604700BFE31E081001B40248844601BC604700BFDB1E081001B40248844601BC604700BFF108081001B40248844601BC604700BF450B081001B40248844601BC07
:40268000604700BF7909081001B40248844601BC604700BFCD1A0810000000000000000000000000000000000000000000000000000000000000000000000000000000002F
:4026C00000000000000000000000000000000000000000000000000000000000000000000000000000000000000000000000000000000000000000000000000000000000DA
:402700000000000000000000000000000000000000000000000000000000000000000000000000000000000000000000000000000000000000000000000000000000000099
:402740000000000000000000000000000000000000000000000000000000000000000000000000000000000000000000000000000000000000000000000000000000000059
:402780000000000000000000000000000000000000000000000000000000000000000000000000000000000000000000000000000000000000000000000000000000000019
:4027C00000000000000000000000000000000000000000000000000000000000000000000000000000000000000000000000000000000000000000000000000000000000D9
:0200000490303A
:02000000D66CBC
:0200000490501A
:0C0000000005E20721002101E214F76C6A
:00000001FF