:020000041000EA
:4000000000400208790100100D000000DD01001000000000000000000000000000000000000000000000000000000000D90100100000000000000000D9010010D901001033
:40004000D901001021010010D9010010D9010010D9010010D9010010D9010010D9010010D9010010D9010010D9010010D9010010D9010010D9010010D9010010D901001098
:40008000D9010010D9010010D9010010D9010010D9010010D9010010D9010010D9010010D9010010D9010010D9010010D9010010D9010010D9010010D9010010D9010010A0
:4000C00010B5064C2378002B07D1054B002B02D0044800E000BF0123237010BD54040008000000003C210010084B10B5002B03D00749084800E000BF07480368002B00D1B7
:4001000010BD064B002BFBD09847F9E700000000580400083C210010EC0000080000000010B5024800F0D6FE10BDC0467004000810B5034A60328021042000F0BBFC10BD28
:400140007005000810B501F064FD0400044800F071FD044800F0D8FD200001F05EFD10BD70040008E01D00107047EFF3108072B6704780F310887047FFF7F6FF72B6104C31
:40018000104DAC4209DA21686268A368043B02DBC858D050FAE70C34F3E70B490B4A0020521A02DD043A8850FCDC094809490860BFF34F8F00F004F900F01EF8FEE70000E7
:4001C0004021001058210010540400084C0600080000000808ED00E0FEE7FEE700B504207146084202D0EFF3098001E0EFF30880043001F0A5FCFEE710B562B6034800F07F
:4002000053F9002001F0DAFBFBE7C0460000081070B56249E0239B00CB580F2213401A00D0329200525807210A40032A05D0042A06D0002A12D15A4814E05A4A106811E0F7
:400240001A00C0329200554952581F210A40112A06D0132A04D0FA20C00103E0524801E080200002002B36D14C4BB222D2009A5801211140B125ED005A59120F032422401D
:400280005B591B0F1C4207D0444C63591B0F03242340012B02D102E0012300E00023002B01D0002901D1032A4BD13C4BB022D2009D58AD03AD0B3D495958C904C90C9C588E
:4002C000240E01231C40013401F0C4FC6843210001F0C0FC35E0012B33D1304BC822D2009A5801251540C024E4001A59120F03210A401B591B0F194207D028490B591B0F6B
:4003000003210B40012B02D102E0012300E00023002B01D0002D01D1032A12D11F4DC022D200AB587F210B40A958090A1F263140AC58240C3440584301F08CFC210001F095
:4003400089FCE0239B00154AD3581B0903221340D840144C6060164B1D692D0AFC32154001351969090E013101F074FCA060290001F070FC0500E06020610E4BC0180E4925
:4003800001F068FC20750D4BE818FA21890001F061FCA061C003E06170BDC0460000264000127A00C000000800366E0184050000000021403F420F0040420F00E70300007D
:4003C00010B5234BB021C9005A58520052085A50E02080001A583024A2431A50802252045A501C491C4A9950A021890104329950FF211A4A995081315A5892009208802036
:40040000C00502435A505A588020000602435A505A58012082435A5000F068F9FFF7F8FEFFF786FEFFF78EFE00F082FFB0235B055B78002B04D0B0235B055B78DBB200E05D
:400440002123212B03D1064B0022DA605A6010BD0000264001000200840500008C050000E00023408023024AD3580320184070470000214010B5FFF778FE084980228C5869
:40048000074B2340074C23438B508823034AD358DB06FAD5FFF76DFE10BDC04600002140FCFF00000100FA0570B50500FFF75DFE0400FFF7D7FF032801D1FFF7DBFF0A4A24
:4004C000B0239B00D55080215058084B03400848034353508823044AD358DB06FAD52000FFF747FE70BDC04600002140FCFF00000300FA05FEE7C046014A024B1A607047DD
:4005000001001180000E1F4130B587B0674A116808230B431360664C03E0012001F0D6FA013C624B1B695B0701D4002CF5D1002C01D1604B00E00023002B02D00520FFF7B7
:40054000D9FF5D4BA021C9005A58032082435A505A4990240A595A4802400A510A691202120A8024640422430A610A6910400861E022920099580F24A143995099583020C3
:40058000814399509D58802109060D439D5004329D58A5439D509D5885439D509D580D439D5004329D58A5439D509D5885439D509D580D439D5004329D58A5439D509D58FF
:4005C00085439D509D580D439D5004329D58A5439D509C5884439C509858014399500021012000F0D9FC0021022000F0D5FC0021032000F0D1FC0021042000F0CDFC002125
:40060000002000F0C9FC01A82E4903000A0032CA32C312CA12C300F0E7FC002802D00420FFF768FF2449284A8B588020000603438B50264800F092FD002802D00420FFF73E
:4006400059FF1D4C224BE158224A0A40E250E158214A0A40E250E25880252D062A43E250043BE1581D4A0A40E250E1581C4A0A40E250E258802109020A43E2500B4A1168B1
:40068000184B0B401360002001F0CAFA164BE2582A43E250E158012291430A43E2501821002001F065FA07B030BDC0460000274020A1070002004A000000264000002140C6
:4006C000FF00FFFF141E0010087F0000400D030004050000FEFCFFFFFFFF00FFFFF0FFFFFF8FFFFFFFFCFFFF0C050000F0B58FB09621002001F03CFA01F012FA002814D177
:4007000001F0FEF9C0235B00364AD358DB0705D41100354A8B585B005B088B503149324A8B588020000603438B50012001F07EF82E4A516C2E4B0B40E82189010B43536468
:40074000536C1B0AFF2213403A2B02D1294A274B5A64264A516C264B0B40536401AC34220021200001F002FB234E22000021300000F0E8FD34220021200001F0F7FA220020
:400780000121300000F0DEFD34220021200001F0EDFA0823636022000521300000F0D2FDFFF7B2FE154D22002B00143383CB83C283CB83C283CB83C22100300000F02CFFC7
:4007C00022002B00383323CB23C223CB23C223CB23C221000A4800F01FFFFFF78DFE0FB0F0BDC046000026400C05000000002740FF00FFFF003A00A000003240141E0010EB
:400800000003324010B583089A00801AC000FF228240D44381400A40072B32D89B001949CB589F46184B196A0C4022431A6228E0154B596A0C4022435A6222E0124B996AAC
:400840000C4022439A621CE00F4BD96A0C402243DA6216E00C4B196B0C4022431A6310E0094B596B0C4022435A630AE0064B996B0C4022439A6304E0034BD96B0C402243BC
:40088000DA6310BD701E00100000214083089A00801AC100FF228A40072B2BD89B001748C3589F46164B186A1040C84023E0144B586A1040C8401EE0114B986A1040C8402A
:4008C00019E00F4BD86A1040C84014E00C4B186B1040C8400FE00A4B586B1040C8400AE0074B986B1040C84005E0054BD86B1040C84000E00020C0B27047C046901E001032
:400900000000214070B504000D000B4B9A680B4B9A420BD1002903D1FC21094801F0E2F81034064BA400E058E55003E01034A400044BE05870BDC04600ED00E00000000884
:40094000B01E001000000010F0B583B0041E019150D04368032B03D93621294801F0C2F80023E05E002802DBA178FFF74BFF0023E25E6368002A12DB9008224EC030800039
:40098000875903210A40D200FF25290091408F4399012B000B4093403B43835117E092B20F21114008398908063189001648844661444E6803200240D200FF2738009040BC
:4009C000864398013B000340934033434B600E4B9A680E4B9A420FD1019B002B03D14521074801F07FF80023E05E0199FFF78AFF002002E0064800E0002003B0F0BDC046CB
:400A0000B01E001000E100E000ED00E0000000080100560070B504000D000369002B0ADA0B0C03D00549064801F05CF82D042D0C6560002000E0034870BDC046A702000019
:400A4000F41E001001008A0070B505000C000368002B01DA002300E0084B002B0BD1EA60230C03D00649074801F03CF82404240CAC60002000E0014870BDC04601008A004B
:400A80008E020000F41E001070B505000C1E03D19921064801F026F82B69002B03DAEB682360002000E0024870BDC046341F001001008A00F8B504000E0015000F283FD846
:400AC000002A10D100290ED10F2804D99E21FF31214801F007F86401204B9C466444204B1C60002037E0002D2CD0002E2CD0F3062CD10F2C04D99E21FF31174800F0F2FF7F
:400B00006401164B9C466444154F3C607E60BD60F2080021280001F029F900212000FFF779FF3A0001CA0021FFF78EFF00280FD10B4B18680021FFF76DFF00280AD10AE06E
:400B4000084808E0074806E0064804E0054802E0054800E00448F8BD741F0010000023400006000803018A0001018A00F0B583B00D001C4B1B68DC68236883422DD9470992
:400B80007B01C01A012383401E00002903D101F040F8019001E000230193124B18680368002B01DA002300E00F4B002B0ED16368BF00DF193B68334203D0B3433B600024B4
:400BC00000E00A4C0021FFF725FF00E0084C002D04D1019801F021F800E0064C200003B0F0BDC0460006000801008A00020188000301880004018A000A4B1B68DA6813681F
:400C000083420BD943095901401A0121814052689B009B580B4203D0034802E0034800E003487047000600080101880004018A0000018800034B1B68002B01D1014B186024
:400C40007047C0460C060008F0B5474680B404000F0090461E00072803D9B421254800F041FF254B1B682C2060431C18FF22150035402560330A13406360330CA3600F2D9C
:400C800004D99E21FF311D4800F02CFF6B011C4A94466344236165680F2D04D9DC214900164800F01FFF6D01164B9C4665446561A668330C04D0EB214900104800F012FF8A
:400CC000330C04D0D821FF310C4800F00BFF3604330C1E43AE604346E36127620023A361069B002B02D000229B5EA38104BC9046F0BDC046B41F00100C060008741F00103F
:400D00000000234000102340F0B58FB0041E03D150212E4800F0E6FE6368032B03D952212A4800F0DFFEE36A002B03D15621274800F0D8FEE368072B03D95721234800F09D
:400D4000D1FE236A072B03D95821204800F0CAFE236B002B03D159211C4800F0C3FE07AA1300210061C961C321C921C302AD290023001433C1CBC1C141CB41C10821535E1B
:400D80000CAE3380079B1933B370089B0D930B9B0A980096A26AE16AFFF756FF2B69E868002200920021FFF74FFF216B3000FFF7CBFD0023F25E002A05DB1F231A401E3B09
:400DC0009340034A13600FB0F0BDC046B41F001000E100E0F8B505000F0016001C00002A03D1FC21244800F07DFE072D03D9FD21214800F077FE072F03D9FE211E4800F0E2
:400E000071FE1E4B1B682C2128004843181879435918012213004D68AB401B044568AA4015000269002A20D08F69002F1FD11268002A01DA002200E0114A002A19D1326833
:400E40001204120C134333600369DE6001238B614C6204692B0C03D00A490B4800F042FE2A04120CA260002004E0084802E0084800E00748F8BDC046B41F00100C060008E5
:400E800001008A008E020000741F001004028A0007028A0070B505000C001600072804D96021FF31084800F01DFE084B1B682C2068431818C369B34204D9036AB6009C51E2
:400EC000002000E0024870BDB41F00100C0600080A028A0070B582B0040000230193002804D1D92149002B4800F0FCFD2369002B04D1B421FF31274800F0F4FD6369002B62
:400F000004D1DA214900234800F0ECFD236A002B04D1B621FF311F4800F0E4FD6269D5682B0C1FD01B041360136820690369002B18DA01A9FFF7A8FD00280ED101980368EB
:400F40001E0CFF221340E269934207D29B00226AD358002B02D0984700E0002631002069FFF758FD2D042D0C0FD063691D601B68636A002B03D098470023636203E0A36A0A
:400F8000002B00D098470023A36163691B6802B070BDC046B41F001004281DD8042904D94B1EFF3B9BB2132B18D8FF290CD91F2319400B4A0300C0339B009950D0308000D9
:400FC0000423835000200AE007231940D0308000034BC150002002E0024800E0014870470000264001004A0070B5041E04D1EF2149004C4800F076FDB023DB004A4AD358D5
:40100000002B01DB002500E0484D002D00D086E0474B22689A4204D9EE21FF31414800F061FD23689B03990BE3791B068022520413400B43B022D2003B498B50A2883D4B29
:401040009A4204D9FA214900364800F04BFD2289394B9A4204D9F621FF31324800F042FDA388DB04D90C23891B04344A13400B43334A2D498B50A37A0F2B04D9FC21FF319D
:40108000284800F02FFDE37A0F2B04D9FE214900244800F027FDA289264B9A4204D9FE21FF31204800F01EFDA37A0F211940E27A1201FF2313400B43A289120221490A4066
:4010C0001343A27B1207C02189050A401343B122D20015498B50A379072B03D91A49114800F000FD228A144B9A4203D917490D4800F0F8FC0C4816494658164B1E40A3791C
:401100001B02E022D2001340334343504658124B1E40238A1B04094A134033434350280070BDC046F41F00100000264003004A00FFFF0300FF1F0000FF0100000000FF013E
:401140008405000000FF1F0005020000060200008C050000FFF8FFFFFFFF00FE70B505002D492E4A8B588020000603438B502C0003E0012000F0AAFC013CB223DB00264A52
:40118000D3585B0701D4002CF3D12349B122D2008858234B03408020800503438B50002D02D00ED0002C0CD01B49B022D2008B588020000603438B5003E0012000F086FCE8
:4011C000013CB223DB00144AD358DB0701D4002CF3D1002D0ED0002C0CD10F4AB021C90053585B005B0853500C4953585B005B0853500BE0084B0221B222D2009950B1219C
:40120000C9005A58C020800502435A50002C01D1044800E0002070BD000026408C050000FFFFFFCF02004A00214B984230D00ED8402831D004D800281FD010282AD031E08E
:4012400080282BD080235B00984229D02AE0194B984229D007D8A0231B0698420DD0164B984212D01EE0154B98420AD0144B984209D0144B984215D101E0002016E012488E
:4012800014E0124812E0124810E0A020C0030DE007480BE00F4809E00F4807E00F4805E0034803E00E4801E0A420C0037047C04606005200010000F0090000A0040000F0B1
:4012C000050000F0030000F0010052000200520003005200010050000200500005005200FF00520010B50C4B1B69002B11DB0B4B1868FFF799FF0121094B0A4AD150084B66
:40130000084AD358002BFAD1074BD358002BF6D100E0064810BDC04600002340100600080C040000000025408C0400000200500010B5022202490020FFF7ACFD10BDC0462C
:4013400035010008F8B506000D001400002800D142E1002A00D141E1072903D93921A04800F0C0FB2368012B03D93A219C4800F0B9FB0F2362689A4303D03B21984800F0DB
:40138000B1FB237A1F22934303D03C21944800F0A9FBE368032B03D93D21914800F0A2FB2369012B03D93E218D4800F09BFB6369012B03D93F218A4800F094FBA369012B09
:4013C00003D94021864800F08DFBE369032B03D94121834800F086FB236A012B03D942217F4800F07FFB636A012B03D943217C4800F078FBA36A012B03D94421784800F0C3
:4014000071FBE36A032B03D94521754800F06AFB236B072B03D94621714800F063FB2768072D03D96F49704800F05CFB012F04D9BA2189006C4800F055FB002F03D1012385
:40144000AB40736002E00123AB40B3606768072D04D9E4218900644800F044FB0F233A009A4303D06149604800F03CFBAA00B36A0F210800904083430F4097401F43B76296
:40148000277A072D03D95A49574800F02BFB1F233A009A4303D05749534800F023FB564BF318DB09554A944663441B01032D0BD81A68E8001F2181408A4311001F223A40CB
:4014C00082400A431A600BE0291F5A68C9001F208840824310001F223A408A4002435A60E768082D03D946493F4800F0FBFA032F03D944493C4800F0F5FA6A00736A032181
:401500000800904083430F4097401F4377622769082D03D93C49344800F0E4FA012F04D9CA21C900304800F0DDFAB36901221100A9408B431740AF401F43B7616769072D71
:4015400003D93249284800F0CDFA012F03D93049254800F0C7FAF26A01231900A9408C468A431F40AF401743F7626F00103703210800B84062461043326B8243A069184090
:40158000A8400243E0690140B9400A433263706BFF2294469043276A1F40636A5A00022313403B43A26A9100042739400B431F00E36AD900182319403B000B43226B520112
:4015C00061460A401343AD00FE2292001540AB4003437363002002E00E4800E00D48F8BD7C200010E7020000BC2000109103000045020000460200000000CEBF001003045F
:40160000D4060000D50600004F060000D2030000D303000001005A0070B505000C00002848D0002948D0FF230A689A4303D08D21224800F057FAFF2322699A4303D08E213A
:401640001E4800F04FFAA3685B0D03D08F211B4800F048FA63685B0A03D09021174800F041FAE3695B0F03D09121144800F03AFA236A5B0F03D09221104800F033FA104BFA
:40168000EB18DB090F4A944663441B0122682A60E268AA622269EA6262692A63A2686A626268AA61A2696A63E2691A60226A5A60002002E0044800E0034870BD7C200010D4
:4016C0000000CEBF0010030401005A00034A9369802149040B4393617047C04600F02540024A9169024B0B409361704700F02540FFFFFFFE0D4BF222D2019A580260F022E2
:40170000D2019A5842600A4A9A588260094A9A58C260094A9A580261084A9A584261084A9A588261074A9B58C36170470000344004780000087800000C7800001078000062
:4017400014780000187800000D4BF022D201416899500C4A816899500B4AC16899500B4A016999500A4A416999500A4A81699950094AC16999500168E83299507047C046AA
:401780000000344004780000087800000C78000010780000147800001878000010B5074A074813580F24A34302210B43135004381358A3431943115010BDC0460000214056
:4017C00004F0000010B5074A074813580F24A34303210B43135004381358A3431943115010BDC0460000214004F000000449054A8858054B0340C020C00103438B5070473D
:401800000000214004F00000FF8FFFFF0449054A8858054B03408020C00103438B5070470000214004F00000FF8FFFFF70B50500012803D92A492B4800F054F900F0E9F97A
:401840000400294B294AD3581F221340E822D200B02149058A5CD31A5A1E9341DBB29D4239D0002D14D1FFF731FFFFF797FF1F481D4943581F229343143A13434350FFF7BF
:40188000B5FFE823DB00B0225205D35CDAB211E01648154943581F229343143A13434350092000F013F9FFF7B1FF114BB0225205D35CDAB20D4E0C4831581F239943134060
:4018C0000B433350012D06D1092000F0FFF8FFF779FFFFF705FF200000F09FF970BDC046ED060000FC2000101CFF0000000026404107000070B584B005000E00042803D963
:4019000029492A4800F0EEF8731EDBB2012B07D9042E05D0082E03D02549244800F0E2F8042E01D0012E1DD1224B5C68002013E023799D420FD1A368002B01D01E420AD10E
:40194000E36801A85A6842609B688360067023689847184B9C606469002C23D0164B9842E6D11FE0134B9C68022E02D1002C00D02469002011E023799D420DD1A368002B7F
:4019800001D01E4208D1E36801A85A6842609B6883600670236898472469002C02D0064B9842E8D104B070BD24080000FC2000102508000020060008FF00420070B5050091
:4019C000012804D9F221FF31384800F08BF8384B1B68002B05D001210120FFF78BFF040000E00024002C59D100F013F90600304B1B68002B03D004210120FFF77BFFE023CD
:401A00002C4AD358DB0603D529480C30FFF772FEB0235B055B78002B04D0B0235B055B78DBB200E02123212B03D1280000F0C8F91FE02149214BCB581F221340E822D2001C
:401A4000B0204005825CD31A5A1E9341DBB20A68120207D4012B05D1194BC158194B164AD15003E00021174B134AD150280000F0AFF9E0230F4AD358DB0603D50C480C3074
:401A8000FFF762FE300000F0C8F8094B1B68002B09D008210120FFF72DFF04E002210120FFF728FF084C200070BDC046FC2000102006000800000140000026401CFF0000A1
:401AC00010180000307F0000FF00420010B5034B1B78584300F094F810BDC046D400000801BEFEE770B50D00044C18220100200000F044F9A5610020FFF7F2FF1804000883
:401B0000054B802212069A649B6C002B01DB002000E002487047C0460000274003004600054B8022120198585B68FF221A4202D08023DB021843704700002640FEE7C046EE
:401B400010B50A4B0268DA6142681A6282685A62C2689A620269DA6242691A6382695A63C2699A63FFF7EAFF10BDC04618040008F0B5002801D0192200E064228A42924161
:401B800052421C4BE8256D005C590327BC433A4014435C515C59184E34405C51D03D5C59BC4322435A515A5916405E51002805D010290DD921290DD8012014E01D290BD905
:401BC0003A290BD957290BD978290BD803200AE0002008E0022006E0002004E0012002E0022000E00420054A13680F218B4303431360F0BD00002140FFFCFFFF000025407F
:401C00000230800803D001300238FCD1C046C0467047EFF3108072B6704780F310887047042805D1094A116804230B4313600CE00006C0239B04184090239B00044AD050CB
:401C4000024A136804218B431360704710E000E000002140002243088B4274D303098B425FD3030A8B4244D3030B8B4228D3030C8B420DD3FF22090212BA030C8B4202D397
:401C80001212090265D0030B8B4219D300E0090AC30B8B4201D3CB03C01A5241830B8B4201D38B03C01A5241430B8B4201D34B03C01A5241030B8B4201D30B03C01A52415E
:401CC000C30A8B4201D3CB02C01A5241830A8B4201D38B02C01A5241430A8B4201D34B02C01A5241030A8B4201D30B02C01A5241CDD2C3098B4201D3CB01C01A5241830973
:401D00008B4201D38B01C01A524143098B4201D34B01C01A524103098B4201D30B01C01A5241C3088B4201D3CB00C01A524183088B4201D38B00C01A524143088B4201D389
:401D40004B00C01A5241411A00D20146524110467047FFE701B5002000F006F802BDC0460029F7D076E770477047C04603008218934202D019700133FAE77047030030B5E6
:401D8000002A0DD00C7801335D1E013A2C700131002CF5D19A189A4202D01C700133FAE730BD0000F8B5C046F8BC08BC9E467047F8B5C046F8BC08BC9E4670470000000074
:401DC00001B40248844601BC604700BF4102000801B40248844601BC604700BF1503000803000000010000000100000000000000050360000400000001000000000000002E
:401E0000010000000604600008000000E005000821010010F8010000540000010A000807080000005700000008000000000000000000000000608000000000000000000062
:401E4000000000000000000000000000000000000000000000000000000000BA0000000000000000000000000000000000001D1D24080010300800103C0800104808001036
:401E800054080010600800106C08001078080010A4080010AE080010B8080010C2080010CC080010D6080010E0080010EA08001047656E6572617465645F536F75726365D3
:401EC0005C50536F43365C70646C5C647269766572735C7065726970686572616C5C737973696E745C63795F737973696E742E630000000047656E6572617465645F536FF4
:401F0000757263655C50536F43365C70646C5C647269766572735C7065726970686572616C5C6970635C63795F6970635F6472762E68000047656E6572617465645F536F30
:401F4000757263655C50536F43365C70646C5C647269766572735C7065726970686572616C5C6970635C63795F6970635F6472762E63000047656E6572617465645F536FF5
:401F8000757263655C50536F43365C70646C5C647269766572732F7065726970686572616C2F6970632F63795F6970635F6472762E68000047656E6572617465645F536F37
:401FC000757263655C50536F43365C70646C5C647269766572735C7065726970686572616C5C6970635C63795F6970635F706970652E630047656E6572617465645F536F13
:40200000757263655C50536F43365C70646C5C647269766572735C7065726970686572616C5C737973636C6B5C63795F737973636C6B2E630000000047656E6572617465AA
:40204000645F536F757263655C50536F43365C70646C5C647269766572735C7065726970686572616C5C737973636C6B5C63795F737973636C6B2E680000000047656E658C
:4020800072617465645F536F757263655C50536F43365C70646C5C647269766572735C7065726970686572616C5C6770696F5C63795F6770696F2E630000000047656E6579
:4020C00072617465645F536F757263655C50536F43365C70646C5C647269766572735C7065726970686572616C5C6770696F5C63795F6770696F2E680000000047656E6534
:4021000072617465645F536F757263655C50536F43365C70646C5C647269766572735C7065726970686572616C5C737973706D5C63795F737973706D2E630000000000005D
:402140000000001000000008C000000060210010C00000085803000054040008F80100000048E80100127A0000093D0000093D0000093D0004000000A00F00000000D00761
:4021800002FF0000E9000010C1000010000000000004400B12D03E22094B1A60094A0A4B1A600A4B0621A322D2009950084A98509B58074B054AD358002BFADA7047C04622
:4021C000040126401E1F000008012640000026401C05000010B54378FF2B0DD100F04CF9064BDB685A68116801230B4313601368DB07FCD400F028F910BDC04680002340DC
:40220000F0B583B006000F0000F02EF90500032824D12B4B1B69002B22DB002000F01CF9284B98421ED00023274A0021012000F02BF9002803D0254C17E0013400E000246D
:40224000002000F009F91F4B984202D0204B9C42F3D91F4B9C4207D91C4C06E0002404E01A4C02E0194C00E00024002C24D100F003F90190174A0121174800F00DF9002854
:402280000ED1002E04D13800FFF782FF134C08E0114B1B69002BFBDB00F0CEF8040000E00A4C032D05D10121002000F0FDF80028F9D1019800F0C8F8200003B0F0BDC04687
:4022C000C000234001018800E000000805005200EF49020010060008000023400100500070B5304B1B68002BFBDA2E4BD96802220A43DA60DB68DB071FD52A4EF26812045D
:40230000150C294B1A69120A1204FF2424042240110090241A59120A12060A432A43F2601969224A114090252D012943196119590A402A431A511A691B591A4B00225A605A
:402340005B681B4A116904230B431361012801D030BF00E020BF134B1B68002BFBDA114BDB68DB0715D510480269104B1A4014000C4DEA68120C1202FF2109020A4022439B
:402380000261902142581340EA68120E120213434350044BDA6802218A43DA6000225A6070BDC046E000234000002140FF00FFFF00ED00E0164A116904230B431361012889
:4023C00001D030BF00E020BF124B1B68002BFBDA86235B00104AD358002B14D10F4A104B1A6006220F4B1A6038320F4B1A6006320E4B1A600D4B1B68002BFBDA0C49862399
:402400005B00054AD1500022024B5A607047C04600ED00E0E0002340000025401E1F00000801264018052640040126401C052640AAAAAAAA0000000001B40248844601BC27
:40244000604700BFE512001001B40248844601BC604700BF1B1C001001B40248844601BC604700BFF90B001001B40248844601BC604700BF6504001001B40248844601BCD1
:40248000604700BF131C001001B40248844601BC604700BFD50D001001B40248844601BC604700BF490A001001B40248844601BC604700BF6D0B00100000000000000000D6
:4024C00000000000000000000000000000000000000000000000000000000000000000000000000000000000000000000000000000000000000000000000000000000000DC
:40250000000000000000000000000000000000000000000000000000000000000000000000000000000000000000000000000000000000000000000000000000000000009B
:40254000000000000000000000000000000000000000000000000000000000000000000000000000000000000000000000000000000000000000000000000000000000005B
:40258000000000000000000000000000000000000000000000000000000000000000000000000000000000000000000000000000000000000000000000000000000000001B
:4025C00000000000000000000000000000000000000000000000000000000000000000000000000000000000000000000000000000000000000000000000000000000000DB
:020000041008E2
:40000000007804083D0308100D000000A5030810A5030810A5030810A503081000000000000000000000000000000000A1030810A103081000000000A1030810A1030810E7
:40004000A1030810A1030810A1030810A1030810A1030810A1030810A1030810A1030810A1030810A1030810A1030810A1030810A1030810A1030810A1030810A1030810C0
:40008000A1030810A1030810A1030810A1030810A1030810A1030810A1030810A1030810A1030810A1030810A1030810A1030810A1030810E9020810A1030810A103081039
:4000C000A1030810A1030810A1030810A1030810A1030810A1030810A1030810A1030810A1030810A1030810A1030810A1030810A1030810A1030810A1030810A103081040
:40010000A1030810A1030810A1030810A1030810A1030810A1030810A1030810A1030810A1030810A1030810A1030810A1030810A1030810A1030810A1030810A1030810FF
:40014000A1030810A1030810A1030810A1030810A1030810A1030810A1030810A1030810A1030810A1030810A1030810A1030810A1030810A1030810A1030810A1030810BF
:40018000A1030810A1030810A1030810A1030810A1030810A1030810A1030810A1030810A1030810A1030810A1030810A1030810A1030810A1030810A1030810A10308107F
:4001C000A1030810A1030810A1030810A1030810A1030810A1030810A1030810A1030810A1030810A1030810A1030810A1030810A1030810A1030810A1030810A10308103F
:40020000A1030810A1030810A1030810A1030810A1030810A1030810A1030810A1030810A1030810A1030810A1030810A1030810A1030810A1030810A1030810A1030810FE
:40024000A1030810A1030810A1030810A1030810A1030810A1030810A1030810A1030810A1030810A1030810A1030810A1030810A1030810A1030810A1030810A1030810BE
:40028000A1030810A1030810A103081010B5054C237833B9044B13B10448AFF300800123237010BDCC47020800000000C8210810084B10B51BB108490848AFF30080084853
:4002C000036803B910BD074B002BFBD0BDE81040184700BF00000000D0470208C8210810E84202080000000008B5024800F0A2FC08BD00BF1448020808B500221146042080
:4003000000F09EFA08BD00BF10B501F0E6FD0446044800F051FB044800F0B2FB204601F0E0FD10BDE8470208581F08107047EFF3108072B6704780F310887047FFF7F6FFDF
:4003400072B6114C114DAC4209DA21686268A368043BA2BFC858D050FAE70C34F3E70C490C4A00209142BCBF41F8040BFAE70A480A490860BFF34F8F00F0A2F900F07CF9C1
:4003800000F06EF8FEE70000CC210810E4210810CC470208BC4902080040020808ED00E0FEE7FEE700B504207146084202D0EFF3098001E0EFF30880043001F031FDFEE731
:4003C00008B50021084601F00DFB08BD38B54FF4FA74064800F0D6FF0546013C052001F0EBFC0DB1002CF4D1284638BDA01F081038B54FF4FA740121064801F03DF8054675
:40040000013C052001F0D8FC0DB1002CF3D1284638BD00BF8C4202080122014B1A6070476849020808B50C4901230B710A68033203F18833A3FB02035B09C3EB0313A2EB32
:4004400083030B60FFF7D4FF20B14FF4AE71034801F0D6FC08BD00BF8C4202088C1F081008B5FFF7B3FF20B17421184801F0C8FC0AE0FFF7BDFF20B18721144801F0C0FC64
:4004800002E0022001F09CFA114C1249204600F04DF9B4F90030002B08DB590903F01F03012202FA03F30C4A42F8213062B60B4B1B683BB10022094B1A600822084BDA6081
:4004C000FFF7B0FF002001F0F1FBF0E78C1F0810981F0810C103081000E100E06849020800003240704700BF5C4AD2F8803303F00F0303F1D00152F8212002F00702032A11
:4005000004D0042A05D092B9554914E0554A116811E003F1C002514951F8222002F01F02112A06D0132A04D04FF4FA4103E04E4901E04FF400418BBB484BD3F8902502F046
:400540000100D3F88825C2F30172D3F8883513F0405F07D0414BD3F88835C3F30173012B02D102E0012300E0002303B108B9032A46D13A48D0F88025C2F31103D0F88425B1
:40058000C2F30C02D0F88005C0F300600130B1FBF2F202FB03F2B2FBF0F131E0012B2FD12E4BD3F8402602F00100D3F80026C2F30172D3F8003613F0405F07D0274BD3F82D
:4005C0000036C3F30173012B02D102E0012300E0002303B108B9032A12D12048D0F8002602F07F02D0F80036C3F30423D0F80006C0F3044002FB01F2B2FBF3F2B2FBF0F195
:40060000164BD3F88033C3F3011321FA03F215494A601648D0F89030C3F3072301330069000E0130B2FBF0F08860B2FBF3F3CB600B6103F5742202F23F220D48A0FB0202E1
:40064000C2F387420A7503F2E7330A4AA2FB03239B098B61DB03CB61704700BF0000264000127A00BC42020800366E010000214083DE1B43D34D621008B5104BD3F8802172
:4006800022F0404242F08042C3F88021D3F8802142F00042C3F88021D3F8802122F00102C3F88021FFF71EFFFFF71EFFFFF724FEFFF72AFE01F02CFA08BD00BF00002640E0
:4006C00008B5FFF734FE074AD2F8883043F47003C2F88830BFF34F8FBFF36F8FFFF72BFE08BD00BF00ED00E038B50C4B9A680C4B9A420ED10D46044619B9FC21094801F050
:400700007FFB04F11003064A52F8230042F8235038BD1030044B53F8200038BD00ED00E000400208C01F08100000081070B338B504460D464368072B03D93621154801F0B8
:400740005FFBB4F900306268002B08DB5201D2B203F1604303F5614383F8002305E003F00F035201D2B20C49CA540C4B9A680C4B9A420DD11DB94521064801F041FB2946FE
:40078000B4F90000FFF7B0FF002038BD05487047002038BDC01F081014ED00E000ED00E0004002080100560038B50369002B0DDA0D4604460B0C1B0423B140F2A72104481B
:4007C00001F01EFBA9B26160002038BD014838BD0420081001008A0038B50368002B01DA002300E0094B73B90D460446C2600B0C1B0423B140F28E21054801F001FBA9B299
:40080000A160002038BD014838BD00BF01008A000420081038B504460D4619B99921064801F0EEFA2369002B03DAE3682B60002038BD024838BD00BF4420081001008A001D
:400840000F2840D8F8B515460E46044682B979B90F2804D940F29D11214801F0D1FA600100F1804000F50C101E4B18600020F8BD5DB366B316F01F0F2BD10F2C04D940F281
:400880009D11174801F0BCFA640104F1804404F50C14144F3C607E60BD60F2080021284601F022FB00212046FFF77EFF3A4652F8040B0021FFF790FF68B900213868FFF76B
:4008C00073FF50B9F8BD084870470748F8BD0648F8BD0548F8BD0548F8BD0448F8BD00BF842008106C49020803018A0001018A002DE9F0411B4B1B68DC68236883422CD998
:400900000D464609A0EB4610012303FA00F819B901F0E3FA074600E00027124B18680368002B01DA002300E00F4B83B9626852F8263018EA030F05D023EA080342F8263045
:40094000002400E0094C0021FFF72EFF00E0084C25B9384601F0C5FA00E0064C2046BDE8F08100BF6C49020801008A00020188000301880004018A000B4B1B68DB681A689F
:4009800082420CD94109A0EB4110012202FA00F05B6853F82130184203D004487047044870470448704700BF6C4902080101880004018A0000018800024B1B680BB9014BC4
:4009C00018607047784902082DE9F8430446884691461E46089F072803D9B421244801F00FFA244B1B682C2000FB04F01C18F5B21D50C6F307236360360CA6600F2D04D9F0
:400A000040F29D111C4801F0FBF96D0105F1804505F50C15256165680F2D04D94FF4DC71154801F0EDF9154B03EB45156561A668330C1B0423B14FF4EB710F4801F0E0F9AB
:400A4000330C1B0423B140F2D7110B4801F0D8F9B3B243EA0646AE60C4F81C90C4F820800023A36117B1B7F90030A381BDE8F883C42008107849020884200810001023405C
:400A8000F0B58FB0044618B950212C4801F0B8F9A369072B03D95421284801F0B1F9E36A1BB95621254801F0ABF9E368072B03D95721224801F0A4F9236A072B03D958219F
:400AC0001E4801F09DF9236B1BB959211B4801F097F907AE04F114050FCD0FC62F6802AD26460FCE0FC533682B60079B1933ADF83030089B0D93A26AE16A0CAD00953B46F0
:400B00000A98FFF761FF00210091069B0A460598FFF75AFF216B2846FFF708FEBDF93030002B08DB590903F01F03012202FA03F3034A42F821300FB0F0BD00BFC420081089
:400B400000E100E0F8B507460E461D4614461AB9FC21224801F054F9072F03D9FD211F4801F04EF9072E03D9FE211C4801F048F91B4B1B682C2202FB073002FB06367368FD
:400B8000012202FA03F31B04476802FA07F70269EAB1B169E9B91268002A01DA002200E0104AC2B92288134323600369DC600123B361756204693B0C1B0423B140F28E217E
:400BC000094801F01DF9BAB2A2600020F8BD0748F8BD0748F8BD0648F8BD00BFC42008107849020801008A008420081004028A0007028A0070B504460E461546072804D935
:400C000040F25F11084801F0FBF8084B1B682C2202FB0434E369AB4204D9236A43F82560002070BD024870BDC4200810784902080A028A0070B582B000230193044620B9D0
:400C40004FF4D971264801F0DBF8236923B940F2B311234801F0D4F8636923B94FF4DA711F4801F0CDF8236A23B940F2B5111C4801F0C6F86369DD682A0C1CD012041A60A5
:400C80001B6820690369002B15DA01A9FFF7C2FD60B9019803681E0CDBB2E269934206D2226A52F8233013B1984700E0002631462069FFF779FDADB275B16369ADB21D600C
:400CC0001B68636A1BB198470023636202E0A36A03B198470023A36163691B6802B070BDC42008102DE9F04303685F4EA6FB034E4FEA5E1E642707FB1E3E5C4DA5FB0E43B3
:400D0000DC0804EB840C4FEA4C03C3EB0E0303EB041303F07F044368A6FB03E6760907FB1636A5FB0653DD0805EB85077B00F31A03EB05131B0203F4FE432343447BFCB17D
:400D4000047B14B143F4001401E023F4001444F480048368444FA7FB03577F09642505FB1737424DA5FB0735EE0806EB86035D007D1B05EB06152D0405F4F8152C4315E0CD
:400D80008468394EA6FB04567609642505FB1646364CA4FB0654E50805EB85077C00341B04EB0514240404F47C141C4303692E4FA7FB035E4FEA5E1E4FF0640C0CFB1E3EE8
:400DC0002A4EA6FB0E53DD0805EB85084FEA4803C3EB0E0303EB05131B0603F0E0631C434369A7FB035E4FEA5E1E0CFB1E3EA6FB0E53DD0805EB85084FEA4803C3EB0E03AA
:400E000003EB051303F03F038569A7FB05E84FEA58180CFB1858A6FB085E4FEADE0505EB85094FEA490ECEEB080E0EEB051E4FEA0E2E0EF4F85E43EA0E05C369A7FB0307D9
:400E40007F090CFB1737A6FB0703D80800EB80067300FB1A03EB00131B0403F47F032B430C601360BDE8F0831F85EB51CDCCCCCC2DE9F84F064601F030F80446594B1B69CE
:400E800013F0010F0CD1574B9B6813F0020F07D1544D0123AB60B72000F0A6FF0023AB60204601F01EF84F4B9B691B0CC3F3031202EB8202570003F00F031F4407F5FA67BD
:400EC0007469651E0B2D04D94FF46C71464800F097FFA7F5FA63642B04D940F2B131424800F08EFF414B13F805A0022C24D1A7F5FA63642B04D940F295313B4800F080FF1B
:400F000017F0030F07D13A4BA3FB07235B09642202FB137353B9364BA3FB0723DB094FF4C87202FB13731BB9012302E0012300E000230BB10AF1010A4FF0010BD9465C46FE
:400F400048E0D6F810807569631E1E2B04D94FF45971254800F054FF6B1E0B2B04D940F26531214800F04CFFA7F5FA63642B04D940F266311C4800F043FF022D02D80C3593
:400F80007A1E00E03A461A2305FB0333194DA5FB031304EBD303134403EB92031449A1FB0212510901EB41014800034403EBD2131149A3FB0112991A02EB51018908C1EBDA
:400FC000C101591A00D10721884502D109F10109A3460134F368994501D85445B1D95846BDE8F88F0000274010210810042108101F85EB51CDCCCCCC254992242DE9F8438F
:4010000004460E46154603687F4AA2FB030149094FF0640C0CFB11317C48A0FB0173DF0807EB870E4FEA4E03CB1A03EB071303F07F032779FF01FFB21F43A368A2FB032EDF
:401040004FEA5E1E0CFB1E3EA0FB0E30C00800EB80035900C1EB0E0101EB0011090201F4FE413943237BDB039BB241EA030700F034FF8046664B1B6913F0010F0FD1644BBF
:401080009B6813F0020F0AD1DFF884910123C9F80830B72000F0A8FE0023C9F80830404600F01FFF5A4B5B6913F4800F39D023690B2B1AD90C3B00D10C235349A1FB0321B8
:4010C0004909642202FB1131504BA3FB0123DA0802EB82004300CB1A03EB02131B0403F4F81343F400133B4318E013B947F4402314E04549A1FB03214909642202FB11315C
:40110000424BA3FB0123DA0802EB82004300CB1A03EB02131B0403F47C133B4343F4800315E023693849A1FB03214909642202FB1131364BA3FB0123DB0803EB8300420055
:401140008A1A02EB03131B0403F47C133B43227DD20502F400021343A2692B48A0FB021C4FEA5C1C4FF0640E0EFB1C2C2749A1FB0C72D70807EB87084FEA4802C2EB0C02CF
:4011800002EB0712120602F0E0621A43237F42EAC372236AA0FB03C77F090EFB1737A1FB07C34FEAD30C0CEB8C084FEA4803FB1A03EB0C1303F03F0C94F82430DB01DBB276
:4011C0004CEA0307A36AA0FB03C040090EFB1030A1FB0031C90801EB810E4FEA4E039E46C31A03EB01131B0203F4F8533B4394F82C10C90389B20B4394F82D1043EAC17328
:4012000032602B60BDE8F8831F85EB51CDCCCCCC00002740F0B583B0002800F09C80044603683B2B03D954214F4800F0E9FD63683B2B03D955214C4800F0E2FDA368172BE1
:4012400003D95621484800F0DBFD2369013B062B03D95721444800F0D3FDA369013B0B2B03D95821404800F0CBFDE369632B03D959213D4800F0C4FDA669E56905F5FA65FB
:40128000771E0B2F04D94FF46C71384800F0B8FDA5F5FA63642B04D940F2B131334800F0AFFD334BDF5D022E23D1A5F5FA63642B04D940F295312D4800F0A2FD15F0030F5B
:4012C00007D12C4BA3FB05235B09642202FB135353B9284BA3FB0523DB094FF4C87202FB13531BB9012302E0012300E0002303B101376369002B30D0BB4230D801AA694640
:401300002046FFF7EFFC00F0E8FD05461A4B1B6913F0010F0BD1184B9B6813F0010F08D1154A936843F002039360002402E0134C00E0124C5CB9104B009A5A61019A9A6199
:401340009A6822F002029A603E2000F04DFD284600F0C7FD04E00A4C02E0094C00E0084C204603B0F0BD00BF4C21081010210810042108101F85EB51000027400300A20080
:401380000100A20008B5FFF745FF08BD70B5044618B98A21364800F033FD00F09EFD0546344B1B6913F0010F0CD1324B9B6813F0020F07D12F4E0123B360B72000F014FD84
:4013C0000023B360284600F08CFD2A4B5A699B69C2F3021101EB8101480002F00F0101442160150AC5F3021101EB8101480005F00F0528446060C2F38051617369B1110CE8
:40140000C1F3001085002844450001F00F012944A160C2F34051217309E0110CC1F3011000EB8000450001F00F012944A160C2F302622261C3F3011202EB8202510003F065
:401440000F020A4462611A0AC2F3001188000144480002F00F020244A2611B0CC3F3031202EB8202510003F00F030B44E36170BD4C210810000027402DE9F04182B00028F9
:4014800000F0FF8004460E46012903D9CC21814800F0B6FC23683B2B03D9CE217D4800F0AFFC2379012B03D9CF217A4800F0A8FCA3683B2B03D9D121764800F0A1FC237B93
:4014C000012B03D9D221734800F09AFC2369172B03D9D4216F4800F093FC237D012B03D9D5216C4800F08CFCA369013B062B03D9D721684800F084FC237F012B03D9D82101
:40150000644800F07DFCA36A013B0B2B03D9DA21604800F075FC94F82C30012B03D9DB215C4800F06DFC94F82430012B03D9DD21584800F065FC94F82D30012B03D9DF2186
:40154000544800F05DFC00F0C8FC0546524B1B6913F0010F0CD1504B9B6813F0020F07D14D4F0123BB60B72000F03EFC0023BB60284600F0B6FC484B9B691B0CC3F3031239
:4015800002EB8202550003F00F031D4405F5FA65A76A07F1FF38B8F10B0F04D94FF46C713E4800F02DFCA5F5FA63642B04D940F2B1313A4800F024FC394B13F80880022FB6
:4015C00024D1A5F5FA63642B04D940F29531334800F016FC15F0030F07D1324BA3FB05235B09642202FB135353B92E4BA3FB0523DB094FF4C87202FB13531BB9012302E0B6
:40160000012300E000230BB108F10108236A002B39D0434539D801AA69462046FFF7EEFC00F05BFC05461C4B1B6913F0010F0BD1194B9B6813F0010F08D1174A936843F07D
:4016400002039360002402E0174C00E0164CA4B9012E05D0104B009ADA61019A1A6204E00D4B009A5A62019A9A620B4A936823F0020393603E2000F0B7FB284600F031FC10
:4016800004E00A4C02E0094C00E0084C204602B0BDE8F0814C2108100000274010210810042108101F85EB510300A2000100A20030B58DB004460378012B04D94FF45F71BA
:4016C0001E4800F09DFB002C34D00023009301228DF8042002938DF80C20616804918DF81420226906928DF81C302378012B04D02046FFF7BDFB089001E0A3680893012307
:401700008DF8243062690A928DF82C308DF82D3018240B4D08E001216846FFF7ADFE0546013C3E2000F060FB0DB1002CF3D114B9044D00E0024D28460DB030BD4C210810F0
:401740000100A2000200A20070B50E46044620B940F2C9311A4800F053FB26B940F2CA31174800F04DFB23780BB1A56803E02046FFF77EFB0546237E0BB1206A03E004F1F1
:401780001800FFF775FB63696D0145EA832563681D43B26973695B0143EA8223B2681343E26A400140EA8220E26910439D4203D8834203D3002070BD002070BD012070BDA6
:4017C0004C210810704700BF2DE9F04188B004466846FFF7DBFD69462046FFF7B5FF002869D0029B172B5CD9049B0133049300220292072B01D901230493059D013505951C
:40180000069F079E06F5FA6607F1FF38B8F10B0F04D94FF46C715A4800F0F2FAA6F5FA63642B04D940F2B131554800F0E9FA554B13F80880022F24D1A6F5FA63642B04D9F1
:4018400040F295314E4800F0DBFA16F0030F07D14D4BA3FB06235B09642202FB136353B9494BA3FB0623DB094FF4C87202FB13631BB9012302E0012300E000230BB108F178
:401880000108454504D901230593069B01330693069B0C2B07D901230693079B0133079301E0013302936846FFF7B4FC04F11800FFF7FEFE60E0029B002B55D117230293AF
:4018C000049B013B04930BB901230493059B013B0593002B40D1069E079D05F5FA65771E0B2F04D94FF46C71254800F089FAA5F5FA63642B04D940F2B131214800F080FAB0
:40190000204BDF5D022E23D1A5F5FA63642B04D940F295311A4800F073FA15F0030F07D1194BA3FB05235B09642202FB135353B9154BA3FB0523DB094FF4C87202FB135366
:401940001BB9012302E0012300E0002303B101370597069B013B0693069B3BB90C230693079B013B079301E0013B02936846FFF751FC2046FFF79CFE08B0BDE8F08100BF6D
:4019800010210810042108101F85EB51704700BF014B986B704700BF0000274010B5044630F0070304D040F2FE41034800F028FA024BDC62DB6A10BD4C21081000002740BB
:4019C00010B5044630F0070304D040F21351034800F016FA024B5C6310BD00BF4C2108100000274070B506460D46FFF7D1FF0446FFF7D4FF14F0010F01D0FFF7E3FE14F018
:401A0000020F06D01DB13046FFF7DEFE01E0FEF703FD14F0040F01D0FFF7B8FF70BD00BF1F4B98422DD00CD840282ED003D8E8B1102828D02FE0802829D0B0F5807F28D0D7
:401A400029E0184B984228D006D8B0F1204F0DD0154B984212D01EE0144B98420AD00133984209D0023B984215D101E0002070470F4870470F4870470F4870474FF4A00087
:401A80007047074870470D4870470D4870470D487047034870470C4870474FF4A400704706005200010000F0090000A0040000F00100520002005200030052000100500067
:401AC0000200500005005200FF00520008B50C4B1B69002B12DB0B4B1868FFF7A1FF0122094BC3F88C24084BD3F80C34002BFAD1054BD3F88C34002BF5D108BD034808BDF9
:401B0000200023407C490208000025400200500000B583B05523ADF80030002301930C496846FEF703FEBDF90030002B08DB590903F01F03012202FA03F3064A42F821305C
:401B4000022205490120FFF755F803B05DF804FB2D43020800E100E04D440208104B03F5F2421268026003F5F0421268426047F604029A58826047F608029A58C26047F65A
:401B80000C029A58026147F610029A58426147F614029A58826147F618029B58C3617047000034404168104B03F5F0421160816847F604029950C16847F6080299500169A6
:401BC00047F60C029950416947F610029950816947F614029950C16947F618029950026803F5F2431A6070470000344070B584B005460E46042804D940F62401284800F047
:401C0000FFF8731EDBB2012B08D9042E06D0082E04D040F62501224800F0F2F8042E01D0012E1CD11F4B9C68002013E023799D420FD1A3680BB133420BD1E3685A6802921C
:401C40009B68039304A800F80C6D23689847154BDC6064690CB3144B9842E7D11DE0114BDC68022E01D104B12469002011E023799D420DD1A3680BB1334209D1E3685A68BD
:401C800002929B68039304A800F80C6D23689847246914B1044B9842E9D104B070BD00BF882108108C490208FF00420070B50546012804D940F2F111384800F0A1F8384B84
:401CC0005B682BB101210846FFF790FF044600E00024002C5AD100F000F90646304B5B681BB104210120FFF781FF2E4BD3F8E03013F0100F02D02C48FFF730FF4FF0B0538D
:401D00005B7813F0FF0F04D04FF0B0535B78DBB200E02123212B03D1284600F015F921E022494FF61C73CB5803F01F024FF0B05393F84037DBB29B1A18BF01230A6812F429
:401D4000000F07D133B11A4B196847F63073174AD15004E0002147F63073144AD150284600F0EAF80F4BD3F8E03013F0100F02D00D48FFF717FF304600F0B3F8084B5B68FB
:401D80004BB108210120FFF731FF04E002210120FFF72CFF074C204670BD00BF882108108C490208000001409C4902080000264010180016FF00420010B5044605E0084BCD
:401DC000186800F081F8A4F50044B4F5004FF6D8044B186800FB04F000F076F810BD00BFD8420208D442020808B5034B1B7800FB03F000F069F808BDD042020801BEFEE709
:401E000038B50D46044C18220146204600F074F8A5610020FFF7F2FF38470208FEE700BF08B50268254BDA6142681A6282685A62C2689A620269DA6242691A6382695A635A
:401E4000C2699A631E4A916AD963D16A1964516A5964516B9964926BDA64F1EE103A13F0900F27D0026A154B1A65426A5A65826A9A65C26ADA65026B1A66426B5A66826B62
:401E80009A66C26BDA66026C1A67426C5A67826C9A67C26CDA67026DC3F88020426DC3F88420826DC3F88820C26DC3F88C20026EC3F89020FFF7B2FF08BD00BF38470208AA
:401EC00000ED00E0000000000230800803D001300238FCD100BF00BF7047EFF3108072B6704780F31088704702440346934202D003F8011BFAE7704710B5034642B111F819
:401F0000014B03F8014B013A002CF7D11A4400E010BD934202D003F8014BFAE710BD0000F8B500BFF8BC08BC9E467047F8B500BFF8BC08BC9E46704701B40248844601BCB4
:401F4000604700BF3146020801B40248844601BC604700BF394502080300000001000000010000000000000005036000040000000100000000000000010000000604600029
:401F80000800000048490208E90208106D61696E5F636D342E630000150000000700000000000000000000000D00000000000000020000001A000000060000001700000080
:401FC00047656E6572617465645F536F757263655C50536F43365C70646C5C647269766572735C7065726970686572616C5C737973696E745C63795F737973696E742E6344
:402000000000000047656E6572617465645F536F757263655C50536F43365C70646C5C647269766572735C7065726970686572616C5C6970635C63795F6970635F647276C5
:402040002E68000047656E6572617465645F536F757263655C50536F43365C70646C5C647269766572735C7065726970686572616C5C6970635C63795F6970635F647276EF
:402080002E63000047656E6572617465645F536F757263655C50536F43365C70646C5C647269766572732F7065726970686572616C2F6970632F63795F6970635F6472763B
:4020C0002E68000047656E6572617465645F536F757263655C50536F43365C70646C5C647269766572735C7065726970686572616C5C6970635C63795F6970635F70697072
:40210000652E63001F1C1F1E1F1E1F1F1E1F1E1F47656E6572617465645F536F757263655C50536F43365C70646C5C647269766572735C7065726970686572616C5C727435
:40214000635C63795F7274632E68000047656E6572617465645F536F757263655C50536F43365C70646C5C647269766572735C7065726970686572616C5C7274635C6379E4
:402180005F7274632E63000047656E6572617465645F536F757263655C50536F43365C70646C5C647269766572735C7065726970686572616C5C737973706D5C63795F737F
:4021C0007973706D2E6300000000000000000810004002088C020000EC2108108C420208AC040000CC470208F0010000000000000000000000000000000000000D000000CD
:402200000000000002000000000000001A0000000000000006000000000100000048E80100127A0000093D0000127A0000127A0008000000401F00000000A00F02FF000049
:40224000B10208108D0208100000000080B2C300B0B13E210B4A116041F61E7104321160A2F584720621C2F8181523F07F43C2F81C35D2F81C35044BD3F81C35002BFADA04
:40228000704700BF040126400000264008B54FF26003404AD3589BB2A2F580229268013B032B76D8DFE803F0021F3C59032A02D10822394B9A60394A13691069C0F307221D
:4022C0001B0E581C02FB0000354B03FB00F0354B1B68354AA2FB03239B09B0FBF3F08230FFF7B4FF08BD032A02D108222A4B9A602A4A13691069C0F307221B0E581C02FBC7
:402300000000274B03FB00F0264B1B68264AA2FB03239B09B0FBF3F08230FFF797FF08BD032A02D108221C4B9A601C4A13691069C0F307221B0E581C02FB0000184B03FB24
:4023400000F0184B1B68184AA2FB03239B09B0FBF3F08230FFF77AFF08BD032A02D108220D4B9A600D4A13691069C0F307221B0E581C02FB00000A4B03FB00F0094B1B68F2
:40238000094AA2FB03239B09B0FBF3F08230FFF75DFF08BD00002540A00023400000214040420F00C0420208D34D621008B54378FF2B0ED100F048F9064BDB685A68136891
:4023C00043F001031360136813F0010FFBD100F033F908BD80002340F8B505460E46264B1B69002B1FDB002000F046F9234B98421BD00023224A0121184600F035F918B137
:40240000204C15E0013400E00024002000F034F91A4B984202D01C4B9C42F3D91A4B9C4205D9184C04E0174C02E0164C00E0002404BB00F009F90746144A0121144800F0C5
:40244000F3F868B925B93046FFF700FF114C08E00F4B1B69002BFBDB00F016F9044600E0084C0121002000F0F7F80028F9D1384600F0E2F82046F8BDA00023400101880063
:40248000DC42020805005200EF4902007C4902082000234001005000394B1B68002BFBDA30B4374BDA6842F00102DA60DB6813F0020F20D0324DEB689CB232490A69120A31
:4024C000120402F47F02D1F890301B0A42EA03632343EB600B6923F47F4343F410630B61D1F8903023F47F4343F41063C1F890300B69D1F89030224B00225A605B68224A01
:40250000136943F004031361012801D030BF07E020BF1E4B1B7803B120BF01221B4B1A70184BD3F8803003F00303022BE7D0144B1B68002BFBDA124BDB6813F0020F15D0EA
:4025400010490B6923F47F420D48C3681B0C1B0203F47F4313430B61D1F8903023F47F42C3681B0E42EA0323C1F89030044BDA6822F00102DA6000225A6030BC704700BFD9
:40258000E00023400000214000ED00E08C4902081E4A136943F004031361012801D030BF07E020BF1A4B1B7803B120BF0122184B1A70184BD3F8803003F00303022BE7D034
:4025C000154B1B68002BFBDA144BD3F80C31C3B941F61E72124B1A60062203F582631A603E22A3F214431A60442203F583631A600C4B1B68002BFBDA4FF0AA32074BC3F872
:402600000C210022044B5A60704700BF00ED00E08C49020800002140E000234000002540080126401C05264001B40248844601BC604700BFD907081001B40248844601BCB7
:40264000604700BFE31E081001B40248844601BC604700BFDB1E081001B40248844601BC604700BFF108081001B40248844601BC604700BF450B081001B40248844601BC07
:40268000604700BF7909081001B40248844601BC604700BFCD1A0810000000000000000000000000000000000000000000000000000000000000000000000000000000002F
:4026C00000000000000000000000000000000000000000000000000000000000000000000000000000000000000000000000000000000000000000000000000000000000DA
:402700000000000000000000000000000000000000000000000000000000000000000000000000000000000000000000000000000000000000000000000000000000000099
:402740000000000000000000000000000000000000000000000000000000000000000000000000000000000000000000000000000000000000000000000000000000000059
:402780000000000000000000000000000000000000000000000000000000000000000000000000000000000000000000000000000000000000000000000000000000000019
:4027C00000000000000000000000000000000000000000000000000000000000000000000000000000000000000000000000000000000000000000000000000000000000D9
:0200000490303A
:020000009AE67E
:0200000490501A
:0C0000000005E20721002101E220BBE620
:00000001FF