:020000041000EA
:4000000000400208310100100D000000950100100000000000000000000000000000000000000000000000000000000091010010000000000000000091010010910100109B
:4000400091010010A9040010910100109101001091010010910100109101001091010010910100109101001091010010910100109101001091010010910100109101001045
:400080009101001091010010910100109101001091010010910100109101001091010010910100109101001091010010910100109101001091010010910100109101001020
:4000C00010B5064C2378002B07D1054B002B02D0044800E000BF0123237010BD5404000800000000CC290010084B10B5002B03D00749084800E000BF07480368002B00D11F
:4001000010BD064B002BFBD09847F9E70000000058040008CC290010EC000008000000007047EFF3108072B6704780F310887047FFF7F6FF72B6104C104DAC4209DA21689F
:400140006268A368043B02DBC858D050FAE70C34F3E70B490B4A0020521A02DD043A8850FCDC094809490860BFF34F8F00F002F900F01EF8FEE70000D0290010E8290010B6
:40018000540400084C0600080000000808ED00E0FEE7FEE700B504207146084202D0EFF3098001E0EFF30880043001F0B7FBFEE710B5034800F052F9002001F0EDFAFBE79B
:4001C0000000081070B56249E0239B00CB580F2213401A00D0329200525807210A40032A05D0042A06D0002A12D15A4814E05A4A106811E01A00C0329200554952581F212C
:400200000A40112A06D0132A04D0FA20C00103E0524801E080200002002B36D14C4BB222D2009A5801211140B125ED005A59120F032422405B591B0F1C4207D0444C635924
:400240001B0F03242340012B02D102E0012300E00023002B01D0002901D1032A4BD13C4BB022D2009D58AD03AD0B3D495958C904C90C9C58240E01231C40013401F0DAFB80
:400280006843210001F0D6FB35E0012B33D1304BC822D2009A5801251540C024E4001A59120F03210A401B591B0F194207D028490B591B0F03210B40012B02D102E00123BA
:4002C00000E00023002B01D0002D01D1032A12D11F4DC022D200AB587F210B40A958090A1F263140AC58240C3440584301F0A2FB210001F09FFBE0239B00154AD3581B094F
:4003000003221340D840144C6060164B1D692D0AFC32154001351969090E013101F08AFBA060290001F086FB0500E06020610E4BC0180E4901F07EFB20750D4BE818FA219A
:40034000890001F077FBA061C003E06170BDC0460000264000127A00C000000800366E0184050000000021403F420F0040420F00E703000010B5234BB021C9005A58520034
:4003800052085A50E02080001A583024A2431A50802252045A501C491C4A9950A021890104329950FF211A4A995081315A58920092088020C00502435A505A58802000063B
:4003C00002435A505A58012082435A5000F0A4F9FFF7F8FE00F070F800F078F801F000F8B0235B055B78002B04D0B0235B055B78DBB200E02123212B03D1064B0022DA6029
:400400005A6010BD0000264001000200840500008C050000E00023408023024AD3580320184070470000214010B5FFF77AFE084980228C58074B2340074C23438B508823C4
:40044000034AD358DB06FAD5FFF76FFE10BDC04600002140FCFF00000100FA0570B50500FFF75FFE0400FFF7D7FF032801D1FFF7DBFF0A4AB0239B00D55080215058084B25
:4004800003400848034353508823044AD358DB06FAD52000FFF749FE70BDC04600002140FCFF00000300FA0510B5024800F06AFD10BDC0467004000810B5034A6032802104
:4004C000042000F04FFB10BD7005000810B501F090FA0400044800F005FC044800F06CFC200001F08AFA10BD70040008D01B0010FEE7C046F0B50025002711E0BB00C658B0
:40050000F3B2FF22964308E06A008A181478A419527822700135013BDBB2002BF4D10137002FEBD0F0BDC04630B587B05E4BA021C9005A58032082435A505C4A9024105969
:400540005B490840105110690002000A1061106901408020400001431161E02292009958F138814399509958213081439950995880200006014399500021012000F064FD47
:400580000021022000F060FD0021032000F05CFD0021042000F058FD0021002000F054FD01A8444903000A0032CA32C312CA12C300F072FD002802D00420FFF799FF3A499F
:4005C0003D4A8B588020000603438B503B4800F01DFE002802D00420FFF78AFF324C384BE158384A0A40E250E158374A0A40E250E25880252D062A43E250043BE158334A8B
:400600000A40E250E158324A0A40802189010A43E250E258802109020A43E2502D4A11682D4B0B40802149000B431360002001F0E7F92A4BE2581543E550E1580122914375
:400640000A43E2506421002001F080F9244B0021244A9950802109015858154A02405A508022D20020499950995840201F495850902000011C581E4921401E4C2143195014
:400680001D4999509958B02000011958FF2421401A4C214319501958F824A1431950184999509B5807B030BD0000264000002140FF00FFFF041C0010087F0000400D03007B
:4006C00004050000FEFCFFFFFFFF00FFFFF0FFFFFF8FFFFF00002740FFFCFFFF0C05000000000140180C000000FF00804C0C0000FF0000FF004FC30040FF0080003F420F77
:40070000C0FF008010B50A00002101F028FA10BD10B501F01BFA10BD70B58AB09621002001F014F901F0EAF8002814D101F0D6F8C0235B004E4AD358DB0705D411004D4ADB
:400740008B585B005B088B5049494A4A8B588020000603438B50012000F056FF464A516C464B0B40E82189010B435364536C1B0AFF2213403A2B07D13F4A516C404B0B4055
:40078000E82189010B435364FFF7CEFE3D4A3E4B1A6000240CE06200121953003B4AD318198B9A8AD88A00041043FFF7ABFF01340B2CF0D900240AE0620012199300334AF4
:4007C000D3185A6E196ED86DFFF7A2FF0134112CF2D92F4D2900343128003830FFF78AFE2C4A1368832149000B43136001AC22002B003C3343CB43C243CB43C243CB43C24D
:400800002100254800F0F6FD22002B00603323CB23C223CB23C223CB23C221001F4800F0E9FD24220021200001F099F91C4BE36021001C4800F0DEFD1B4D22002B1D43CBAC
:4008400043C243CB43C243CB43C22100174800F0D1FD22002B00283323CB23C223CB23C223CB23C22100124800F0C4FD0AB070BD000026400C05000000002740FF00FFFF00
:40088000FFC5FFDF0300FA05F0012140041C0010041D00100079344000003240800032400086660680023240841D0010000332400006324010B583089A00801AC000FF22A7
:4008C0008240D44381400A40072B32D89B001949CB589F46184B196A0C4022431A6228E0154B596A0C4022435A6222E0124B996A0C4022439A621CE00F4BD96A0C402243CF
:40090000DA6216E00C4B196B0C4022431A6310E0094B596B0C4022435A630AE0064B996B0C4022439A6304E0034BD96B0C402243DA6310BD002700100000214083089A002B
:40094000801AC100FF228A40072B2BD89B001748C3589F46164B186A1040C84023E0144B586A1040C8401EE0114B986A1040C84019E00F4BD86A1040C84014E00C4B186BDC
:400980001040C8400FE00A4B586B1040C8400AE0074B986B1040C84005E0054BD86B1040C84000E00020C0B27047C046202700100000214070B504000D000B4B9A680B4B4E
:4009C0009A420BD1002903D1FC21094800F078FF1034064BA400E058E55003E01034A400044BE05870BDC04600ED00E0000000084027001000000010F0B583B0041E01915A
:400A000050D04368032B03D93621294800F058FF0023E05E002802DBA178FFF74BFF0023E25E6368002A12DB9008224EC0308000875903210A40D200FF25290091408F4346
:400A400099012B000B4093403B43835117E092B20F21114008398908063189001648844661444E6803200240D200FF2738009040864398013B000340934033434B600E4BDE
:400A80009A680E4B9A420FD1019B002B03D14521074800F015FF0023E05E0199FFF78AFF002002E0064800E0002003B0F0BDC0464027001000E100E000ED00E0000000088E
:400AC0000100560070B504000D000369002B0ADA0B0C03D00549064800F0F2FE2D042D0C6560002000E0034870BDC046A70200008427001001008A0070B505000C0003684B
:400B0000002B01DA002300E0084B002B0BD1EA60230C03D00649074800F0D2FE2404240CAC60002000E0014870BDC04601008A008E0200008427001070B505000C1E03D1CA
:400B40009921064800F0BCFE2B69002B03DAEB682360002000E0024870BDC046C427001001008A00F8B504000E0015000F283FD8002A10D100290ED10F2804D99E21FF3116
:400B8000214800F09DFE6401204B9C466444204B1C60002037E0002D2CD0002E2CD0F3062CD10F2C04D99E21FF31174800F088FE6401164B9C466444154F3C607E60BD6059
:400BC000F2080021280000F0CAFF00212000FFF779FF3A0001CA0021FFF78EFF00280FD10B4B18680021FFF76DFF00280AD10AE0084808E0074806E0064804E0054802E085
:400C0000054800E00448F8BD04280010000023400006000803018A0001018A00F0B583B00D001C4B1B68DC68236883422DD947097B01C01A012383401E00002903D100F0BE
:400C4000D8FE019001E000230193124B18680368002B01DA002300E00F4B002B0ED16368BF00DF193B68334203D0B3433B60002400E00A4C0021FFF725FF00E0084C002DCC
:400C800004D1019800F0B9FE00E0064C200003B0F0BDC0460006000801008A00020188000301880004018A000A4B1B68DA68136883420BD943095901401A0121814052684D
:400CC0009B009B580B4203D0034802E0034800E003487047000600080101880004018A0000018800034B1B68002B01D1014B18607047C0460C060008F0B5474680B4040069
:400D00000F0090461E00072803D9B421254800F0D7FD254B1B682C2060431C18FF22150035402560330A13406360330CA3600F2D04D99E21FF311D4800F0C2FD6B011C4AD6
:400D400094466344236165680F2D04D9DC214900164800F0B5FD6D01164B9C4665446561A668330C04D0EB214900104800F0A8FD330C04D0D821FF310C4800F0A1FD360467
:400D8000330C1E43AE604346E36127620023A361069B002B02D000229B5EA38104BC9046F0BDC046442800100C060008042800100000234000102340F0B58FB0041E03D160
:400DC00050212E4800F07CFD6368032B03D952212A4800F075FDE36A002B03D15621274800F06EFDE368072B03D95721234800F067FD236A072B03D95821204800F060FDA1
:400E0000236B002B03D159211C4800F059FD07AA1300210061C961C321C921C302AD290023001433C1CBC1C141CB41C10821535E0CAE3380079B1933B370089B0D930B9B61
:400E40000A980096A26AE16AFFF756FF2B69E868002200920021FFF74FFF216B3000FFF7CBFD0023F25E002A05DB1F231A401E3B9340034A13600FB0F0BDC046442800102E
:400E800000E100E0F8B505000F0016001C00002A03D1FC21244800F013FD072D03D9FD21214800F00DFD072F03D9FE211E4800F007FD1E4B1B682C21280048431818794303
:400EC0005918012213004D68AB401B044568AA4015000269002A20D08F69002F1FD11268002A01DA002200E0114A002A19D132681204120C134333600369DE6001238B61E3
:400F00004C6204692B0C03D00A490B4800F0D8FC2A04120CA260002004E0084802E0084800E00748F8BDC046442800100C06000801008A008E0200000428001004028A00E7
:400F400007028A0070B505000C001600072804D96021FF31084800F0B3FC084B1B682C2068431818C369B34204D9036AB6009C51002000E0024870BD442800100C060008CE
:400F80000A028A0070B582B0040000230193002804D1D92149002B4800F092FC2369002B04D1B421FF31274800F08AFC6369002B04D1DA214900234800F082FC236A002B41
:400FC00004D1B621FF311F4800F07AFC6269D5682B0C1FD01B041360136820690369002B18DA01A9FFF7A8FD00280ED1019803681E0CFF221340E269934207D29B00226AED
:40100000D358002B02D0984700E0002631002069FFF758FD2D042D0C0FD063691D601B68636A002B03D098470023636203E0A36A002B00D098470023A36163691B6802B005
:4010400070BDC0464428001004281DD8042904D94B1EFF3B9BB2132B18D8FF290CD91F2319400B4A0300C0339B009950D03080000423835000200AE007231940D03080007A
:40108000034BC150002002E0024800E0014870470000264001004A0070B5041E04D1EF2149004C4800F00CFCB023DB004A4AD358002B01DB002500E0484D002D00D086E082
:4010C000474B22689A4204D9EE21FF31414800F0F7FB23689B03990BE3791B068022520413400B43B022D2003B498B50A2883D4B9A4204D9FA214900364800F0E1FB2289C7
:40110000394B9A4204D9F621FF31324800F0D8FBA388DB04D90C23891B04344A13400B43334A2D498B50A37A0F2B04D9FC21FF31284800F0C5FBE37A0F2B04D9FE214900CA
:40114000244800F0BDFBA289264B9A4204D9FE21FF31204800F0B4FBA37A0F211940E27A1201FF2313400B43A289120221490A401343A27B1207C02189050A401343B12277
:40118000D20015498B50A379072B03D91A49114800F096FB228A144B9A4203D917490D4800F08EFB0C4816494658164B1E40A3791B02E022D2001340334343504658124B58
:4011C0001E40238A1B04094A134033434350280070BDC046842800100000264003004A00FFFF0300FF1F0000FF0100000000FF018405000000FF1F00050200000602000077
:401200008C050000FFF8FFFFFFFF00FE70B505002D492E4A8B588020000603438B502C0003E0012000F040FB013CB223DB00264AD3585B0701D4002CF3D12349B122D2004F
:401240008858234B03408020800503438B50002D02D00ED0002C0CD01B49B022D2008B588020000603438B5003E0012000F01CFB013CB223DB00144AD358DB0701D4002C9C
:40128000F3D1002D0ED0002C0CD10F4AB021C90053585B005B0853500C4953585B005B0853500BE0084B0221B222D2009950B121C9005A58C020800502435A50002C01D167
:4012C000044800E0002070BD000026408C050000FFFFFFCF02004A00214B984230D00ED8402831D004D800281FD010282AD031E080282BD080235B00984229D02AE0194BB9
:40130000984229D007D8A0231B0698420DD0164B984212D01EE0154B98420AD0144B984209D0144B984215D101E0002016E0124814E0124812E0124810E0A020C0030DE0B5
:4013400007480BE00F4809E00F4807E00F4805E0034803E00E4801E0A420C0037047C04606005200010000F0090000A0040000F0050000F0030000F001005200020052005B
:4013800003005200010050000200500005005200FF00520010B50C4B1B69002B11DB0B4B1868FFF799FF0121094B0A4AD150084B084AD358002BFAD1074BD358002BF6D152
:4013C00000E0064810BDC04600002340100600080C040000000025408C0400000200500010B5022202490020FFF7ACFD10BDC0463501000870B505000C00002848D0002971
:4014000048D0FF230A689A4303D08D21224800F057FAFF2322699A4303D08E211E4800F04FFAA3685B0D03D08F211B4800F048FA63685B0A03D09021174800F041FAE36937
:401440005B0F03D09121144800F03AFA236A5B0F03D09221104800F033FA104BEB18DB090F4A944663441B0122682A60E268AA622269EA6262692A63A2686A626268AA618F
:40148000A2696A63E2691A60226A5A60002002E0044800E0034870BD0C2900100000CEBF0010030401005A00034A9369802149040B4393617047C04600F02540024A91698E
:4014C000024B0B409361704700F02540FFFFFFFE0D4BF222D2019A580260F022D2019A5842600A4A9A588260094A9A58C260094A9A580261084A9A584261084A9A58826108
:40150000074A9B58C36170470000344004780000087800000C7800001078000014780000187800000D4BF022D201416899500C4A816899500B4AC16899500B4A01699950EE
:401540000A4A416999500A4A81699950094AC16999500168E83299507047C0460000344004780000087800000C78000010780000147800001878000010B5074A0748135866
:401580000F24A34302210B43135004381358A3431943115010BDC0460000214004F0000010B5074A074813580F24A34303210B43135004381358A3431943115010BDC046F1
:4015C0000000214004F000000449054A8858054B0340C020C00103438B5070470000214004F00000FF8FFFFF0449054A8858054B03408020C00103438B5070470000214084
:4016000004F00000FF8FFFFF70B50500012803D92A492B4800F054F900F0EBF90400294B294AD3581F221340E822D200B02149058A5CD31A5A1E9341DBB29D4239D0002D9E
:4016400014D1FFF731FFFFF797FF1F481D4943581F229343143A13434350FFF7B5FFE823DB00B0225205D35CDAB211E01648154943581F229343143A13434350092000F0FA
:4016800013F9FFF7B1FF114BB0225205D35CDAB20D4E0C4831581F23994313400B433350012D06D1092000F0FFF8FFF779FFFFF705FF200000F0A1F970BDC046ED06000071
:4016C0008C2900101CFF0000000026404107000070B584B005000E00042803D929492A4800F0EEF8731EDBB2012B07D9042E05D0082E03D02549244800F0E2F8042E01D04D
:40170000012E1DD1224B5C68002013E023799D420FD1A368002B01D01E420AD1E36801A85A6842609B688360067023689847184B9C606469002C23D0164B9842E6D11FE051
:40174000134B9C68022E02D1002C00D02469002011E023799D420DD1A368002B01D01E4208D1E36801A85A6842609B6883600670236898472469002C02D0064B9842E8D144
:4017800004B070BD240800008C2900102508000020060008FF00420070B50500012804D9F221FF31384800F08BF8384B1B68002B05D001210120FFF78BFF040000E0002484
:4017C000002C59D100F015F90600304B1B68002B03D004210120FFF77BFFE0232C4AD358DB0603D529480C30FFF772FEB0235B055B78002B04D0B0235B055B78DBB200E0F5
:401800002123212B03D1280000F0DAF91FE02149214BCB581F221340E822D200B0204005825CD31A5A1E9341DBB20A68120207D4012B05D1194BC158194B164AD15003E090
:401840000021174B134AD150280000F0B1F9E0230F4AD358DB0603D50C480C30FFF762FE300000F0CAF8094B1B68002B09D008210120FFF72DFF04E002210120FFF728FF11
:40188000084C200070BDC0468C2900102006000800000140000026401CFF000010180000307F0000FF00420010B5034B1B78584300F096F810BDC046D400000801BEFEE7A2
:4018C00070B50D00044C18220100200000F04FF9A5610020FFF7F2FF18040008054B802212069A649B6C002B01DB002000E002487047C0460000274003004600054B8022E3
:40190000120198585B68FF221A4202D08023DB021843704700002640FEE7C04610B50A4B0268DA6142681A6282685A62C2689A620269DA6242691A6382695A63C2699A635F
:40194000FFF7EAFF10BDC04618040008F0B5002801D0192200E064228A42924152421C4BE8256D005C590327BC433A4014435C515C59184E34405C51D03D5C59BC43224380
:401980005A515A5916405E51002805D010290DD921290DD8012014E01D290BD93A290BD957290BD978290BD803200AE0002008E0022006E0002004E0012002E0022000E0E5
:4019C0000420054A13680F218B4303431360F0BD00002140FFFCFFFF00002540000000000230800803D001300238FCD1C046C0467047EFF3108072B6704780F3108870473B
:401A0000042805D1094A116804230B4313600CE00006C0239B04184090239B00044AD050024A136804218B431360704710E000E000002140002243088B4274D303098B42F9
:401A40005FD3030A8B4244D3030B8B4228D3030C8B420DD3FF22090212BA030C8B4202D31212090265D0030B8B4219D300E0090AC30B8B4201D3CB03C01A5241830B8B42E5
:401A800001D38B03C01A5241430B8B4201D34B03C01A5241030B8B4201D30B03C01A5241C30A8B4201D3CB02C01A5241830A8B4201D38B02C01A5241430A8B4201D34B0278
:401AC000C01A5241030A8B4201D30B02C01A5241CDD2C3098B4201D3CB01C01A524183098B4201D38B01C01A524143098B4201D34B01C01A524103098B4201D30B01C01AAD
:401B00005241C3088B4201D3CB00C01A524183088B4201D38B00C01A524143088B4201D34B00C01A5241411A00D20146524110467047FFE701B5002000F006F802BDC04623
:401B40000029F7D076E770477047C046002310B59A4203D0CC5CC4540133F9E710BD03008218934202D019700133FAE77047030030B5002A0DD00C7801335D1E013A2C705A
:401B80000131002CF5D19A189A4202D01C700133FAE730BDF8B5C046F8BC08BC9E467047F8B5C046F8BC08BC9E4670470000000001B40248844601BC604700BF150300087B
:401BC00001B40248844601BC604700BF410200080300000001000000010000000000000005036000040000000100000000000000010000000604600008000000E0050008DC
:401C0000A9040010F4010000140004010A000905080000006301000000203440740080203440740000223440740080223440740000243440740080243440740000263440FF
:401C40007400802634407400002834407400802834407400002A34407400802A3440740000213440D01D00109000000000233440601E00109000000000253440F01E001090
:401C80009000000000273440801F001090000000002934401020001090000000002B3440A02000109000000000603440302100107C00000080603440AC2100107C000000F0
:401CC00000613440282200107C00000080613440A42200107C00000000623440202300107C000000806234409C2300107C00000000633440182400107C0000008063344056
:401D0000942400107C00000000643440102500107C000000806434408C2500107C00000000653440082600107C00000080653440842600107C000000DF04E30102203440B2
:401D400010000000000000000000000000060A00000000000000000000000000000000000000000002000000000000000000000060000000000000000000000000000000E1
:401D80000000000000000000000000000000000000000000000000BA0000000000000000000000000000000000001D1D07000000000000000000000086660000000000003C
:401DC00000000000000000001414140000000000000008000000000000000000FFFFFFFFFFFFFFFFFFFFFFFFFFFFFFFFFFFFFF7FFF000000FFFFFFFFFFFFFFFFFFFFFFFF40
:401E0000FFFFFFF0FFFFFFFFFF00000000001F1F0000000000000000000000000000000000000000FFFFFFFFFFFFFFFFFFFFFFFF1111111111111111111011111111111179
:401E400011111111111111111111111111111111111111111111111118011111111111110002800A00000000000000025FFFFFFFFFFFFFFFFFFFFF4FFFFFFFFFFFFFFFFF21
:401E8000FF000000FFFFFFFFFFFFFFFFFFFFFFFFFFFFFFFFFFFFFFFFFF000000001F000000000E1F1F1F001F0206000000000000F0000000FFFFFBFFFFFFFFFFFFDFF7FFCF
:401EC000111111111111111111111111151111111111111111111111011111111111111101111111111111111111111111111111000002920000000000000000FFFFFFFF3E
:401F0000FFFFFFFFFFFFFFFFFFFFFFFFFFFFFFFFF6000000FFFFFFFFFFFFFFFFFFFFFFFFFFFFFFFFFFFFFFF2FF0000001F1F0000001F1F001F1F00001F00001F00000F00D6
:401F4000F000000FFFFFFFFFFFFFFFFFFDFFFFFF111111C111111111111111111111111111111111111D111101811111111111111111111111111111111111101111111125
:401F8000000014020000000000000000FFFFFFF7FFFFFFFFFFFFFFFFFFFFFF3FFFFFFFFFFF000000FFFFFFFFFFFFFFFFFFFFFFFFFFFFFFFFFFFFFFFFFF0000001F001F00BF
:401FC0001F000000001F0C00081F000000F00000F400000FFFFFFFFFFFFFFDFFFFFFBFFF11111111111111111111111111111111111111111011111111111111111111615C
:4020000011111111111111110111111111111111000032808000000000000000FFFFFFFFF1FFFFFFFFFFFF2FFFFFFFFFFFFFFFFFFF000000FFFFFFFFFFFFFFFFFFFFFFFF6D
:40204000FFFFFFFFFFFFFFFFFF000000001F00001F1F00001F0D001F0000001F000F000000000000FFFFFFFFFFFEFFFFFFFFFDFF1111111111111111111111D112111111D1
:402080001111111111111111611111111111111111111111111111111111111111111111000090010000000000000040F3FFFF7F76FFFF4FFFFFFFFFFFF7FFFFF6FFFF6F59
:4020C000FF000000FFFFFFFFFFFFFFFFFFFFFFFFFFFFFFFFFFFFFFFFFF000000000000001F001F1F1F1F000700000607000006F000000000FFFFFFFFFFFFFFFFFFFFFFBF9D
:40210000111111111111111111111111111114111111111111111111F1111111111111111111111111E112731EB811111111111100000000000000001F1F1F1F1F1F1F1FAD
:402140001F1F1F1F1F1F1F1F1F1F1F1F1F1F1F1F1F1F1F1F1F1F1F1F00000C1F0007000000000000000000000000000000000000FFFFFFFFFFFFFEFFEFFFFFFF111111111E
:40218000111111111111111111111111111111111111111111111111111111111111111111111111111111111111111100000000000000011F1F1F1F1F1F1F1F1F1F1F1FBE
:4021C0001F1F1F1F1F071F1F1F1F1F1F1F1F1F1F1F1F1F1F000500000000001F0F000500001F000000000000F0000000FFFFFFFFFFFFFFFFFFEFFFFD1111111111111111DA
:4022000011111111111111111111111111111111E011111111119111111110111111111111111111111111D100000000000000001F1F1F1F1F1F1F1F1F1F1F1F1F1F1F1FF8
:402240001F1F1F1F1F1F171F1F1F1F1F1F1F1F1F041F0604000F040E091F00001F00001F0000060070000007FFFFEFFFFFFFEFFFFFF7EBFF111111111111111111111111C1
:40228000111111111111111111111111101111A11111111111111111111110111111111101111EFE00000000000010201F1F1F1F1F1F1F1F1F1F1F0D1F1F1F1F1F1F1F1FB8
:4022C000171F1F1F171F1F1F1F1F1F1F0F00000000000607001F00001F050000007000005F000001FFFFFFFFFFFFFFFFFEFFFFFD11111111111111111191101111111111CB
:40230000111111111111111111611111111111711111111F110E1111D11110F11F1111E100002000000000001F1F1F1F1F1F011F1F1F1F1F1F1F1F1F1F1F1F1F1F1F1F1F5B
:402340001F1F1F1F1F1F1F1F001F00001F1F0000071F00050000001F0026000000040000FFFFFFFFFFFFFFFFFFFFFFFD11111111E11111111111111111111111411111114E
:40238000111111111101111111111111D111111E11111111111D11E11F11111E00009000000000801F1F1F071F1F1F1F061F1F1F1F1F1F1F1F1F1F1F1F1F1F1F1F1F1F1F4A
:4023C0001F1F1F1F000000001F00071F1F0700000005001F0000005400000400FFFFFFFFFFFFFFFFFFFFFF7D11111111111111111111111111111111111111111111111170
:4024000017111111141111111D1111D111111111111E11111EE1111100000000000000041F1F1F1F1F1F1F1F1F1F1F1F1F1F1F1F1F1F1F1F1F1F1F1F1F1F1F1F1F1F1F1F61
:4024400000001F060000000000000000000000000000000000000000FFFFFFFFFFFFFFFFFFFFFBFF111111111111111111111111111111111111111111111111111111116B
:40248000111111111111111111111111111111111111111100000000000000A01F1F1F1F1F1F1F1F1F061F1F1F1F1F1F1F1F1F1F1F1F1F1F1F1F1F1F1F1F1F1F071F00003B
:4024C000001F1F071F070000000000000000000050000000FFFFFFFFFFFFFFFFFFFFFF3D11111191011111111111111111111111111111111111111111111111111111016F
:4025000011111111111111E111111111110E111100000000000000381F1F1F1F1F1F1F1F1F1F1F1F1F1F1F1F1F1F1F1F1F1F1F1F1F1F1F1F1F1F1F1F1F07000005001F005C
:402540001F070F060800000E00000F000000000FFFFDFFFFFFFFFF7FFFFFF7F4111111111111111111111111111111111111111111111111111111111111D1111111D111A9
:4025800011111111111111111111111100000000000000001F1F1F061F071F1F1F1F1F1F1F1F1F1F1F1F1F1F1F1F1F1F1F1F1F1F1F1F1F1F1F0006000400000000071F0051
:4025C000001F000000F00000F000000FFFFFFFFFFFFFFFFFFFFFFFFF11111111111111111111111111111111111111D111111111111411111111F111111111111111D1E1FE
:40260000111111E411111ED100000000000000401F1F1F1F1F1F1F1F1F1F1F1F1F1F1F1F1F1F1F1F1F1F1F1F1F1F1F1F1F1F1F1F000B00000F0F00000000000000000D0715
:402640000000000000000000FFFFFFFFFFFFFFFFFFFFFFBF1111111111111111111111111111111111111111111111111111111111111111111111111111111111111111BA
:402680001111111100000000000000001F1F1F1F071F1F1F1F1F1F1F1F1F1F1F1F1F1F1F1F0F161F1F1F1F1F1F1F1F1F00000000070000070700001F0600000000000FF0EE
:4026C00060000000FFFFFFFFFFFFFFFFFFFFFFFF11111111111111111111111111111111111111111111111111111111111111111111111111111E1117191111D1D5E1D127
:40270000D4080010E0080010EC080010F808001004090010100900101C09001028090010540900105E09001068090010720900107C09001086090010900900109A09001065
:4027400047656E6572617465645F536F757263655C50536F43365C70646C5C647269766572735C7065726970686572616C5C737973696E745C63795F737973696E742E63BC
:402780000000000047656E6572617465645F536F757263655C50536F43365C70646C5C647269766572735C7065726970686572616C5C6970635C63795F6970635F6472763E
:4027C0002E68000047656E6572617465645F536F757263655C50536F43365C70646C5C647269766572735C7065726970686572616C5C6970635C63795F6970635F64727668
:402800002E63000047656E6572617465645F536F757263655C50536F43365C70646C5C647269766572732F7065726970686572616C2F6970632F63795F6970635F647276B3
:402840002E68000047656E6572617465645F536F757263655C50536F43365C70646C5C647269766572735C7065726970686572616C5C6970635C63795F6970635F706970EA
:40288000652E630047656E6572617465645F536F757263655C50536F43365C70646C5C647269766572735C7065726970686572616C5C737973636C6B5C63795F737973630F
:4028C0006C6B2E630000000047656E6572617465645F536F757263655C50536F43365C70646C5C647269766572735C7065726970686572616C5C737973636C6B5C63795F1F
:40290000737973636C6B2E680000000047656E6572617465645F536F757263655C50536F43365C70646C5C647269766572735C7065726970686572616C5C6770696F5C63D9
:40294000795F6770696F2E630000000047656E6572617465645F536F757263655C50536F43365C70646C5C647269766572735C7065726970686572616C5C6770696F5C63B0
:40298000795F6770696F2E680000000047656E6572617465645F536F757263655C50536F43365C70646C5C647269766572735C7065726970686572616C5C737973706D5C41
:4029C00063795F737973706D2E630000000000000000001000000008C0000000F0290010C00000085803000054040008F80100000048E80100127A0000093D0000093D0009
:402A000000093D0004000000A00F00000000D00702FF0000E9000010C1000010000000000004400B12D03E22094B1A60094A0A4B1A600A4B0621A322D2009950084A985044
:402A40009B58074B054AD358002BFADA7047C046040126401E1F000008012640000026401C05000010B54378FF2B0DD100F034F9064BDB685A68116801230B431360136869
:402A8000DB07FCD400F038F910BDC04680002340F0B583B006000F0000F026F90500032824D12B4B1B69002B22DB002000F00CF9284B98421ED00023274A0021012000F034
:402AC00023F9002803D0254C17E0013400E00024002000F0F9F81F4B984202D0204B9C42F3D91F4B9C4207D91C4C06E0002404E01A4C02E0194C00E00024002C24D100F0B2
:402B0000EBF80190174A0121174800F015F900280ED1002E04D13800FFF782FF134C08E0114B1B69002BFBDB00F0FEF8040000E00A4C032D05D10121002000F0EDF80028FB
:402B4000F9D1019800F0D8F8200003B0F0BDC046C000234001018800E000000805005200EF49020010060008000023400100500070B5304B1B68002BFBDA2E4BD9680222B3
:402B80000A43DA60DB68DB071FD52A4EF2681204150C294B1A69120A1204FF2424042240110090241A59120A12060A432A43F2601969224A114090252D01294319611959A4
:402BC0000A402A431A511A691B591A4B00225A605B681B4A116904230B431361012801D030BF00E020BF134B1B68002BFBDA114BDB68DB0715D510480269104B1A40140070
:402C00000C4DEA68120C1202FF2109020A4022430261902142581340EA68120E120213434350044BDA6802218A43DA6000225A6070BDC046E000234000002140FF00FFFF02
:402C400000ED00E0164A116904230B431361012801D030BF00E020BF124B1B68002BFBDA86235B00104AD358002B14D10F4A104B1A6006220F4B1A6038320F4B1A60063203
:402C80000E4B1A600D4B1B68002BFBDA0C4986235B00054AD1500022024B5A607047C04600ED00E0E0002340000025401E1F00000801264018052640040126401C05264021
:402CC000AAAAAAAA0000000001B40248844601BC604700BFA90C001001B40248844601BC604700BFF319001001B40248844601BC604700BF1904001001B40248844601BCD4
:402D0000604700BFFB19001001B40248844601BC604700BF850E001001B40248844601BC604700BF1D0C001001B40248844601BC604700BF9513001001B40248844601BC2B
:402D4000604700BFF90A00100000000000000000000000000000000000000000000000000000000000000000000000000000000000000000000000000000000000000000DA
:402D80000000000000000000000000000000000000000000000000000000000000000000000000000000000000000000000000000000000000000000000000000000000013
:402DC00000000000000000000000000000000000000000000000000000000000000000000000000000000000000000000000000000000000000000000000000000000000D3
:0200000490303A
:02000000A296C6
:0200000490501A
:0C0000000005E20721002101E214C39674
:00000001FF